{
  "address": "0x7A175B0C798bDD6C0Ea10C9d82dcd40a05e0F672",
  "abi": [
    {
      "inputs": [
        {
          "internalType": "address",
          "name": "_accessControlRegistry",
          "type": "address"
        },
        {
          "internalType": "string",
          "name": "_adminRoleDescription",
          "type": "string"
        },
        {
          "internalType": "address",
          "name": "_manager",
          "type": "address"
        },
        {
          "internalType": "address",
          "name": "_token",
          "type": "address"
        }
      ],
      "stateMutability": "nonpayable",
      "type": "constructor"
    },
    {
      "anonymous": false,
      "inputs": [
        {
          "indexed": false,
          "internalType": "address",
          "name": "recipient",
          "type": "address"
        },
        {
          "indexed": false,
          "internalType": "uint256",
          "name": "amount",
          "type": "uint256"
        },
        {
          "indexed": false,
          "internalType": "address",
          "name": "sender",
          "type": "address"
        }
      ],
      "name": "Claimed",
      "type": "event"
    },
    {
      "anonymous": false,
      "inputs": [
        {
          "indexed": true,
          "internalType": "address",
          "name": "user",
          "type": "address"
        },
        {
          "indexed": false,
          "internalType": "uint256",
          "name": "amount",
          "type": "uint256"
        },
        {
          "indexed": false,
          "internalType": "uint256",
          "name": "withdrawalLimit",
          "type": "uint256"
        },
        {
          "indexed": false,
          "internalType": "address",
          "name": "sender",
          "type": "address"
        }
      ],
      "name": "DecreasedUserWithdrawalLimit",
      "type": "event"
    },
    {
      "anonymous": false,
      "inputs": [
        {
          "indexed": true,
          "internalType": "address",
          "name": "user",
          "type": "address"
        },
        {
          "indexed": false,
          "internalType": "uint256",
          "name": "amount",
          "type": "uint256"
        },
        {
          "indexed": false,
          "internalType": "uint256",
          "name": "withdrawalLimit",
          "type": "uint256"
        },
        {
          "indexed": false,
          "internalType": "address",
          "name": "sender",
          "type": "address"
        }
      ],
      "name": "Deposited",
      "type": "event"
    },
    {
      "anonymous": false,
      "inputs": [
        {
          "indexed": true,
          "internalType": "address",
          "name": "user",
          "type": "address"
        },
        {
          "indexed": false,
          "internalType": "uint256",
          "name": "amount",
          "type": "uint256"
        },
        {
          "indexed": false,
          "internalType": "uint256",
          "name": "withdrawalLimit",
          "type": "uint256"
        },
        {
          "indexed": false,
          "internalType": "address",
          "name": "sender",
          "type": "address"
        }
      ],
      "name": "IncreasedUserWithdrawalLimit",
      "type": "event"
    },
    {
      "anonymous": false,
      "inputs": [
        {
          "indexed": true,
          "internalType": "address",
          "name": "user",
          "type": "address"
        },
        {
          "indexed": false,
          "internalType": "address",
          "name": "withdrawalDestination",
          "type": "address"
        }
      ],
      "name": "SetWithdrawalDestination",
      "type": "event"
    },
    {
      "anonymous": false,
      "inputs": [
        {
          "indexed": true,
          "internalType": "address",
          "name": "user",
          "type": "address"
        },
        {
          "indexed": true,
          "internalType": "bytes32",
          "name": "withdrawalHash",
          "type": "bytes32"
        },
        {
          "indexed": false,
          "internalType": "uint256",
          "name": "amount",
          "type": "uint256"
        },
        {
          "indexed": false,
          "internalType": "uint256",
          "name": "expirationTimestamp",
          "type": "uint256"
        },
        {
          "indexed": false,
          "internalType": "address",
          "name": "withdrawalSigner",
          "type": "address"
        },
        {
          "indexed": false,
          "internalType": "address",
          "name": "withdrawalDestination",
          "type": "address"
        },
        {
          "indexed": false,
          "internalType": "uint256",
          "name": "withdrawalLimit",
          "type": "uint256"
        }
      ],
      "name": "Withdrew",
      "type": "event"
    },
    {
      "inputs": [],
      "name": "CLAIMER_ROLE_DESCRIPTION",
      "outputs": [
        {
          "internalType": "string",
          "name": "",
          "type": "string"
        }
      ],
      "stateMutability": "view",
      "type": "function"
    },
    {
      "inputs": [],
      "name": "USER_WITHDRAWAL_LIMIT_DECREASER_ROLE_DESCRIPTION",
      "outputs": [
        {
          "internalType": "string",
          "name": "",
          "type": "string"
        }
      ],
      "stateMutability": "view",
      "type": "function"
    },
    {
      "inputs": [],
      "name": "USER_WITHDRAWAL_LIMIT_INCREASER_ROLE_DESCRIPTION",
      "outputs": [
        {
          "internalType": "string",
          "name": "",
          "type": "string"
        }
      ],
      "stateMutability": "view",
      "type": "function"
    },
    {
      "inputs": [],
      "name": "WITHDRAWAL_SIGNER_ROLE_DESCRIPTION",
      "outputs": [
        {
          "internalType": "string",
          "name": "",
          "type": "string"
        }
      ],
      "stateMutability": "view",
      "type": "function"
    },
    {
      "inputs": [],
      "name": "accessControlRegistry",
      "outputs": [
        {
          "internalType": "address",
          "name": "",
          "type": "address"
        }
      ],
      "stateMutability": "view",
      "type": "function"
    },
    {
      "inputs": [],
      "name": "adminRole",
      "outputs": [
        {
          "internalType": "bytes32",
          "name": "",
          "type": "bytes32"
        }
      ],
      "stateMutability": "view",
      "type": "function"
    },
    {
      "inputs": [],
      "name": "adminRoleDescription",
      "outputs": [
        {
          "internalType": "string",
          "name": "",
          "type": "string"
        }
      ],
      "stateMutability": "view",
      "type": "function"
    },
    {
      "inputs": [
        {
          "internalType": "address",
          "name": "user",
          "type": "address"
        },
        {
          "internalType": "uint256",
          "name": "amount",
          "type": "uint256"
        },
        {
          "internalType": "uint256",
          "name": "deadline",
          "type": "uint256"
        },
        {
          "internalType": "uint8",
          "name": "v",
          "type": "uint8"
        },
        {
          "internalType": "bytes32",
          "name": "r",
          "type": "bytes32"
        },
        {
          "internalType": "bytes32",
          "name": "s",
          "type": "bytes32"
        }
      ],
      "name": "applyPermitAndDeposit",
      "outputs": [
        {
          "internalType": "uint256",
          "name": "withdrawalLimit",
          "type": "uint256"
        }
      ],
      "stateMutability": "nonpayable",
      "type": "function"
    },
    {
      "inputs": [
        {
          "internalType": "address",
          "name": "recipient",
          "type": "address"
        },
        {
          "internalType": "uint256",
          "name": "amount",
          "type": "uint256"
        }
      ],
      "name": "claim",
      "outputs": [],
      "stateMutability": "nonpayable",
      "type": "function"
    },
    {
      "inputs": [],
      "name": "claimerRole",
      "outputs": [
        {
          "internalType": "bytes32",
          "name": "",
          "type": "bytes32"
        }
      ],
      "stateMutability": "view",
      "type": "function"
    },
    {
      "inputs": [
        {
          "internalType": "address",
          "name": "user",
          "type": "address"
        },
        {
          "internalType": "uint256",
          "name": "amount",
          "type": "uint256"
        }
      ],
      "name": "decreaseUserWithdrawalLimit",
      "outputs": [
        {
          "internalType": "uint256",
          "name": "withdrawalLimit",
          "type": "uint256"
        }
      ],
      "stateMutability": "nonpayable",
      "type": "function"
    },
    {
      "inputs": [
        {
          "internalType": "address",
          "name": "user",
          "type": "address"
        },
        {
          "internalType": "uint256",
          "name": "amount",
          "type": "uint256"
        }
      ],
      "name": "deposit",
      "outputs": [
        {
          "internalType": "uint256",
          "name": "withdrawalLimit",
          "type": "uint256"
        }
      ],
      "stateMutability": "nonpayable",
      "type": "function"
    },
    {
      "inputs": [
        {
          "internalType": "address",
          "name": "user",
          "type": "address"
        },
        {
          "internalType": "uint256",
          "name": "amount",
          "type": "uint256"
        }
      ],
      "name": "increaseUserWithdrawalLimit",
      "outputs": [
        {
          "internalType": "uint256",
          "name": "withdrawalLimit",
          "type": "uint256"
        }
      ],
      "stateMutability": "nonpayable",
      "type": "function"
    },
    {
      "inputs": [],
      "name": "manager",
      "outputs": [
        {
          "internalType": "address",
          "name": "",
          "type": "address"
        }
      ],
      "stateMutability": "view",
      "type": "function"
    },
    {
      "inputs": [
        {
          "internalType": "bytes[]",
          "name": "data",
          "type": "bytes[]"
        }
      ],
      "name": "multicall",
      "outputs": [
        {
          "internalType": "bytes[]",
          "name": "returndata",
          "type": "bytes[]"
        }
      ],
      "stateMutability": "nonpayable",
      "type": "function"
    },
    {
      "inputs": [
        {
          "internalType": "address",
          "name": "user",
          "type": "address"
        },
        {
          "internalType": "address",
          "name": "withdrawalDestination",
          "type": "address"
        }
      ],
      "name": "setWithdrawalDestination",
      "outputs": [],
      "stateMutability": "nonpayable",
      "type": "function"
    },
    {
      "inputs": [],
      "name": "token",
      "outputs": [
        {
          "internalType": "address",
          "name": "",
          "type": "address"
        }
      ],
      "stateMutability": "view",
      "type": "function"
    },
    {
      "inputs": [
        {
          "internalType": "bytes[]",
          "name": "data",
          "type": "bytes[]"
        }
      ],
      "name": "tryMulticall",
      "outputs": [
        {
          "internalType": "bool[]",
          "name": "successes",
          "type": "bool[]"
        },
        {
          "internalType": "bytes[]",
          "name": "returndata",
          "type": "bytes[]"
        }
      ],
      "stateMutability": "nonpayable",
      "type": "function"
    },
    {
      "inputs": [
        {
          "internalType": "address",
          "name": "",
          "type": "address"
        }
      ],
      "name": "userToWithdrawalDestination",
      "outputs": [
        {
          "internalType": "address",
          "name": "",
          "type": "address"
        }
      ],
      "stateMutability": "view",
      "type": "function"
    },
    {
      "inputs": [
        {
          "internalType": "address",
          "name": "",
          "type": "address"
        }
      ],
      "name": "userToWithdrawalLimit",
      "outputs": [
        {
          "internalType": "uint256",
          "name": "",
          "type": "uint256"
        }
      ],
      "stateMutability": "view",
      "type": "function"
    },
    {
      "inputs": [],
      "name": "userWithdrawalLimitDecreaserRole",
      "outputs": [
        {
          "internalType": "bytes32",
          "name": "",
          "type": "bytes32"
        }
      ],
      "stateMutability": "view",
      "type": "function"
    },
    {
      "inputs": [],
      "name": "userWithdrawalLimitIncreaserRole",
      "outputs": [
        {
          "internalType": "bytes32",
          "name": "",
          "type": "bytes32"
        }
      ],
      "stateMutability": "view",
      "type": "function"
    },
    {
      "inputs": [
        {
          "internalType": "uint256",
          "name": "amount",
          "type": "uint256"
        },
        {
          "internalType": "uint256",
          "name": "expirationTimestamp",
          "type": "uint256"
        },
        {
          "internalType": "address",
          "name": "withdrawalSigner",
          "type": "address"
        },
        {
          "internalType": "bytes",
          "name": "signature",
          "type": "bytes"
        }
      ],
      "name": "withdraw",
      "outputs": [
        {
          "internalType": "address",
          "name": "withdrawalDestination",
          "type": "address"
        },
        {
          "internalType": "uint256",
          "name": "withdrawalLimit",
          "type": "uint256"
        }
      ],
      "stateMutability": "nonpayable",
      "type": "function"
    },
    {
      "inputs": [],
      "name": "withdrawalSignerRole",
      "outputs": [
        {
          "internalType": "bytes32",
          "name": "",
          "type": "bytes32"
        }
      ],
      "stateMutability": "view",
      "type": "function"
    },
    {
      "inputs": [
        {
          "internalType": "bytes32",
          "name": "",
          "type": "bytes32"
        }
      ],
      "name": "withdrawalWithHashIsExecuted",
      "outputs": [
        {
          "internalType": "bool",
          "name": "",
          "type": "bool"
        }
      ],
      "stateMutability": "view",
      "type": "function"
    }
  ],
  "transactionHash": "0x18e57cddf570d5dc6af913dfde2ed300bc8da45bb5dd1b57230f1580ce3ad503",
  "args": [
    "0x12D82f38a038A71b0843BD3256CD1E0A1De74834",
    "PrepaymentDepository admin (OEV Relay)",
    "0x81bc85f329cDB28936FbB239f734AE495121F9A6",
    "0x2393F30d46a82D3F2A6339c249fB894fe8A2daD9"
  ],
  "numDeployments": 3,
  "solcInputHash": "07bb4c0d5cdd8840a822dc1d7ed83326",
  "bytecode": "0x6101a06040523480156200001257600080fd5b50604051620029e2380380620029e2833981016040819052620000359162000468565b83838382826001600160a01b038216620000895760405162461bcd60e51b815260206004820152601060248201526f4143522061646472657373207a65726f60801b60448201526064015b60405180910390fd5b6000815111620000dc5760405162461bcd60e51b815260206004820152601c60248201527f41646d696e20726f6c65206465736372697074696f6e20656d70747900000000604482015260640162000080565b6001600160a01b0382166080526000620000f78282620005ea565b50806040516020016200010b9190620006b6565b60408051601f19818403018152919052805160209091012060a05250506001600160a01b038116620001805760405162461bcd60e51b815260206004820152601460248201527f4d616e616765722061646472657373207a65726f000000000000000000000000604482015260640162000080565b6001600160a01b03811660c052620001988162000326565b60e0525050506001600160a01b038116620001eb5760405162461bcd60e51b8152602060048201526012602482015271546f6b656e2061646472657373207a65726f60701b604482015260640162000080565b6001600160a01b0381166101805260c0516200023a906200020c9062000326565b6040805180820190915260118152702bb4ba34323930bbb0b61039b4b3b732b960791b6020820152620003a0565b6101005260c0516200028b90620002519062000326565b60408051808201909152601f81527f55736572207769746864726177616c206c696d697420696e63726561736572006020820152620003a0565b6101205260c051620002dc90620002a29062000326565b60408051808201909152601f81527f55736572207769746864726177616c206c696d697420646563726561736572006020820152620003a0565b6101405260c0516200031790620002f39062000326565b60408051808201909152600781526621b630b4b6b2b960c91b6020820152620003a0565b6101605250620006d492505050565b60006200039a6200036b836040516001600160601b0319606083901b166020820152600090603401604051602081830303815290604052805190602001209050919050565b60a051604080516020808201949094528082019290925280518083038201815260609092019052805191012090565b92915050565b6000620003dc8383604051602001620003ba9190620006b6565b60405160208183030381529060405280519060200120620003e360201b60201c565b9392505050565b604080516020808201949094528082019290925280518083038201815260609092019052805191012090565b80516001600160a01b03811681146200042757600080fd5b919050565b634e487b7160e01b600052604160045260246000fd5b60005b838110156200045f57818101518382015260200162000445565b50506000910152565b600080600080608085870312156200047f57600080fd5b6200048a856200040f565b60208601519094506001600160401b0380821115620004a857600080fd5b818701915087601f830112620004bd57600080fd5b815181811115620004d257620004d26200042c565b604051601f8201601f19908116603f01168101908382118183101715620004fd57620004fd6200042c565b816040528281528a60208487010111156200051757600080fd5b6200052a83602083016020880162000442565b809750505050505062000540604086016200040f565b915062000550606086016200040f565b905092959194509250565b600181811c908216806200057057607f821691505b6020821081036200059157634e487b7160e01b600052602260045260246000fd5b50919050565b601f821115620005e557600081815260208120601f850160051c81016020861015620005c05750805b601f850160051c820191505b81811015620005e157828155600101620005cc565b5050505b505050565b81516001600160401b038111156200060657620006066200042c565b6200061e816200061784546200055b565b8462000597565b602080601f8311600181146200065657600084156200063d5750858301515b600019600386901b1c1916600185901b178555620005e1565b600085815260208120601f198616915b82811015620006875788860151825594840194600190910190840162000666565b5085821015620006a65787850151600019600388901b60f8161c191681555b5050505050600190811b01905550565b60008251620006ca81846020870162000442565b9190910192915050565b60805160a05160c05160e0516101005161012051610140516101605161018051612230620007b2600039600081816105500152818161082b01528181610c8901528181610f3301526119d70152600081816103fd0152610dda0152600081816101e60152610a5b015260008181610367015261124a0152600081816103a101526116e4015260006101ac0152600081816102fc01528181610a2501528181610da401528181611214015261169c0152600050506000818161024001528181610a8701528181610e0601528181611276015261171a01526122306000f3fe608060405234801561001057600080fd5b50600436106101a25760003560e01c80639358e157116100ee578063c16ad0ea11610097578063ea6dfa4b11610071578063ea6dfa4b146104bd578063eeaf32c3146104ef578063f51ac6491461050f578063fc0c546a1461054b57600080fd5b8063c16ad0ea14610432578063e67b88411461046e578063e7fa22861461048157600080fd5b8063ac9650d8116100c8578063ac9650d8146103d8578063b5d4da10146103f8578063bc4ee9be1461041f57600080fd5b80639358e157146103895780639d2118581461039c578063aad3ec96146103c357600080fd5b806347e7ef24116101505780637d5fd8ac1161012a5780637d5fd8ac1461032657806381b8519e14610339578063879e25371461036257600080fd5b806347e7ef24146102e4578063481c6a75146102f75780634c8f1d8d1461031e57600080fd5b80631ce9ae07116101815780631ce9ae071461023b5780632e09739d1461027a578063437b9116146102c357600080fd5b80629f2f3c146101a7578063103606b6146101e1578063114df56414610208575b600080fd5b6101ce7f000000000000000000000000000000000000000000000000000000000000000081565b6040519081526020015b60405180910390f35b6101ce7f000000000000000000000000000000000000000000000000000000000000000081565b61022b610216366004611d8f565b60036020526000908152604090205460ff1681565b60405190151581526020016101d8565b6102627f000000000000000000000000000000000000000000000000000000000000000081565b6040516001600160a01b0390911681526020016101d8565b6102b66040518060400160405280601f81526020017f55736572207769746864726177616c206c696d6974206465637265617365720081525081565b6040516101d89190611dee565b6102d66102d1366004611e08565b610572565b6040516101d8929190611ed5565b6101ce6102f2366004611f4a565b6106d8565b6102627f000000000000000000000000000000000000000000000000000000000000000081565b6102b66108fd565b6101ce610334366004611f4a565b61098b565b610262610347366004611f74565b6001602052600090815260409020546001600160a01b031681565b6101ce7f000000000000000000000000000000000000000000000000000000000000000081565b6101ce610397366004611f8f565b610c2d565b6101ce7f000000000000000000000000000000000000000000000000000000000000000081565b6103d66103d1366004611f4a565b610d02565b005b6103eb6103e6366004611e08565b610ff9565b6040516101d89190611fef565b6101ce7f000000000000000000000000000000000000000000000000000000000000000081565b6101ce61042d366004611f4a565b61117a565b6102b66040518060400160405280601f81526020017f55736572207769746864726177616c206c696d697420696e637265617365720081525081565b6103d661047c366004612002565b6113c1565b6102b66040518060400160405280601181526020017f5769746864726177616c207369676e657200000000000000000000000000000081525081565b6104d06104cb366004612035565b611541565b604080516001600160a01b0390931683526020830191909152016101d8565b6101ce6104fd366004611f74565b60026020526000908152604090205481565b6102b66040518060400160405280600781526020017f436c61696d65720000000000000000000000000000000000000000000000000081525081565b6102627f000000000000000000000000000000000000000000000000000000000000000081565b606080828067ffffffffffffffff81111561058f5761058f6120c9565b6040519080825280602002602001820160405280156105b8578160200160208202803683370190505b5092508067ffffffffffffffff8111156105d4576105d46120c9565b60405190808252806020026020018201604052801561060757816020015b60608152602001906001900390816105f25790505b50915060005b818110156106cf5730868683818110610628576106286120df565b905060200281019061063a91906120f5565b60405161064892919061213c565b600060405180830381855af49150503d8060008114610683576040519150601f19603f3d011682016040523d82523d6000602084013e610688565b606091505b5085838151811061069b5761069b6120df565b602002602001018584815181106106b4576106b46120df565b6020908102919091010191909152901515905260010161060d565b50509250929050565b600082826001600160a01b03821661072b5760405162461bcd60e51b8152602060048201526011602482015270557365722061646472657373207a65726f60781b60448201526064015b60405180910390fd5b60408051808201909152600b81526a416d6f756e74207a65726f60a81b60208201528161076b5760405162461bcd60e51b81526004016107229190611dee565b506001600160a01b038516600090815260026020526040902054610790908590612162565b6001600160a01b03861660008181526002602090815260409182902084905581518881529081018490523381830152905192955090917fa49637e3f6491de6c2c23c5006bef69df603d0dba9d65c8b756fe46ac29810b99181900360600190a26040517f23b872dd000000000000000000000000000000000000000000000000000000008152336004820152306024820152604481018590527f00000000000000000000000000000000000000000000000000000000000000006001600160a01b0316906323b872dd906064016020604051808303816000875af115801561087c573d6000803e3d6000fd5b505050506040513d601f19601f820116820180604052508101906108a09190612175565b6040518060400160405280601581526020017f5472616e7366657220756e7375636365737366756c0000000000000000000000815250906108f45760405162461bcd60e51b81526004016107229190611dee565b50505092915050565b6000805461090a90612197565b80601f016020809104026020016040519081016040528092919081815260200182805461093690612197565b80156109835780601f1061095857610100808354040283529160200191610983565b820191906000526020600020905b81548152906001019060200180831161096657829003601f168201915b505050505081565b600082826001600160a01b0382166109d95760405162461bcd60e51b8152602060048201526011602482015270557365722061646472657373207a65726f60781b6044820152606401610722565b60408051808201909152600b81526a416d6f756e74207a65726f60a81b602082015281610a195760405162461bcd60e51b81526004016107229190611dee565b50336001600160a01b037f0000000000000000000000000000000000000000000000000000000000000000161480610afa5750604051632474521560e21b81527f000000000000000000000000000000000000000000000000000000000000000060048201523360248201527f00000000000000000000000000000000000000000000000000000000000000006001600160a01b0316906391d1485490604401602060405180830381865afa158015610ad6573d6000803e3d6000fd5b505050506040513d601f19601f82011682018060405250810190610afa9190612175565b610b465760405162461bcd60e51b815260206004820181905260248201527f43616e6e6f74206465637265617365207769746864726177616c206c696d69746044820152606401610722565b6001600160a01b038516600090815260026020908152604091829020548251808401909352601483527f416d6f756e742065786365656473206c696d6974000000000000000000000000918301919091529081861115610bb95760405162461bcd60e51b81526004016107229190611dee565b50610bc485826121d1565b6001600160a01b03871660008181526002602090815260409182902084905581518981529081018490523381830152905192965090917f335d9b077520694d15541750c263be116d6ed7ac66a59598c98339fd182b68839181900360600190a250505092915050565b6040517fd505accf000000000000000000000000000000000000000000000000000000008152336004820152306024820152604481018690526064810185905260ff8416608482015260a4810183905260c481018290526000907f00000000000000000000000000000000000000000000000000000000000000006001600160a01b03169063d505accf9060e401600060405180830381600087803b158015610cd557600080fd5b505af1158015610ce9573d6000803e3d6000fd5b50505050610cf787876106d8565b979650505050505050565b6001600160a01b038216610d585760405162461bcd60e51b815260206004820152601660248201527f526563697069656e742061646472657373207a65726f000000000000000000006044820152606401610722565b60408051808201909152600b81526a416d6f756e74207a65726f60a81b602082015281610d985760405162461bcd60e51b81526004016107229190611dee565b50336001600160a01b037f0000000000000000000000000000000000000000000000000000000000000000161480610e795750604051632474521560e21b81527f000000000000000000000000000000000000000000000000000000000000000060048201523360248201527f00000000000000000000000000000000000000000000000000000000000000006001600160a01b0316906391d1485490604401602060405180830381865afa158015610e55573d6000803e3d6000fd5b505050506040513d601f19601f82011682018060405250810190610e799190612175565b610ec55760405162461bcd60e51b815260206004820152600c60248201527f43616e6e6f7420636c61696d00000000000000000000000000000000000000006044820152606401610722565b604080516001600160a01b038416815260208101839052338183015290517f7e6632ca16a0ac6cf28448500b1a17d96c8b8163ad4c4a9b44ef5386cc02779e9181900360600190a160405163a9059cbb60e01b81526001600160a01b038381166004830152602482018390527f0000000000000000000000000000000000000000000000000000000000000000169063a9059cbb906044016020604051808303816000875af1158015610f7c573d6000803e3d6000fd5b505050506040513d601f19601f82011682018060405250810190610fa09190612175565b6040518060400160405280601581526020017f5472616e7366657220756e7375636365737366756c000000000000000000000081525090610ff45760405162461bcd60e51b81526004016107229190611dee565b505050565b6060818067ffffffffffffffff811115611015576110156120c9565b60405190808252806020026020018201604052801561104857816020015b60608152602001906001900390816110335790505b50915060005b818110156111725760003086868481811061106b5761106b6120df565b905060200281019061107d91906120f5565b60405161108b92919061213c565b600060405180830381855af49150503d80600081146110c6576040519150601f19603f3d011682016040523d82523d6000602084013e6110cb565b606091505b508584815181106110de576110de6120df565b6020908102919091010152905080611169576000848381518110611104576111046120df565b602002602001015190506000815111156111215780518082602001fd5b60405162461bcd60e51b815260206004820152601b60248201527f4d756c746963616c6c3a204e6f2072657665727420737472696e6700000000006044820152606401610722565b5060010161104e565b505092915050565b600082826001600160a01b0382166111c85760405162461bcd60e51b8152602060048201526011602482015270557365722061646472657373207a65726f60781b6044820152606401610722565b60408051808201909152600b81526a416d6f756e74207a65726f60a81b6020820152816112085760405162461bcd60e51b81526004016107229190611dee565b50336001600160a01b037f00000000000000000000000000000000000000000000000000000000000000001614806112e95750604051632474521560e21b81527f000000000000000000000000000000000000000000000000000000000000000060048201523360248201527f00000000000000000000000000000000000000000000000000000000000000006001600160a01b0316906391d1485490604401602060405180830381865afa1580156112c5573d6000803e3d6000fd5b505050506040513d601f19601f820116820180604052508101906112e99190612175565b6113355760405162461bcd60e51b815260206004820181905260248201527f43616e6e6f7420696e637265617365207769746864726177616c206c696d69746044820152606401610722565b6001600160a01b038516600090815260026020526040902054611359908590612162565b6001600160a01b03861660008181526002602090815260409182902084905581518881529081018490523381830152905192955090917f3b7d792e260458e1c177def1e07111f7f7830f011d2ff9621aced2f602f7b3e39181900360600190a2505092915050565b806001600160a01b0316826001600160a01b0316036114225760405162461bcd60e51b815260206004820152601960248201527f53616d65207573657220616e642064657374696e6174696f6e000000000000006044820152606401610722565b336001600160a01b03831614801561145257506001600160a01b0382811660009081526001602052604090205416155b8061147657506001600160a01b038281166000908152600160205260409020541633145b6114c25760405162461bcd60e51b815260206004820152601660248201527f53656e646572206e6f742064657374696e6174696f6e000000000000000000006044820152606401610722565b6001600160a01b0382811660008181526001602090815260409182902080547fffffffffffffffffffffffff0000000000000000000000000000000000000000169486169485179055905192835290917f9dd95d02717bf7571007d03882b61fe2f94cc2b7700b4b88b1d59a5b995414c9910160405180910390a25050565b60008086600014156040518060400160405280600b81526020016a416d6f756e74207a65726f60a81b8152509061158b5760405162461bcd60e51b81526004016107229190611dee565b508542106115db5760405162461bcd60e51b815260206004820152601160248201527f5369676e617475726520657870697265640000000000000000000000000000006044820152606401610722565b604080514660208201526bffffffffffffffffffffffff1930606090811b8216938301939093523390921b9091166054820152606881018890526088810187905260009060a80160408051601f1981840301815291815281516020928301206000818152600390935291205490915060ff161561169a5760405162461bcd60e51b815260206004820152601b60248201527f5769746864726177616c20616c726561647920657865637574656400000000006044820152606401610722565b7f00000000000000000000000000000000000000000000000000000000000000006001600160a01b0316866001600160a01b031614806117855750604051632474521560e21b81527f000000000000000000000000000000000000000000000000000000000000000060048201526001600160a01b0387811660248301527f000000000000000000000000000000000000000000000000000000000000000016906391d1485490604401602060405180830381865afa158015611761573d6000803e3d6000fd5b505050506040513d601f19601f820116820180604052508101906117859190612175565b6117d15760405162461bcd60e51b815260206004820152601660248201527f43616e6e6f74207369676e207769746864726177616c000000000000000000006044820152606401610722565b856001600160a01b031661182686868080601f0160208091040260200160405190810160405280939291908181526020018383808284376000920191909152506118209250869150611aa59050565b90611af8565b6001600160a01b03161461187c5760405162461bcd60e51b815260206004820152601260248201527f5369676e6174757265206d69736d6174636800000000000000000000000000006044820152606401610722565b6000818152600360209081526040808320805460ff191660011790553383526002825291829020548251808401909352601483527f416d6f756e742065786365656473206c696d69740000000000000000000000009183019190915290818a11156118fa5760405162461bcd60e51b81526004016107229190611dee565b5061190589826121d1565b33600090815260026020908152604080832084905560019091529020549093506001600160a01b031661193a57339350611956565b336000908152600160205260409020546001600160a01b031693505b604080518a8152602081018a90526001600160a01b038981168284015286166060820152608081018590529051839133917f26b54a250815ecc9a950e4e58faf8b45be2340e5b1e3cab54f466cea24f1d5e89181900360a00190a360405163a9059cbb60e01b81526001600160a01b038581166004830152602482018b90527f0000000000000000000000000000000000000000000000000000000000000000169063a9059cbb906044016020604051808303816000875af1158015611a20573d6000803e3d6000fd5b505050506040513d601f19601f82011682018060405250810190611a449190612175565b6040518060400160405280601581526020017f5472616e7366657220756e7375636365737366756c000000000000000000000081525090611a985760405162461bcd60e51b81526004016107229190611dee565b5050509550959350505050565b6040517f19457468657265756d205369676e6564204d6573736167653a0a3332000000006020820152603c8101829052600090605c01604051602081830303815290604052805190602001209050919050565b6000806000611b078585611b1e565b91509150611b1481611b63565b5090505b92915050565b6000808251604103611b545760208301516040840151606085015160001a611b4887828585611ccb565b94509450505050611b5c565b506000905060025b9250929050565b6000816004811115611b7757611b776121e4565b03611b7f5750565b6001816004811115611b9357611b936121e4565b03611be05760405162461bcd60e51b815260206004820152601860248201527f45434453413a20696e76616c6964207369676e617475726500000000000000006044820152606401610722565b6002816004811115611bf457611bf46121e4565b03611c415760405162461bcd60e51b815260206004820152601f60248201527f45434453413a20696e76616c6964207369676e6174757265206c656e677468006044820152606401610722565b6003816004811115611c5557611c556121e4565b03611cc85760405162461bcd60e51b815260206004820152602260248201527f45434453413a20696e76616c6964207369676e6174757265202773272076616c60448201527f75650000000000000000000000000000000000000000000000000000000000006064820152608401610722565b50565b6000807f7fffffffffffffffffffffffffffffff5d576e7357a4501ddfe92f46681b20a0831115611d025750600090506003611d86565b6040805160008082526020820180845289905260ff881692820192909252606081018690526080810185905260019060a0016020604051602081039080840390855afa158015611d56573d6000803e3d6000fd5b5050604051601f1901519150506001600160a01b038116611d7f57600060019250925050611d86565b9150600090505b94509492505050565b600060208284031215611da157600080fd5b5035919050565b6000815180845260005b81811015611dce57602081850181015186830182015201611db2565b506000602082860101526020601f19601f83011685010191505092915050565b602081526000611e016020830184611da8565b9392505050565b60008060208385031215611e1b57600080fd5b823567ffffffffffffffff80821115611e3357600080fd5b818501915085601f830112611e4757600080fd5b813581811115611e5657600080fd5b8660208260051b8501011115611e6b57600080fd5b60209290920196919550909350505050565b600082825180855260208086019550808260051b84010181860160005b84811015611ec857601f19868403018952611eb6838351611da8565b98840198925090830190600101611e9a565b5090979650505050505050565b604080825283519082018190526000906020906060840190828701845b82811015611f10578151151584529284019290840190600101611ef2565b50505083810382850152611f248186611e7d565b9695505050505050565b80356001600160a01b0381168114611f4557600080fd5b919050565b60008060408385031215611f5d57600080fd5b611f6683611f2e565b946020939093013593505050565b600060208284031215611f8657600080fd5b611e0182611f2e565b60008060008060008060c08789031215611fa857600080fd5b611fb187611f2e565b95506020870135945060408701359350606087013560ff81168114611fd557600080fd5b9598949750929560808101359460a0909101359350915050565b602081526000611e016020830184611e7d565b6000806040838503121561201557600080fd5b61201e83611f2e565b915061202c60208401611f2e565b90509250929050565b60008060008060006080868803121561204d57600080fd5b853594506020860135935061206460408701611f2e565b9250606086013567ffffffffffffffff8082111561208157600080fd5b818801915088601f83011261209557600080fd5b8135818111156120a457600080fd5b8960208285010111156120b657600080fd5b9699959850939650602001949392505050565b634e487b7160e01b600052604160045260246000fd5b634e487b7160e01b600052603260045260246000fd5b6000808335601e1984360301811261210c57600080fd5b83018035915067ffffffffffffffff82111561212757600080fd5b602001915036819003821315611b5c57600080fd5b8183823760009101908152919050565b634e487b7160e01b600052601160045260246000fd5b80820180821115611b1857611b1861214c565b60006020828403121561218757600080fd5b81518015158114611e0157600080fd5b600181811c908216806121ab57607f821691505b6020821081036121cb57634e487b7160e01b600052602260045260246000fd5b50919050565b81810381811115611b1857611b1861214c565b634e487b7160e01b600052602160045260246000fdfea2646970667358221220b1951b2346a2067d78e9b91c0e17e38ea6486fde9cf92d10cf25d6f03072fff064736f6c63430008110033",
  "devdoc": {
    "kind": "dev",
    "methods": {
      "applyPermitAndDeposit(address,uint256,uint256,uint8,bytes32,bytes32)": {
        "params": {
          "amount": "Amount of tokens to deposit",
          "deadline": "Deadline of the permit",
          "r": "r component of the signature",
          "s": "s component of the signature",
          "user": "User address",
          "v": "v component of the signature"
        },
        "returns": {
          "withdrawalLimit": "Increased withdrawal limit"
        }
      },
      "claim(address,uint256)": {
        "params": {
          "amount": "Amount of tokens to claim",
          "recipient": "Recipient address"
        }
      },
      "constructor": {
        "params": {
          "_accessControlRegistry": "AccessControlRegistry contract address",
          "_adminRoleDescription": "Admin role description",
          "_manager": "Manager address",
          "_token": "Contract address of the ERC20 token that prepayments are made in"
        }
      },
      "decreaseUserWithdrawalLimit(address,uint256)": {
        "params": {
          "amount": "Amount to decrease the withdrawal limit by",
          "user": "User address"
        },
        "returns": {
          "withdrawalLimit": "Decreased withdrawal limit"
        }
      },
      "deposit(address,uint256)": {
        "params": {
          "amount": "Amount of tokens to deposit",
          "user": "User address"
        },
        "returns": {
          "withdrawalLimit": "Increased withdrawal limit"
        }
      },
      "increaseUserWithdrawalLimit(address,uint256)": {
        "details": "This function is intended to be used to revert faulty `decreaseUserWithdrawalLimit()` calls",
        "params": {
          "amount": "Amount to increase the withdrawal limit by",
          "user": "User address"
        },
        "returns": {
          "withdrawalLimit": "Increased withdrawal limit"
        }
      },
      "multicall(bytes[])": {
        "params": {
          "data": "Array of calldata of batched calls"
        },
        "returns": {
          "returndata": "Array of returndata of batched calls"
        }
      },
      "setWithdrawalDestination(address,address)": {
        "params": {
          "user": "User address",
          "withdrawalDestination": "Withdrawal destination"
        }
      },
      "tryMulticall(bytes[])": {
        "params": {
          "data": "Array of calldata of batched calls"
        },
        "returns": {
          "returndata": "Array of returndata of batched calls",
          "successes": "Array of success conditions of batched calls"
        }
      },
      "withdraw(uint256,uint256,address,bytes)": {
        "params": {
          "amount": "Amount of tokens to withdraw",
          "expirationTimestamp": "Expiration timestamp of the signature",
          "signature": "Withdrawal signature",
          "withdrawalSigner": "Address of the account that signed the withdrawal"
        },
        "returns": {
          "withdrawalDestination": "Withdrawal destination",
          "withdrawalLimit": "Decreased withdrawal limit"
        }
      }
    },
    "title": "Contract that enables micropayments to be prepaid in batch",
    "version": 1
  },
  "userdoc": {
    "kind": "user",
    "methods": {
      "CLAIMER_ROLE_DESCRIPTION()": {
        "notice": "Claimer role description"
      },
      "USER_WITHDRAWAL_LIMIT_DECREASER_ROLE_DESCRIPTION()": {
        "notice": "User withdrawal limit decreaser role description"
      },
      "USER_WITHDRAWAL_LIMIT_INCREASER_ROLE_DESCRIPTION()": {
        "notice": "User withdrawal limit increaser role description"
      },
      "WITHDRAWAL_SIGNER_ROLE_DESCRIPTION()": {
        "notice": "Withdrawal signer role description"
      },
      "accessControlRegistry()": {
        "notice": "AccessControlRegistry contract address"
      },
      "adminRole()": {
        "notice": "Admin role"
      },
      "adminRoleDescription()": {
        "notice": "Admin role description"
      },
      "applyPermitAndDeposit(address,uint256,uint256,uint8,bytes32,bytes32)": {
        "notice": "Called to apply a ERC2612 permit and deposit tokens on behalf of a user"
      },
      "claim(address,uint256)": {
        "notice": "Called to claim tokens"
      },
      "claimerRole()": {
        "notice": "Claimer role"
      },
      "decreaseUserWithdrawalLimit(address,uint256)": {
        "notice": "Called to decrease the withdrawal limit of the user"
      },
      "deposit(address,uint256)": {
        "notice": "Called to deposit tokens on behalf of a user"
      },
      "increaseUserWithdrawalLimit(address,uint256)": {
        "notice": "Called to increase the withdrawal limit of the user"
      },
      "manager()": {
        "notice": "Address of the manager that manages the related AccessControlRegistry roles"
      },
      "multicall(bytes[])": {
        "notice": "Batches calls to the inheriting contract and reverts as soon as one of the batched calls reverts"
      },
      "setWithdrawalDestination(address,address)": {
        "notice": "Called by the user that has not set a withdrawal destination to set a withdrawal destination, or called by the withdrawal destination of a user to set a new withdrawal destination"
      },
      "token()": {
        "notice": "Contract address of the ERC20 token that prepayments can be made in"
      },
      "tryMulticall(bytes[])": {
        "notice": "Batches calls to the inheriting contract but does not revert if any of the batched calls reverts"
      },
      "userToWithdrawalDestination(address)": {
        "notice": "Returns the withdrawal destination of the user"
      },
      "userToWithdrawalLimit(address)": {
        "notice": "Returns the withdrawal limit of the user"
      },
      "userWithdrawalLimitDecreaserRole()": {
        "notice": "User withdrawal limit decreaser role"
      },
      "userWithdrawalLimitIncreaserRole()": {
        "notice": "User withdrawal limit increaser role"
      },
      "withdraw(uint256,uint256,address,bytes)": {
        "notice": "Called by a user to withdraw tokens"
      },
      "withdrawalSignerRole()": {
        "notice": "Withdrawal signer role"
      },
      "withdrawalWithHashIsExecuted(bytes32)": {
        "notice": "Returns if the withdrawal with the hash is executed"
      }
    },
    "notice": "`manager` represents the payment recipient, and its various privileges can be delegated to other accounts through respective roles. `manager`, `userWithdrawalLimitIncreaser` and `claimer` roles should only be granted to a multisig or an equivalently decentralized account. `withdrawalSigner` issues ERC191 signatures, and thus has to be an EOA. It being compromised poses a risk in proportion to the redundancy in user withdrawal limits. Have a `userWithdrawalLimitDecreaser` decrease user withdrawal limits as necessary to mitigate this risk. The `userWithdrawalLimitDecreaser` role can be granted to an EOA, as it cannot cause irreversible harm. This contract accepts prepayments in an ERC20 token specified immutably during construction. Do not use tokens that are not fully ERC20-compliant. An optional `depositWithPermit()` function is added to provide ERC2612 support.",
    "version": 1
  },
  "storageLayout": {
    "storage": [
      {
        "astId": 6929,
        "contract": "contracts/utils/PrepaymentDepository.sol:PrepaymentDepository",
        "label": "adminRoleDescription",
        "offset": 0,
        "slot": "0",
        "type": "t_string_storage"
      },
      {
        "astId": 18952,
        "contract": "contracts/utils/PrepaymentDepository.sol:PrepaymentDepository",
        "label": "userToWithdrawalDestination",
        "offset": 0,
        "slot": "1",
        "type": "t_mapping(t_address,t_address)"
      },
      {
        "astId": 18957,
        "contract": "contracts/utils/PrepaymentDepository.sol:PrepaymentDepository",
        "label": "userToWithdrawalLimit",
        "offset": 0,
        "slot": "2",
        "type": "t_mapping(t_address,t_uint256)"
      },
      {
        "astId": 18962,
        "contract": "contracts/utils/PrepaymentDepository.sol:PrepaymentDepository",
        "label": "withdrawalWithHashIsExecuted",
        "offset": 0,
        "slot": "3",
        "type": "t_mapping(t_bytes32,t_bool)"
      }
    ],
    "types": {
      "t_address": {
        "encoding": "inplace",
        "label": "address",
        "numberOfBytes": "20"
      },
      "t_bool": {
        "encoding": "inplace",
        "label": "bool",
        "numberOfBytes": "1"
      },
      "t_bytes32": {
        "encoding": "inplace",
        "label": "bytes32",
        "numberOfBytes": "32"
      },
      "t_mapping(t_address,t_address)": {
        "encoding": "mapping",
        "key": "t_address",
        "label": "mapping(address => address)",
        "numberOfBytes": "32",
        "value": "t_address"
      },
      "t_mapping(t_address,t_uint256)": {
        "encoding": "mapping",
        "key": "t_address",
        "label": "mapping(address => uint256)",
        "numberOfBytes": "32",
        "value": "t_uint256"
      },
      "t_mapping(t_bytes32,t_bool)": {
        "encoding": "mapping",
        "key": "t_bytes32",
        "label": "mapping(bytes32 => bool)",
        "numberOfBytes": "32",
        "value": "t_bool"
      },
      "t_string_storage": {
        "encoding": "bytes",
        "label": "string",
        "numberOfBytes": "32"
      },
      "t_uint256": {
        "encoding": "inplace",
        "label": "uint256",
        "numberOfBytes": "32"
      }
    }
  }
}