{
  "address": "0xd5A87c43b4b9792ee059161f618f72732AF15dE2",
  "abi": [
    {
      "inputs": [
        {
          "internalType": "address",
          "name": "_accessControlRegistry",
          "type": "address"
        },
        {
          "internalType": "string",
          "name": "_adminRoleDescription",
          "type": "string"
        },
        {
          "internalType": "address",
          "name": "_manager",
          "type": "address"
        },
        {
          "internalType": "address",
          "name": "_airnodeProtocol",
          "type": "address"
        }
      ],
      "stateMutability": "nonpayable",
      "type": "constructor"
    },
    {
      "anonymous": false,
      "inputs": [
        {
          "indexed": true,
          "internalType": "bytes32",
          "name": "beaconId",
          "type": "bytes32"
        },
        {
          "indexed": false,
          "internalType": "bytes32",
          "name": "subscriptionId",
          "type": "bytes32"
        },
        {
          "indexed": false,
          "internalType": "address",
          "name": "airnode",
          "type": "address"
        },
        {
          "indexed": false,
          "internalType": "bytes32",
          "name": "templateId",
          "type": "bytes32"
        },
        {
          "indexed": false,
          "internalType": "bytes",
          "name": "conditions",
          "type": "bytes"
        },
        {
          "indexed": false,
          "internalType": "address",
          "name": "relayer",
          "type": "address"
        },
        {
          "indexed": false,
          "internalType": "address",
          "name": "sponsor",
          "type": "address"
        }
      ],
      "name": "RegisteredBeaconUpdateSubscription",
      "type": "event"
    },
    {
      "anonymous": false,
      "inputs": [
        {
          "indexed": true,
          "internalType": "bytes32",
          "name": "beaconId",
          "type": "bytes32"
        },
        {
          "indexed": false,
          "internalType": "address",
          "name": "airnode",
          "type": "address"
        },
        {
          "indexed": false,
          "internalType": "bytes32",
          "name": "templateId",
          "type": "bytes32"
        },
        {
          "indexed": false,
          "internalType": "address",
          "name": "relayer",
          "type": "address"
        },
        {
          "indexed": false,
          "internalType": "address",
          "name": "sponsor",
          "type": "address"
        },
        {
          "indexed": false,
          "internalType": "bytes32",
          "name": "requestId",
          "type": "bytes32"
        },
        {
          "indexed": false,
          "internalType": "address",
          "name": "requester",
          "type": "address"
        }
      ],
      "name": "RequestedRelayedRrpBeaconUpdate",
      "type": "event"
    },
    {
      "anonymous": false,
      "inputs": [
        {
          "indexed": true,
          "internalType": "bytes32",
          "name": "beaconId",
          "type": "bytes32"
        },
        {
          "indexed": false,
          "internalType": "address",
          "name": "airnode",
          "type": "address"
        },
        {
          "indexed": false,
          "internalType": "bytes32",
          "name": "templateId",
          "type": "bytes32"
        },
        {
          "indexed": false,
          "internalType": "address",
          "name": "sponsor",
          "type": "address"
        },
        {
          "indexed": false,
          "internalType": "bytes32",
          "name": "requestId",
          "type": "bytes32"
        },
        {
          "indexed": false,
          "internalType": "address",
          "name": "requester",
          "type": "address"
        }
      ],
      "name": "RequestedRrpBeaconUpdate",
      "type": "event"
    },
    {
      "anonymous": false,
      "inputs": [
        {
          "indexed": true,
          "internalType": "bytes32",
          "name": "dataFeedId",
          "type": "bytes32"
        },
        {
          "indexed": true,
          "internalType": "bytes32",
          "name": "dapiName",
          "type": "bytes32"
        },
        {
          "indexed": false,
          "internalType": "address",
          "name": "sender",
          "type": "address"
        }
      ],
      "name": "SetDapiName",
      "type": "event"
    },
    {
      "anonymous": false,
      "inputs": [
        {
          "indexed": true,
          "internalType": "address",
          "name": "sponsor",
          "type": "address"
        },
        {
          "indexed": true,
          "internalType": "address",
          "name": "requester",
          "type": "address"
        },
        {
          "indexed": false,
          "internalType": "bool",
          "name": "status",
          "type": "bool"
        }
      ],
      "name": "SetRrpBeaconUpdatePermissionStatus",
      "type": "event"
    },
    {
      "anonymous": false,
      "inputs": [
        {
          "indexed": true,
          "internalType": "bytes32",
          "name": "beaconSetId",
          "type": "bytes32"
        },
        {
          "indexed": false,
          "internalType": "int224",
          "name": "value",
          "type": "int224"
        },
        {
          "indexed": false,
          "internalType": "uint32",
          "name": "timestamp",
          "type": "uint32"
        }
      ],
      "name": "UpdatedBeaconSetWithBeacons",
      "type": "event"
    },
    {
      "anonymous": false,
      "inputs": [
        {
          "indexed": true,
          "internalType": "bytes32",
          "name": "dapiId",
          "type": "bytes32"
        },
        {
          "indexed": false,
          "internalType": "int224",
          "name": "value",
          "type": "int224"
        },
        {
          "indexed": false,
          "internalType": "uint32",
          "name": "timestamp",
          "type": "uint32"
        }
      ],
      "name": "UpdatedBeaconSetWithDomainSignedData",
      "type": "event"
    },
    {
      "anonymous": false,
      "inputs": [
        {
          "indexed": true,
          "internalType": "bytes32",
          "name": "beaconSetId",
          "type": "bytes32"
        },
        {
          "indexed": false,
          "internalType": "int224",
          "name": "value",
          "type": "int224"
        },
        {
          "indexed": false,
          "internalType": "uint32",
          "name": "timestamp",
          "type": "uint32"
        }
      ],
      "name": "UpdatedBeaconSetWithSignedData",
      "type": "event"
    },
    {
      "anonymous": false,
      "inputs": [
        {
          "indexed": true,
          "internalType": "bytes32",
          "name": "beaconId",
          "type": "bytes32"
        },
        {
          "indexed": false,
          "internalType": "int224",
          "name": "value",
          "type": "int224"
        },
        {
          "indexed": false,
          "internalType": "uint32",
          "name": "timestamp",
          "type": "uint32"
        }
      ],
      "name": "UpdatedBeaconWithDomainSignedData",
      "type": "event"
    },
    {
      "anonymous": false,
      "inputs": [
        {
          "indexed": true,
          "internalType": "bytes32",
          "name": "beaconId",
          "type": "bytes32"
        },
        {
          "indexed": false,
          "internalType": "bytes32",
          "name": "subscriptionId",
          "type": "bytes32"
        },
        {
          "indexed": false,
          "internalType": "int224",
          "name": "value",
          "type": "int224"
        },
        {
          "indexed": false,
          "internalType": "uint32",
          "name": "timestamp",
          "type": "uint32"
        }
      ],
      "name": "UpdatedBeaconWithPsp",
      "type": "event"
    },
    {
      "anonymous": false,
      "inputs": [
        {
          "indexed": true,
          "internalType": "bytes32",
          "name": "beaconId",
          "type": "bytes32"
        },
        {
          "indexed": false,
          "internalType": "bytes32",
          "name": "requestId",
          "type": "bytes32"
        },
        {
          "indexed": false,
          "internalType": "int224",
          "name": "value",
          "type": "int224"
        },
        {
          "indexed": false,
          "internalType": "uint32",
          "name": "timestamp",
          "type": "uint32"
        }
      ],
      "name": "UpdatedBeaconWithRrp",
      "type": "event"
    },
    {
      "anonymous": false,
      "inputs": [
        {
          "indexed": true,
          "internalType": "bytes32",
          "name": "beaconId",
          "type": "bytes32"
        },
        {
          "indexed": false,
          "internalType": "int224",
          "name": "value",
          "type": "int224"
        },
        {
          "indexed": false,
          "internalType": "uint32",
          "name": "timestamp",
          "type": "uint32"
        }
      ],
      "name": "UpdatedBeaconWithSignedData",
      "type": "event"
    },
    {
      "anonymous": false,
      "inputs": [
        {
          "indexed": true,
          "internalType": "bytes32",
          "name": "beaconSetId",
          "type": "bytes32"
        },
        {
          "indexed": true,
          "internalType": "address",
          "name": "proxy",
          "type": "address"
        },
        {
          "indexed": true,
          "internalType": "bytes32",
          "name": "updateId",
          "type": "bytes32"
        },
        {
          "indexed": false,
          "internalType": "int224",
          "name": "value",
          "type": "int224"
        },
        {
          "indexed": false,
          "internalType": "uint32",
          "name": "timestamp",
          "type": "uint32"
        }
      ],
      "name": "UpdatedOevProxyBeaconSetWithSignedData",
      "type": "event"
    },
    {
      "anonymous": false,
      "inputs": [
        {
          "indexed": true,
          "internalType": "bytes32",
          "name": "beaconId",
          "type": "bytes32"
        },
        {
          "indexed": true,
          "internalType": "address",
          "name": "proxy",
          "type": "address"
        },
        {
          "indexed": true,
          "internalType": "bytes32",
          "name": "updateId",
          "type": "bytes32"
        },
        {
          "indexed": false,
          "internalType": "int224",
          "name": "value",
          "type": "int224"
        },
        {
          "indexed": false,
          "internalType": "uint32",
          "name": "timestamp",
          "type": "uint32"
        }
      ],
      "name": "UpdatedOevProxyBeaconWithSignedData",
      "type": "event"
    },
    {
      "anonymous": false,
      "inputs": [
        {
          "indexed": true,
          "internalType": "address",
          "name": "oevProxy",
          "type": "address"
        },
        {
          "indexed": false,
          "internalType": "address",
          "name": "oevBeneficiary",
          "type": "address"
        },
        {
          "indexed": false,
          "internalType": "uint256",
          "name": "amount",
          "type": "uint256"
        }
      ],
      "name": "Withdrew",
      "type": "event"
    },
    {
      "inputs": [],
      "name": "DAPI_NAME_SETTER_ROLE_DESCRIPTION",
      "outputs": [
        {
          "internalType": "string",
          "name": "",
          "type": "string"
        }
      ],
      "stateMutability": "view",
      "type": "function"
    },
    {
      "inputs": [],
      "name": "HUNDRED_PERCENT",
      "outputs": [
        {
          "internalType": "uint256",
          "name": "",
          "type": "uint256"
        }
      ],
      "stateMutability": "view",
      "type": "function"
    },
    {
      "inputs": [],
      "name": "accessControlRegistry",
      "outputs": [
        {
          "internalType": "address",
          "name": "",
          "type": "address"
        }
      ],
      "stateMutability": "view",
      "type": "function"
    },
    {
      "inputs": [],
      "name": "adminRole",
      "outputs": [
        {
          "internalType": "bytes32",
          "name": "",
          "type": "bytes32"
        }
      ],
      "stateMutability": "view",
      "type": "function"
    },
    {
      "inputs": [],
      "name": "adminRoleDescription",
      "outputs": [
        {
          "internalType": "string",
          "name": "",
          "type": "string"
        }
      ],
      "stateMutability": "view",
      "type": "function"
    },
    {
      "inputs": [
        {
          "internalType": "bytes32[]",
          "name": "beaconIds",
          "type": "bytes32[]"
        }
      ],
      "name": "aggregateBeacons",
      "outputs": [
        {
          "internalType": "int224",
          "name": "value",
          "type": "int224"
        },
        {
          "internalType": "uint32",
          "name": "timestamp",
          "type": "uint32"
        }
      ],
      "stateMutability": "view",
      "type": "function"
    },
    {
      "inputs": [],
      "name": "airnodeProtocol",
      "outputs": [
        {
          "internalType": "address",
          "name": "",
          "type": "address"
        }
      ],
      "stateMutability": "view",
      "type": "function"
    },
    {
      "inputs": [
        {
          "internalType": "bytes32",
          "name": "subscriptionId",
          "type": "bytes32"
        },
        {
          "internalType": "bytes",
          "name": "data",
          "type": "bytes"
        },
        {
          "internalType": "bytes",
          "name": "conditionParameters",
          "type": "bytes"
        }
      ],
      "name": "conditionPspBeaconSetUpdate",
      "outputs": [
        {
          "internalType": "bool",
          "name": "",
          "type": "bool"
        }
      ],
      "stateMutability": "view",
      "type": "function"
    },
    {
      "inputs": [
        {
          "internalType": "bytes32",
          "name": "subscriptionId",
          "type": "bytes32"
        },
        {
          "internalType": "bytes",
          "name": "data",
          "type": "bytes"
        },
        {
          "internalType": "bytes",
          "name": "conditionParameters",
          "type": "bytes"
        }
      ],
      "name": "conditionPspBeaconUpdate",
      "outputs": [
        {
          "internalType": "bool",
          "name": "",
          "type": "bool"
        }
      ],
      "stateMutability": "view",
      "type": "function"
    },
    {
      "inputs": [
        {
          "internalType": "bytes32",
          "name": "",
          "type": "bytes32"
        }
      ],
      "name": "dapiNameHashToDataFeedId",
      "outputs": [
        {
          "internalType": "bytes32",
          "name": "",
          "type": "bytes32"
        }
      ],
      "stateMutability": "view",
      "type": "function"
    },
    {
      "inputs": [],
      "name": "dapiNameSetterRole",
      "outputs": [
        {
          "internalType": "bytes32",
          "name": "",
          "type": "bytes32"
        }
      ],
      "stateMutability": "view",
      "type": "function"
    },
    {
      "inputs": [
        {
          "internalType": "bytes32",
          "name": "dapiName",
          "type": "bytes32"
        }
      ],
      "name": "dapiNameToDataFeedId",
      "outputs": [
        {
          "internalType": "bytes32",
          "name": "",
          "type": "bytes32"
        }
      ],
      "stateMutability": "view",
      "type": "function"
    },
    {
      "inputs": [
        {
          "internalType": "bytes32",
          "name": "",
          "type": "bytes32"
        }
      ],
      "name": "dataFeeds",
      "outputs": [
        {
          "internalType": "int224",
          "name": "value",
          "type": "int224"
        },
        {
          "internalType": "uint32",
          "name": "timestamp",
          "type": "uint32"
        }
      ],
      "stateMutability": "view",
      "type": "function"
    },
    {
      "inputs": [
        {
          "internalType": "bytes32",
          "name": "subscriptionId",
          "type": "bytes32"
        },
        {
          "internalType": "address",
          "name": "airnode",
          "type": "address"
        },
        {
          "internalType": "address",
          "name": "relayer",
          "type": "address"
        },
        {
          "internalType": "address",
          "name": "sponsor",
          "type": "address"
        },
        {
          "internalType": "uint256",
          "name": "timestamp",
          "type": "uint256"
        },
        {
          "internalType": "bytes",
          "name": "data",
          "type": "bytes"
        },
        {
          "internalType": "bytes",
          "name": "signature",
          "type": "bytes"
        }
      ],
      "name": "fulfillPspBeaconSetUpdate",
      "outputs": [],
      "stateMutability": "nonpayable",
      "type": "function"
    },
    {
      "inputs": [
        {
          "internalType": "bytes32",
          "name": "subscriptionId",
          "type": "bytes32"
        },
        {
          "internalType": "address",
          "name": "airnode",
          "type": "address"
        },
        {
          "internalType": "address",
          "name": "relayer",
          "type": "address"
        },
        {
          "internalType": "address",
          "name": "sponsor",
          "type": "address"
        },
        {
          "internalType": "uint256",
          "name": "timestamp",
          "type": "uint256"
        },
        {
          "internalType": "bytes",
          "name": "data",
          "type": "bytes"
        },
        {
          "internalType": "bytes",
          "name": "signature",
          "type": "bytes"
        }
      ],
      "name": "fulfillPspBeaconUpdate",
      "outputs": [],
      "stateMutability": "nonpayable",
      "type": "function"
    },
    {
      "inputs": [
        {
          "internalType": "bytes32",
          "name": "requestId",
          "type": "bytes32"
        },
        {
          "internalType": "uint256",
          "name": "timestamp",
          "type": "uint256"
        },
        {
          "internalType": "bytes",
          "name": "data",
          "type": "bytes"
        }
      ],
      "name": "fulfillRrpBeaconUpdate",
      "outputs": [],
      "stateMutability": "nonpayable",
      "type": "function"
    },
    {
      "inputs": [
        {
          "internalType": "address",
          "name": "account",
          "type": "address"
        }
      ],
      "name": "getBalance",
      "outputs": [
        {
          "internalType": "uint256",
          "name": "",
          "type": "uint256"
        }
      ],
      "stateMutability": "view",
      "type": "function"
    },
    {
      "inputs": [],
      "name": "getBlockBasefee",
      "outputs": [
        {
          "internalType": "uint256",
          "name": "",
          "type": "uint256"
        }
      ],
      "stateMutability": "view",
      "type": "function"
    },
    {
      "inputs": [],
      "name": "getBlockNumber",
      "outputs": [
        {
          "internalType": "uint256",
          "name": "",
          "type": "uint256"
        }
      ],
      "stateMutability": "view",
      "type": "function"
    },
    {
      "inputs": [],
      "name": "getBlockTimestamp",
      "outputs": [
        {
          "internalType": "uint256",
          "name": "",
          "type": "uint256"
        }
      ],
      "stateMutability": "view",
      "type": "function"
    },
    {
      "inputs": [],
      "name": "getChainId",
      "outputs": [
        {
          "internalType": "uint256",
          "name": "",
          "type": "uint256"
        }
      ],
      "stateMutability": "view",
      "type": "function"
    },
    {
      "inputs": [],
      "name": "manager",
      "outputs": [
        {
          "internalType": "address",
          "name": "",
          "type": "address"
        }
      ],
      "stateMutability": "view",
      "type": "function"
    },
    {
      "inputs": [
        {
          "internalType": "bytes[]",
          "name": "data",
          "type": "bytes[]"
        }
      ],
      "name": "multicall",
      "outputs": [
        {
          "internalType": "bytes[]",
          "name": "returndata",
          "type": "bytes[]"
        }
      ],
      "stateMutability": "nonpayable",
      "type": "function"
    },
    {
      "inputs": [
        {
          "internalType": "address",
          "name": "",
          "type": "address"
        }
      ],
      "name": "oevProxyToBalance",
      "outputs": [
        {
          "internalType": "uint256",
          "name": "",
          "type": "uint256"
        }
      ],
      "stateMutability": "view",
      "type": "function"
    },
    {
      "inputs": [
        {
          "internalType": "address",
          "name": "",
          "type": "address"
        },
        {
          "internalType": "bytes32",
          "name": "",
          "type": "bytes32"
        }
      ],
      "name": "oevProxyToIdToDataFeed",
      "outputs": [
        {
          "internalType": "int224",
          "name": "value",
          "type": "int224"
        },
        {
          "internalType": "uint32",
          "name": "timestamp",
          "type": "uint32"
        }
      ],
      "stateMutability": "view",
      "type": "function"
    },
    {
      "inputs": [
        {
          "internalType": "bytes32",
          "name": "dapiNameHash",
          "type": "bytes32"
        }
      ],
      "name": "readDataFeedWithDapiNameHash",
      "outputs": [
        {
          "internalType": "int224",
          "name": "value",
          "type": "int224"
        },
        {
          "internalType": "uint32",
          "name": "timestamp",
          "type": "uint32"
        }
      ],
      "stateMutability": "view",
      "type": "function"
    },
    {
      "inputs": [
        {
          "internalType": "bytes32",
          "name": "dapiNameHash",
          "type": "bytes32"
        }
      ],
      "name": "readDataFeedWithDapiNameHashAsOevProxy",
      "outputs": [
        {
          "internalType": "int224",
          "name": "value",
          "type": "int224"
        },
        {
          "internalType": "uint32",
          "name": "timestamp",
          "type": "uint32"
        }
      ],
      "stateMutability": "view",
      "type": "function"
    },
    {
      "inputs": [
        {
          "internalType": "bytes32",
          "name": "dataFeedId",
          "type": "bytes32"
        }
      ],
      "name": "readDataFeedWithId",
      "outputs": [
        {
          "internalType": "int224",
          "name": "value",
          "type": "int224"
        },
        {
          "internalType": "uint32",
          "name": "timestamp",
          "type": "uint32"
        }
      ],
      "stateMutability": "view",
      "type": "function"
    },
    {
      "inputs": [
        {
          "internalType": "bytes32",
          "name": "dataFeedId",
          "type": "bytes32"
        }
      ],
      "name": "readDataFeedWithIdAsOevProxy",
      "outputs": [
        {
          "internalType": "int224",
          "name": "value",
          "type": "int224"
        },
        {
          "internalType": "uint32",
          "name": "timestamp",
          "type": "uint32"
        }
      ],
      "stateMutability": "view",
      "type": "function"
    },
    {
      "inputs": [
        {
          "internalType": "address",
          "name": "airnode",
          "type": "address"
        },
        {
          "internalType": "bytes32",
          "name": "templateId",
          "type": "bytes32"
        },
        {
          "internalType": "bytes",
          "name": "conditions",
          "type": "bytes"
        },
        {
          "internalType": "address",
          "name": "relayer",
          "type": "address"
        },
        {
          "internalType": "address",
          "name": "sponsor",
          "type": "address"
        }
      ],
      "name": "registerBeaconUpdateSubscription",
      "outputs": [
        {
          "internalType": "bytes32",
          "name": "subscriptionId",
          "type": "bytes32"
        }
      ],
      "stateMutability": "nonpayable",
      "type": "function"
    },
    {
      "inputs": [
        {
          "internalType": "address",
          "name": "airnode",
          "type": "address"
        },
        {
          "internalType": "bytes32",
          "name": "endpointId",
          "type": "bytes32"
        },
        {
          "internalType": "bytes",
          "name": "parameters",
          "type": "bytes"
        },
        {
          "internalType": "address",
          "name": "relayer",
          "type": "address"
        },
        {
          "internalType": "address",
          "name": "sponsor",
          "type": "address"
        }
      ],
      "name": "requestRelayedRrpBeaconUpdateWithEndpoint",
      "outputs": [
        {
          "internalType": "bytes32",
          "name": "requestId",
          "type": "bytes32"
        }
      ],
      "stateMutability": "nonpayable",
      "type": "function"
    },
    {
      "inputs": [
        {
          "internalType": "address",
          "name": "airnode",
          "type": "address"
        },
        {
          "internalType": "bytes32",
          "name": "templateId",
          "type": "bytes32"
        },
        {
          "internalType": "address",
          "name": "relayer",
          "type": "address"
        },
        {
          "internalType": "address",
          "name": "sponsor",
          "type": "address"
        }
      ],
      "name": "requestRelayedRrpBeaconUpdateWithTemplate",
      "outputs": [
        {
          "internalType": "bytes32",
          "name": "requestId",
          "type": "bytes32"
        }
      ],
      "stateMutability": "nonpayable",
      "type": "function"
    },
    {
      "inputs": [
        {
          "internalType": "address",
          "name": "airnode",
          "type": "address"
        },
        {
          "internalType": "bytes32",
          "name": "endpointId",
          "type": "bytes32"
        },
        {
          "internalType": "bytes",
          "name": "parameters",
          "type": "bytes"
        },
        {
          "internalType": "address",
          "name": "sponsor",
          "type": "address"
        }
      ],
      "name": "requestRrpBeaconUpdateWithEndpoint",
      "outputs": [
        {
          "internalType": "bytes32",
          "name": "requestId",
          "type": "bytes32"
        }
      ],
      "stateMutability": "nonpayable",
      "type": "function"
    },
    {
      "inputs": [
        {
          "internalType": "address",
          "name": "airnode",
          "type": "address"
        },
        {
          "internalType": "bytes32",
          "name": "templateId",
          "type": "bytes32"
        },
        {
          "internalType": "address",
          "name": "sponsor",
          "type": "address"
        }
      ],
      "name": "requestRrpBeaconUpdateWithTemplate",
      "outputs": [
        {
          "internalType": "bytes32",
          "name": "requestId",
          "type": "bytes32"
        }
      ],
      "stateMutability": "nonpayable",
      "type": "function"
    },
    {
      "inputs": [
        {
          "internalType": "bytes32",
          "name": "dapiName",
          "type": "bytes32"
        },
        {
          "internalType": "bytes32",
          "name": "dataFeedId",
          "type": "bytes32"
        }
      ],
      "name": "setDapiName",
      "outputs": [],
      "stateMutability": "nonpayable",
      "type": "function"
    },
    {
      "inputs": [
        {
          "internalType": "address",
          "name": "rrpBeaconUpdateRequester",
          "type": "address"
        },
        {
          "internalType": "bool",
          "name": "status",
          "type": "bool"
        }
      ],
      "name": "setRrpBeaconUpdatePermissionStatus",
      "outputs": [],
      "stateMutability": "nonpayable",
      "type": "function"
    },
    {
      "inputs": [
        {
          "internalType": "address",
          "name": "",
          "type": "address"
        },
        {
          "internalType": "address",
          "name": "",
          "type": "address"
        }
      ],
      "name": "sponsorToRrpBeaconUpdateRequesterToPermissionStatus",
      "outputs": [
        {
          "internalType": "bool",
          "name": "",
          "type": "bool"
        }
      ],
      "stateMutability": "view",
      "type": "function"
    },
    {
      "inputs": [
        {
          "internalType": "bytes32",
          "name": "",
          "type": "bytes32"
        }
      ],
      "name": "subscriptionIdToBeaconId",
      "outputs": [
        {
          "internalType": "bytes32",
          "name": "",
          "type": "bytes32"
        }
      ],
      "stateMutability": "view",
      "type": "function"
    },
    {
      "inputs": [
        {
          "internalType": "bytes[]",
          "name": "data",
          "type": "bytes[]"
        }
      ],
      "name": "tryMulticall",
      "outputs": [
        {
          "internalType": "bool[]",
          "name": "successes",
          "type": "bool[]"
        },
        {
          "internalType": "bytes[]",
          "name": "returndata",
          "type": "bytes[]"
        }
      ],
      "stateMutability": "nonpayable",
      "type": "function"
    },
    {
      "inputs": [
        {
          "internalType": "bytes32[]",
          "name": "beaconIds",
          "type": "bytes32[]"
        }
      ],
      "name": "updateBeaconSetWithBeacons",
      "outputs": [
        {
          "internalType": "bytes32",
          "name": "beaconSetId",
          "type": "bytes32"
        }
      ],
      "stateMutability": "nonpayable",
      "type": "function"
    },
    {
      "inputs": [
        {
          "internalType": "bytes[]",
          "name": "signedData",
          "type": "bytes[]"
        }
      ],
      "name": "updateDataFeedWithDomainSignedData",
      "outputs": [],
      "stateMutability": "nonpayable",
      "type": "function"
    },
    {
      "inputs": [
        {
          "internalType": "bytes[]",
          "name": "signedData",
          "type": "bytes[]"
        }
      ],
      "name": "updateDataFeedWithSignedData",
      "outputs": [],
      "stateMutability": "nonpayable",
      "type": "function"
    },
    {
      "inputs": [
        {
          "internalType": "address",
          "name": "oevProxy",
          "type": "address"
        },
        {
          "internalType": "bytes32",
          "name": "updateId",
          "type": "bytes32"
        },
        {
          "internalType": "uint256",
          "name": "signatureCount",
          "type": "uint256"
        },
        {
          "internalType": "bytes[]",
          "name": "signedData",
          "type": "bytes[]"
        }
      ],
      "name": "updateOevProxyDataFeedWithSignedData",
      "outputs": [],
      "stateMutability": "payable",
      "type": "function"
    },
    {
      "inputs": [
        {
          "internalType": "address",
          "name": "oevProxy",
          "type": "address"
        }
      ],
      "name": "withdraw",
      "outputs": [],
      "stateMutability": "nonpayable",
      "type": "function"
    }
  ],
  "transactionHash": "0xc9da31e0e753b40bdde2cc22bcf138a167b80f789eb8309ab440ffbe07e4a52b",
  "args": [
    "0x4dED41Dbf41037538309Db9e45899Cf6eE129519",
    "DapiServer admin",
    "0x8984152339F9D35742BB878D0eaD9EF9fd6469d3",
    "0x938d7f40CFB519ecD421762d6431FC7B767AD858"
  ],
  "numDeployments": 1,
  "solcInputHash": "6157b97e11daa900527785f71f13deac",
  "bytecode": "0x6101406040523480156200001257600080fd5b506040516200604338038062006043833981016040819052620000359162000395565b8084848482826001600160a01b0382166200008a5760405162461bcd60e51b815260206004820152601060248201526f4143522061646472657373207a65726f60801b60448201526064015b60405180910390fd5b6000815111620000dd5760405162461bcd60e51b815260206004820152601c60248201527f41646d696e20726f6c65206465736372697074696f6e20656d70747900000000604482015260640162000081565b6001600160a01b0382166080526000620000f8828262000517565b50806040516020016200010c9190620005e3565b60408051601f19818403018152919052805160209091012060a05250506001600160a01b038116620001815760405162461bcd60e51b815260206004820152601460248201527f4d616e616765722061646472657373207a65726f000000000000000000000000604482015260640162000081565b6001600160a01b03811660c052620001998162000253565b60e0525050506001600160a01b038116620001f75760405162461bcd60e51b815260206004820152601c60248201527f4169726e6f646550726f746f636f6c2061646472657373207a65726f00000000604482015260640162000081565b6001600160a01b03166101005260c0516200024490620002179062000253565b60408051808201909152601081526f3220a824903730b6b29039b2ba3a32b960811b6020820152620002cd565b61012052506200060192505050565b6000620002c762000298836040516001600160601b0319606083901b166020820152600090603401604051602081830303815290604052805190602001209050919050565b60a051604080516020808201949094528082019290925280518083038201815260609092019052805191012090565b92915050565b6000620003098383604051602001620002e79190620005e3565b604051602081830303815290604052805190602001206200031060201b60201c565b9392505050565b604080516020808201949094528082019290925280518083038201815260609092019052805191012090565b80516001600160a01b03811681146200035457600080fd5b919050565b634e487b7160e01b600052604160045260246000fd5b60005b838110156200038c57818101518382015260200162000372565b50506000910152565b60008060008060808587031215620003ac57600080fd5b620003b7856200033c565b60208601519094506001600160401b0380821115620003d557600080fd5b818701915087601f830112620003ea57600080fd5b815181811115620003ff57620003ff62000359565b604051601f8201601f19908116603f011681019083821181831017156200042a576200042a62000359565b816040528281528a60208487010111156200044457600080fd5b620004578360208301602088016200036f565b80975050505050506200046d604086016200033c565b91506200047d606086016200033c565b905092959194509250565b600181811c908216806200049d57607f821691505b602082108103620004be57634e487b7160e01b600052602260045260246000fd5b50919050565b601f8211156200051257600081815260208120601f850160051c81016020861015620004ed5750805b601f850160051c820191505b818110156200050e57828155600101620004f9565b5050505b505050565b81516001600160401b0381111562000533576200053362000359565b6200054b8162000544845462000488565b84620004c4565b602080601f8311600181146200058357600084156200056a5750858301515b600019600386901b1c1916600185901b1785556200050e565b600085815260208120601f198616915b82811015620005b45788860151825594840194600190910190840162000593565b5085821015620005d35787850151600019600388901b60f8161c191681555b5050505050600190811b01905550565b60008251620005f78184602087016200036f565b9190910192915050565b60805160a05160c05160e05161010051610120516159bd620006866000396000818161060501526127f301526000818161083e01528181610be30152818161193d01528181611e7a015281816124d801526132ab015260006102fc01526000818161050401526127a401526000505060008181610398015261281f01526159bd6000f3fe6080604052600436106102e55760003560e01c8063796b89b911610184578063ac9650d8116100d6578063d7c0b8791161008a578063f8b2cb4f11610064578063f8b2cb4f1461092b578063fc3c1f8b14610953578063fce90be81461097357600080fd5b8063d7c0b879146108a0578063dc96acc8146108c0578063f83ea108146108e057600080fd5b8063b76f3c15116100bb578063b76f3c151461082c578063cfaf497114610860578063d10a13981461088057600080fd5b8063ac9650d8146107df578063b62408a31461080c57600080fd5b806391eed085116101385780639e14caa8116101125780639e14caa814610772578063a026658f14610792578063a5fc076f146107bf57600080fd5b806391eed085146106e7578063934cd0d614610707578063977cae011461072757600080fd5b80638cdd8844116101695780638cdd88441461067a5780638e6ddc271461069a5780638fca9ab9146106c757600080fd5b8063796b89b914610647578063810b3e111461065a57600080fd5b8063437b91161161023d57806351cff8d9116101f15780636ed93dd0116101cb5780636ed93dd0146105db5780637512449b146105f357806378ef72d71461062757600080fd5b806351cff8d91461055b5780635bc8a5c81461057b57806367a7cfb71461059b57600080fd5b8063481c6a7511610222578063481c6a75146104f25780634c8f1d8d146105265780634dcc19fe1461054857600080fd5b8063437b911614610497578063472c22f1146104c557600080fd5b8063206b48f41161029f5780633408e470116102795780633408e470146104515780633ade28281461046457806342cbb15c1461048457600080fd5b8063206b48f4146103d25780632ce010e3146103f257806332be8f0b1461041257600080fd5b806312acef12116102d057806312acef121461035157806318e99d90146103715780631ce9ae071461038657600080fd5b80629f2f3c146102ea578062aae33f14610331575b600080fd5b3480156102f657600080fd5b5061031e7f000000000000000000000000000000000000000000000000000000000000000081565b6040519081526020015b60405180910390f35b34801561033d57600080fd5b5061031e61034c366004614c47565b6109bc565b34801561035d57600080fd5b5061031e61036c366004614d02565b610ad4565b61038461037f366004614d89565b610cca565b005b34801561039257600080fd5b506103ba7f000000000000000000000000000000000000000000000000000000000000000081565b6040516001600160a01b039091168152602001610328565b3480156103de57600080fd5b506103846103ed366004614e35565b611376565b3480156103fe57600080fd5b5061038461040d366004614e35565b611692565b34801561041e57600080fd5b5061043261042d366004614ef2565b611711565b60408051601b9390930b835263ffffffff909116602083015201610328565b34801561045d57600080fd5b504661031e565b34801561047057600080fd5b5061031e61047f366004614f0b565b611844565b34801561049057600080fd5b504361031e565b3480156104a357600080fd5b506104b76104b2366004614f90565b611a54565b604051610328929190615077565b3480156104d157600080fd5b5061031e6104e0366004614ef2565b60056020526000908152604090205481565b3480156104fe57600080fd5b506103ba7f000000000000000000000000000000000000000000000000000000000000000081565b34801561053257600080fd5b5061053b611bba565b60405161032891906150d0565b34801561055457600080fd5b504861031e565b34801561056757600080fd5b506103846105763660046150e3565b611c48565b34801561058757600080fd5b50610384610596366004615100565b611e6f565b3480156105a757600080fd5b506104326105b6366004614ef2565b600360205260009081526040902054601b81900b90600160e01b900463ffffffff1682565b3480156105e757600080fd5b5061031e6305f5e10081565b3480156105ff57600080fd5b5061031e7f000000000000000000000000000000000000000000000000000000000000000081565b34801561063357600080fd5b50610384610642366004614f90565b611faa565b34801561065357600080fd5b504261031e565b34801561066657600080fd5b5061031e610675366004615153565b6123c1565b34801561068657600080fd5b50610432610695366004614c47565b6125c8565b3480156106a657600080fd5b5061031e6106b53660046150e3565b60066020526000908152604090205481565b3480156106d357600080fd5b5061031e6106e2366004614ef2565b612707565b3480156106f357600080fd5b506103846107023660046151a6565b61274c565b34801561071357600080fd5b50610384610722366004614f90565b612959565b34801561073357600080fd5b506107626107423660046151c8565b600160209081526000928352604080842090915290825290205460ff1681565b6040519015158152602001610328565b34801561077e57600080fd5b5061038461078d36600461520f565b612d54565b34801561079e57600080fd5b5061031e6107ad366004614ef2565b60026020526000908152604090205481565b3480156107cb57600080fd5b506104326107da366004614ef2565b612e0f565b3480156107eb57600080fd5b506107ff6107fa366004614f90565b612e87565b604051610328919061523d565b34801561081857600080fd5b50610432610827366004614ef2565b613008565b34801561083857600080fd5b506103ba7f000000000000000000000000000000000000000000000000000000000000000081565b34801561086c57600080fd5b5061043261087b366004614ef2565b6130e0565b34801561088c57600080fd5b5061031e61089b366004615250565b6131b2565b3480156108ac57600080fd5b506107626108bb3660046152c4565b6133b7565b3480156108cc57600080fd5b506107626108db3660046152c4565b613486565b3480156108ec57600080fd5b506104326108fb36600461532d565b6004602090815260009283526040808420909152908252902054601b81900b90600160e01b900463ffffffff1682565b34801561093757600080fd5b5061031e6109463660046150e3565b6001600160a01b03163190565b34801561095f57600080fd5b5061031e61096e366004614f0b565b613538565b34801561097f57600080fd5b5061053b6040518060400160405280601081526020017f64415049206e616d65207365747465720000000000000000000000000000000081525081565b60008060006109ca846125c8565b915091506109d784613780565b60008181526003602052604090205490935063ffffffff600160e01b909104811690821611610a495760405162461bcd60e51b81526020600482015260196024820152780446f6573206e6f74207570646174652074696d657374616d7603c1b60448201526064015b60405180910390fd5b604080518082018252601b84900b80825263ffffffff848116602080850182815260008a81526003835287902095519051909316600160e01b026001600160e01b0390931692909217909355835191825281019190915284917fb7712be6248d021e8c56ac9613c09491354a4d0f4ad0b7db1a664b35be4b2349910160405180910390a25050919050565b6000816001600160a01b038116331480610b1157506001600160a01b038116600090815260016020908152604080832033845290915290205460ff165b610b545760405162461bcd60e51b815260206004820152601460248201527314d95b99195c881b9bdd081c195c9b5a5d1d195960621b6044820152606401610a40565b60408051606087901b6bffffffffffffffffffffffff19166020808301919091526034808301889052835180840390910181526054909201909252805191012060009060405163eebecf6960e01b81526001600160a01b0388811660048301526024820188905260a06044830152600060a48301528681166064830152630b7914b960e31b60848301529192507f00000000000000000000000000000000000000000000000000000000000000009091169063eebecf699060c4016020604051808303816000875af1158015610c2e573d6000803e3d6000fd5b505050506040513d601f19601f82011682018060405250810190610c529190615359565b60008181526007602090815260409182902084905581516001600160a01b038a811682529181018990529087168183015260608101839052336080820152905191945082917ffdb8fbecf8c307d3eb37e7eef7a6fb3f2c05c992afa63bef475c82a4c75ca14d9181900360a00190a250509392505050565b60408051466020808301919091526bffffffffffffffffffffffff1930606090811b82168486015289811b8216605485015233901b16606883015234607c830152609c820187905260bc820186905260dc8083018590528351808403909101815260fc9092019092528051910120819060018211156111625760008267ffffffffffffffff811115610d5e57610d5e614c00565b604051908082528060200260200182016040528015610d87578160200160208202803683370190505b50905060008367ffffffffffffffff811115610da557610da5614c00565b604051908082528060200260200182016040528015610dce578160200160208202803683370190505b5090506000805b85811015610f1d576000806000610e0f888c8c87818110610df857610df8615372565b9050602002810190610e0a9190615388565b6137b0565b92509250925082878581518110610e2857610e28615372565b602090810291909101015263ffffffff811615610ec85781601b0b868581518110610e5557610e55615372565b6020026020010181815250508063ffffffff16850194508b600003610ebc5760405162461bcd60e51b815260206004820152601b60248201527f4d6f7265207369676e617475726573207468616e2073746174656400000000006044820152606401610a40565b600019909b019a610f12565b600083815260036020526040902080548751601b9190910b90889087908110610ef357610ef3615372565b602090810291909101015254600160e01b900463ffffffff1694909401935b505050600101610dd5565b508715610f6c5760405162461bcd60e51b815260206004820152601b60248201527f4c657373207369676e617475726573207468616e2073746174656400000000006044820152606401610a40565b6000610f7784613780565b90506000610f8587846153fb565b6001600160a01b038d16600090815260046020908152604080832086845290915290205490915063ffffffff600160e01b9091048116908216116110075760405162461bcd60e51b81526020600482015260196024820152780446f6573206e6f74207570646174652074696d657374616d7603c1b6044820152606401610a40565b600061101285613949565b9050604051806040016040528082601b0b81526020018363ffffffff16815250600460008f6001600160a01b03166001600160a01b03168152602001908152602001600020600085815260200190815260200160002060008201518160000160006101000a8154816001600160e01b030219169083601b0b6001600160e01b03160217905550602082015181600001601c6101000a81548163ffffffff021916908363ffffffff16021790555090505034600660008f6001600160a01b03166001600160a01b0316815260200190815260200160002060008282546110f7919061540f565b925050819055508b8d6001600160a01b0316847fdd29860e0772a39dea2ff0520d79f8efdffe48c903d6bbbc0c2cc65dc6568a7f848660405161114f929190601b9290920b825263ffffffff16602082015260400190565b60405180910390a450505050505061136d565b816001036113255760008060006111868488886000818110610df857610df8615372565b9250925092508063ffffffff166000036111d15760405162461bcd60e51b815260206004820152600c60248201526b4d697373696e67206461746160a01b6044820152606401610a40565b6001600160a01b038a16600090815260046020908152604080832086845290915290205463ffffffff600160e01b9091048116908216116112505760405162461bcd60e51b81526020600482015260196024820152780446f6573206e6f74207570646174652074696d657374616d7603c1b6044820152606401610a40565b604080518082018252601b84900b815263ffffffff80841660208084019182526001600160a01b038f166000818152600483528681208a8252835286812095519351909416600160e01b026001600160e01b03909316929092179093558152600690915290812080543492906112c790849061540f565b909155505060408051601b84900b815263ffffffff831660208201528a916001600160a01b038d169186917fc856aaa4e639403f366ad68f07eb69bad4c044a35b0369c4ef1ea3a427a6a0ee910160405180910390a450505061136d565b60405162461bcd60e51b815260206004820152601460248201527f537065636966696564206e6f20426561636f6e730000000000000000000000006044820152606401610a40565b50505050505050565b8461138081613aa2565b6113c25760405162461bcd60e51b8152602060048201526013602482015272151a5b595cdd185b5c081b9bdd081d985b1a59606a1b6044820152606401610a40565b6040516bffffffffffffffffffffffff1960608b811b821660208401528a811b8216603484015289901b166048820152605c0160408051601f19818403018152918152815160209283012060008d81526008909352912054146114675760405162461bcd60e51b815260206004820152601b60248201527f537562736372697074696f6e206e6f74207265676973746572656400000000006044820152606401610a40565b876001600160a01b0316896001600160a01b03160361157057886001600160a01b031661152084848080601f0160208091040260200160405190810160405280939291908181526020018383808284376000920191909152505060405161151a92506114ff91508f908c903390602001928352602083019190915260601b6bffffffffffffffffffffffff1916604082015260540190565b60405160208183030381529060405280519060200120613ac0565b90613afb565b6001600160a01b03161461156b5760405162461bcd60e51b81526020600482015260126024820152710a6d2cedcc2e8eae4ca40dad2e6dac2e8c6d60731b6044820152606401610a40565b61161b565b886001600160a01b03166115d084848080601f0160208091040260200160405190810160405280939291908181526020018383808284376000920191909152505060405161151a92506114ff91508f908c9033908d908d90602001615422565b6001600160a01b03161461161b5760405162461bcd60e51b81526020600482015260126024820152710a6d2cedcc2e8eae4ca40dad2e6dac2e8c6d60731b6044820152606401610a40565b60008a8152600260205260408120549061163782898989613b1f565b604080518e8152601b83900b602082015263ffffffff8b1681830152905191925083917f2b85d71813342fd0091d4573a5f78e244c2133755e470943c33a6dbf3cf9c15d9181900360600190a2505050505050505050505050565b6116a161034c84860186614c47565b84846040516116b192919061545c565b6040518091039020146117065760405162461bcd60e51b815260206004820152601760248201527f44617461206c656e677468206e6f7420636f72726563740000000000000000006044820152606401610a40565b505050505050505050565b60008181526005602052604081205481908061176f5760405162461bcd60e51b815260206004820152601160248201527f64415049206e616d65206e6f74207365740000000000000000000000000000006044820152606401610a40565b336000908152600460209081526040808320848452825280832060039092529091208054825463ffffffff600160e01b928390048116929091041611156117cd578154601b81900b9550600160e01b900463ffffffff1693506117e6565b8054601b81900b9550600160e01b900463ffffffff1693505b60008463ffffffff161161183c5760405162461bcd60e51b815260206004820152601960248201527f446174612066656564206e6f7420696e697469616c697a6564000000000000006044820152606401610a40565b505050915091565b6000816001600160a01b03811633148061188157506001600160a01b038116600090815260016020908152604080832033845290915290205460ff165b6118c45760405162461bcd60e51b815260206004820152601460248201527314d95b99195c881b9bdd081c195c9b5a5d1d195960621b6044820152606401610a40565b60008787876040516020016118db9392919061546c565b60408051808303601f1901815282825280516020918201206bffffffffffffffffffffffff1960608e901b1682850152603480850182905283518086039091018152605485019384905280519201919091206353f0642f60e11b9092529250907f00000000000000000000000000000000000000000000000000000000000000006001600160a01b03169063a7e0c85e9061198d908d908d908d908d908d908d90630b7914b960e31b906058016154af565b6020604051808303816000875af11580156119ac573d6000803e3d6000fd5b505050506040513d601f19601f820116820180604052508101906119d09190615359565b60008181526007602090815260409182902084905581516001600160a01b038e81168252918101869052898216818401529088166060820152608081018390523360a0820152905191955082917f0f217d153669e569a267b32f8ddbbb65c09cb35e7a51ba97bea2cdea05992d089181900360c00190a25050509695505050505050565b606080828067ffffffffffffffff811115611a7157611a71614c00565b604051908082528060200260200182016040528015611a9a578160200160208202803683370190505b5092508067ffffffffffffffff811115611ab657611ab6614c00565b604051908082528060200260200182016040528015611ae957816020015b6060815260200190600190039081611ad45790505b50915060005b81811015611bb15730868683818110611b0a57611b0a615372565b9050602002810190611b1c9190615388565b604051611b2a92919061545c565b600060405180830381855af49150503d8060008114611b65576040519150601f19603f3d011682016040523d82523d6000602084013e611b6a565b606091505b50858381518110611b7d57611b7d615372565b60200260200101858481518110611b9657611b96615372565b60209081029190910101919091529015159052600101611aef565b50509250929050565b60008054611bc79061551e565b80601f0160208091040260200160405190810160405280929190818152602001828054611bf39061551e565b8015611c405780601f10611c1557610100808354040283529160200191611c40565b820191906000526020600020905b815481529060010190602001808311611c2357829003601f168201915b505050505081565b6000816001600160a01b0316630e15999d6040518163ffffffff1660e01b8152600401602060405180830381865afa158015611c88573d6000803e3d6000fd5b505050506040513d601f19601f82011682018060405250810190611cac9190615552565b90506001600160a01b038116611d045760405162461bcd60e51b815260206004820152601860248201527f42656e65666963696172792061646472657373207a65726f00000000000000006044820152606401610a40565b6001600160a01b03821660009081526006602052604081205490819003611d6d5760405162461bcd60e51b815260206004820152601660248201527f4f45562070726f78792062616c616e6365207a65726f000000000000000000006044820152606401610a40565b6001600160a01b0383811660008181526006602090815260408083209290925581519386168452830184905290917f0472be967f9a37138dfea1875af44784cafb79f92044ab33d7d6958eddd9ca6c910160405180910390a26000826001600160a01b03168260405160006040518083038185875af1925050503d8060008114611e13576040519150601f19603f3d011682016040523d82523d6000602084013e611e18565b606091505b5050905080611e695760405162461bcd60e51b815260206004820152601360248201527f5769746864726177616c207265766572746564000000000000000000000000006044820152606401610a40565b50505050565b336001600160a01b037f00000000000000000000000000000000000000000000000000000000000000001614611ee75760405162461bcd60e51b815260206004820152601b60248201527f53656e646572206e6f74204169726e6f64652070726f746f636f6c00000000006044820152606401610a40565b82611ef181613aa2565b611f335760405162461bcd60e51b8152602060048201526013602482015272151a5b595cdd185b5c081b9bdd081d985b1a59606a1b6044820152606401610a40565b600085815260076020526040812080549082905590611f5482878787613b1f565b60408051898152601b83900b602082015263ffffffff891681830152905191925083917fbf747faf738dbfb7e8b225265a7d7afd921e2ddd91b2bc5b87984d12d41c8b359181900360600190a250505050505050565b80600181111561225b5760008167ffffffffffffffff811115611fcf57611fcf614c00565b604051908082528060200260200182016040528015611ff8578160200160208202803683370190505b50905060008267ffffffffffffffff81111561201657612016614c00565b60405190808252806020026020018201604052801561203f578160200160208202803683370190505b5090506000805b8481101561213657600080600061207f8a8a8681811061206857612068615372565b905060200281019061207a9190615388565b613c1b565b9250925092508287858151811061209857612098615372565b602090810291909101015263ffffffff8116156120e15781601b0b8685815181106120c5576120c5615372565b6020026020010181815250508063ffffffff168501945061212b565b600083815260036020526040902080548751601b9190910b9088908790811061210c5761210c615372565b602090810291909101015254600160e01b900463ffffffff1694909401935b505050600101612046565b50600061214284613780565b9050600061215086846153fb565b60008381526003602052604090205490915063ffffffff600160e01b9091048116908216116121bd5760405162461bcd60e51b81526020600482015260196024820152780446f6573206e6f74207570646174652074696d657374616d7603c1b6044820152606401610a40565b60006121c885613949565b604080518082018252601b83900b80825263ffffffff868116602080850182815260008b81526003835287902095519051909316600160e01b026001600160e01b0390931692909217909355835191825281019190915291925084917fb34747dc40d9c985b4857c2955fec7a8f34d88bc06da72f4331979575880040791015b60405180910390a2505050505050505050565b8060010361132557600080600061227e8686600081811061206857612068615372565b9250925092508063ffffffff166000036122c95760405162461bcd60e51b815260206004820152600c60248201526b4d697373696e67206461746160a01b6044820152606401610a40565b60008381526003602052604090205463ffffffff600160e01b9091048116908216116123335760405162461bcd60e51b81526020600482015260196024820152780446f6573206e6f74207570646174652074696d657374616d7603c1b6044820152606401610a40565b604080518082018252601b84900b80825263ffffffff848116602080850182815260008a81526003835287902095519051909316600160e01b026001600160e01b0390931692909217909355835191825281019190915284917f1ffdb573afe7273932e253bc4b8a17b9da4d37d7219ba05e464358975b36efb791015b60405180910390a25050505b505050565b6000816001600160a01b0381163314806123fe57506001600160a01b038116600090815260016020908152604080832033845290915290205460ff165b6124415760405162461bcd60e51b815260206004820152601460248201527314d95b99195c881b9bdd081c195c9b5a5d1d195960621b6044820152606401610a40565b60408051606088901b6bffffffffffffffffffffffff1916602080830191909152603480830189905283518084039091018152605490920190925280519101206000906040516353f0642f60e11b81526001600160a01b0389811660048301526024820189905260c06044830152600060c483015287811660648301528681166084830152630b7914b960e31b60a48301529192507f00000000000000000000000000000000000000000000000000000000000000009091169063a7e0c85e9060e4016020604051808303816000875af1158015612523573d6000803e3d6000fd5b505050506040513d601f19601f820116820180604052508101906125479190615359565b60008181526007602090815260409182902084905581516001600160a01b038b811682529181018a9052888216818401529087166060820152608081018390523360a0820152905191945082917f0f217d153669e569a267b32f8ddbbb65c09cb35e7a51ba97bea2cdea05992d089181900360c00190a25050949350505050565b805160009081906001811161261f5760405162461bcd60e51b815260206004820152601f60248201527f537065636966696564206c657373207468616e2074776f20426561636f6e73006044820152606401610a40565b60008167ffffffffffffffff81111561263a5761263a614c00565b604051908082528060200260200182016040528015612663578160200160208202803683370190505b5090506000805b838110156126e75760006003600089848151811061268a5761268a615372565b602090810291909101810151825281019190915260400160002080548551919250601b0b908590849081106126c1576126c1615372565b602090810291909101015254600160e01b900463ffffffff16919091019060010161266a565b506126f182613949565b94506126fd83826153fb565b9350505050915091565b6000600560008360405160200161272091815260200190565b604051602081830303815290604052805190602001208152602001908152602001600020549050919050565b816127995760405162461bcd60e51b815260206004820152600e60248201527f64415049206e616d65207a65726f0000000000000000000000000000000000006044820152606401610a40565b336001600160a01b037f000000000000000000000000000000000000000000000000000000000000000016148061289257506040517f91d148540000000000000000000000000000000000000000000000000000000081527f000000000000000000000000000000000000000000000000000000000000000060048201523360248201527f00000000000000000000000000000000000000000000000000000000000000006001600160a01b0316906391d1485490604401602060405180830381865afa15801561286e573d6000803e3d6000fd5b505050506040513d601f19601f82011682018060405250810190612892919061556f565b6128de5760405162461bcd60e51b815260206004820152601b60248201527f53656e6465722063616e6e6f74207365742064415049206e616d6500000000006044820152606401610a40565b8060056000846040516020016128f691815260200190565b60408051601f1981840301815291815281516020928301208352828201939093529082016000209290925551338152839183917ff3a9aac9b6ac0f842cb5d9b3491cd5fc1b6a6778d97fd9529f587339865294f591015b60405180910390a35050565b806001811115612bfb5760008167ffffffffffffffff81111561297e5761297e614c00565b6040519080825280602002602001820160405280156129a7578160200160208202803683370190505b50905060008267ffffffffffffffff8111156129c5576129c5614c00565b6040519080825280602002602001820160405280156129ee578160200160208202803683370190505b5090506000805b84811015612ae5576000806000612a2e8a8a86818110612a1757612a17615372565b9050602002810190612a299190615388565b613db0565b92509250925082878581518110612a4757612a47615372565b602090810291909101015263ffffffff811615612a905781601b0b868581518110612a7457612a74615372565b6020026020010181815250508063ffffffff1685019450612ada565b600083815260036020526040902080548751601b9190910b90889087908110612abb57612abb615372565b602090810291909101015254600160e01b900463ffffffff1694909401935b5050506001016129f5565b506000612af184613780565b90506000612aff86846153fb565b60008381526003602052604090205490915063ffffffff600160e01b909104811690821611612b6c5760405162461bcd60e51b81526020600482015260196024820152780446f6573206e6f74207570646174652074696d657374616d7603c1b6044820152606401610a40565b6000612b7785613949565b604080518082018252601b83900b80825263ffffffff868116602080850182815260008b81526003835287902095519051909316600160e01b026001600160e01b0390931692909217909355835191825281019190915291925084917fe8a26d41600714ff17db64ddb6eb7590f25d6e1e5fa1adf35aa3a5f5b9d694ed9101612248565b80600103611325576000806000612c1e86866000818110612a1757612a17615372565b9250925092508063ffffffff16600003612c695760405162461bcd60e51b815260206004820152600c60248201526b4d697373696e67206461746160a01b6044820152606401610a40565b60008381526003602052604090205463ffffffff600160e01b909104811690821611612cd35760405162461bcd60e51b81526020600482015260196024820152780446f6573206e6f74207570646174652074696d657374616d7603c1b6044820152606401610a40565b604080518082018252601b84900b80825263ffffffff848116602080850182815260008a81526003835287902095519051909316600160e01b026001600160e01b0390931692909217909355835191825281019190915284917f218ec204122699f75f4032ddef3df77e5072a4be8aa4d1867bdc897e1955f37991016123b0565b6001600160a01b038216612daa5760405162461bcd60e51b815260206004820152601560248201527f55706461746520726571756573746572207a65726f00000000000000000000006044820152606401610a40565b3360008181526001602090815260408083206001600160a01b03871680855290835292819020805460ff191686151590811790915590519081529192917fba239f737a4075f5efb0d649e16cd7d2b1978690876b079dab642f077050b279910161294d565b60008181526003602052604090208054601b81900b91600160e01b90910463ffffffff169081612e815760405162461bcd60e51b815260206004820152601960248201527f446174612066656564206e6f7420696e697469616c697a6564000000000000006044820152606401610a40565b50915091565b6060818067ffffffffffffffff811115612ea357612ea3614c00565b604051908082528060200260200182016040528015612ed657816020015b6060815260200190600190039081612ec15790505b50915060005b8181101561300057600030868684818110612ef957612ef9615372565b9050602002810190612f0b9190615388565b604051612f1992919061545c565b600060405180830381855af49150503d8060008114612f54576040519150601f19603f3d011682016040523d82523d6000602084013e612f59565b606091505b50858481518110612f6c57612f6c615372565b6020908102919091010152905080612ff7576000848381518110612f9257612f92615372565b60200260200101519050600081511115612faf5780518082602001fd5b60405162461bcd60e51b815260206004820152601b60248201527f4d756c746963616c6c3a204e6f2072657665727420737472696e6700000000006044820152606401610a40565b50600101612edc565b505092915050565b6000818152600560205260408120548190806130665760405162461bcd60e51b815260206004820152601160248201527f64415049206e616d65206e6f74207365740000000000000000000000000000006044820152606401610a40565b60008181526003602052604090208054601b81900b9450600160e01b900463ffffffff169250826130d95760405162461bcd60e51b815260206004820152601960248201527f446174612066656564206e6f7420696e697469616c697a6564000000000000006044820152606401610a40565b5050915091565b336000908152600460209081526040808320848452825280832060039092528220805482548493929163ffffffff600160e01b918290048116919092049091161115613143578154601b81900b9450600160e01b900463ffffffff16925061315c565b8054601b81900b9450600160e01b900463ffffffff1692505b60008363ffffffff16116130d95760405162461bcd60e51b815260206004820152601960248201527f446174612066656564206e6f7420696e697469616c697a6564000000000000006044820152606401610a40565b6000816001600160a01b0381163314806131ef57506001600160a01b038116600090815260016020908152604080832033845290915290205460ff165b6132325760405162461bcd60e51b815260206004820152601460248201527314d95b99195c881b9bdd081c195c9b5a5d1d195960621b6044820152606401610a40565b60008686866040516020016132499392919061546c565b60408051808303601f1901815282825280516020918201206bffffffffffffffffffffffff1960608d901b16828501526034808501829052835180860390910181526054850193849052805192019190912063eebecf6960e01b9092529250907f00000000000000000000000000000000000000000000000000000000000000006001600160a01b03169063eebecf69906132f9908c908c908c908c908c90630b7914b960e31b9060580161558c565b6020604051808303816000875af1158015613318573d6000803e3d6000fd5b505050506040513d601f19601f8201168201806040525081019061333c9190615359565b60008181526007602090815260409182902084905581516001600160a01b038d811682529181018690529088168183015260608101839052336080820152905191955082917ffdb8fbecf8c307d3eb37e7eef7a6fb3f2c05c992afa63bef475c82a4c75ca14d9181900360a00190a250505095945050505050565b6000806133c685870187614c47565b905085856040516133d892919061545c565b6040518091039020816040516020016133f191906155f1565b60405160208183030381529060405280519060200120146134545760405162461bcd60e51b815260206004820152601760248201527f44617461206c656e677468206e6f7420636f72726563740000000000000000006044820152606401610a40565b600080613460836125c8565b9150915061347961347084613780565b83838989613e93565b9998505050505050505050565b600085815260026020526040812054806134e25760405162461bcd60e51b815260206004820152601b60248201527f537562736372697074696f6e206e6f74207265676973746572656400000000006044820152606401610a40565b61352d8161352588888080601f016020809104026020016040519081016040528093929190818152602001838380828437600092019190915250613f8892505050565b428787613e93565b979650505050505050565b60006001600160a01b0383166135905760405162461bcd60e51b815260206004820152601460248201527f52656c617965722061646472657373207a65726f0000000000000000000000006044820152606401610a40565b6001600160a01b0382166135e65760405162461bcd60e51b815260206004820152601460248201527f53706f6e736f722061646472657373207a65726f0000000000000000000000006044820152606401610a40565b60405161362790469089908990899089908990899030907f206b48f40000000000000000000000000000000000000000000000000000000090602001615635565b60408051601f198184030181529181528151602092830120600081815260089093529120549091501561369c5760405162461bcd60e51b815260206004820152601f60248201527f537562736372697074696f6e20616c72656164792072656769737465726564006044820152606401610a40565b604080516bffffffffffffffffffffffff1960608a811b8216602080850182905288831b841660348601529187901b90921660488401528351808403603c018152605c8401855280519082012060008681526008835285812091909155607c84019290925260908084018b90528451808503909101815260b0909301808552835193820193909320858352600290915292902082905581907f39f2437664bc2ef14dea31757145f683a7c4b0cfe8a520f186470bc7c4a1321d9061376d9085908c908c908c908c908c908c906156c6565b60405180910390a2509695505050505050565b60008160405160200161379391906155f1565b604051602081830303815290604052805190602001209050919050565b6000808080808080806137c5898b018b615782565b9450945094509450945061381b85856040516bffffffffffffffffffffffff19606084901b1660208201526034810182905260009060540160405160208183030381529060405280519060200120905092915050565b9750805160000361386e578151156138695760405162461bcd60e51b81526020600482015260116024820152704d697373696e67207369676e617475726560781b6044820152606401610a40565b61393b565b846001600160a01b03166138968261151a8e8888886040516020016114ff949392919061580c565b6001600160a01b0316146138e15760405162461bcd60e51b81526020600482015260126024820152710a6d2cedcc2e8eae4ca40dad2e6dac2e8c6d60731b6044820152606401610a40565b6138ea82613f88565b96506138f583613aa2565b6139375760405162461bcd60e51b8152602060048201526013602482015272151a5b595cdd185b5c081b9bdd081d985b1a59606a1b6044820152606401610a40565b8295505b505050505093509350939050565b805160009060098111613a225761395f8361408b565b61396a600282615840565b60010361399d578261397d6002836153fb565b8151811061398d5761398d615372565b6020026020010151915050919050565b806000036139ad576139ad615854565b613a1b8360016002840403815181106139c8576139c8615372565b602002602001015184600284816139e1576139e16153cf565b04815181106139f2576139f2615372565b6020026020010151600182811d82821d01838316919091160160ff81901c838318160192915050565b9392505050565b613a2d600282615840565b600103613a49578261397d81613a446002856153fb565b61459d565b600080613a5c85600160028604036145ca565b8092508193505050613a93858381518110613a7957613a79615372565b60200260200101518683815181106139f2576139f2615372565b95945050505050565b50919050565b60004282610e1001118015613aba5750426103840182105b92915050565b6040517f19457468657265756d205369676e6564204d6573736167653a0a3332000000006020820152603c8101829052600090605c01613793565b6000806000613b0a8585614600565b91509150613b1781614642565b509392505050565b6000613b6083838080601f016020809104026020016040519081016040528093929190818152602001838380828437600092019190915250613f8892505050565b600086815260036020526040902054909150600160e01b900463ffffffff168411613bc95760405162461bcd60e51b81526020600482015260196024820152780446f6573206e6f74207570646174652074696d657374616d7603c1b6044820152606401610a40565b604080518082018252601b83900b815263ffffffff95861660208083019182526000988952600390529190962095519051909416600160e01b026001600160e01b039094169390931790935550919050565b600080808080808080613c30898b018b615782565b94509450945094509450613c8685856040516bffffffffffffffffffffffff19606084901b1660208201526034810182905260009060540160405160208183030381529060405280519060200120905092915050565b97508051600003613cd957815115613cd45760405162461bcd60e51b81526020600482015260116024820152704d697373696e67207369676e617475726560781b6044820152606401610a40565b613da4565b846001600160a01b0316613cff8261151a8787876040516020016114ff9392919061586a565b6001600160a01b031614613d4a5760405162461bcd60e51b81526020600482015260126024820152710a6d2cedcc2e8eae4ca40dad2e6dac2e8c6d60731b6044820152606401610a40565b613d5382613f88565b9650613d5e83613aa2565b613da05760405162461bcd60e51b8152602060048201526013602482015272151a5b595cdd185b5c081b9bdd081d985b1a59606a1b6044820152606401610a40565b8295505b50505050509250925092565b600080808080808080613dc5898b018b615782565b94509450945094509450613e1b85856040516bffffffffffffffffffffffff19606084901b1660208201526034810182905260009060540160405160208183030381529060405280519060200120905092915050565b97508051600003613e6957815115613cd45760405162461bcd60e51b81526020600482015260116024820152704d697373696e67207369676e617475726560781b6044820152606401610a40565b846001600160a01b0316613cff8261151a46308989896040516020016114ff959493929190615897565b600060608214613ee55760405162461bcd60e51b815260206004820152601a60248201527f496e636f727265637420706172616d65746572206c656e6774680000000000006044820152606401610a40565b60008080613ef5858701876158e4565b60008c81526003602052604090208054939650919450925090600160e01b900463ffffffff16158015613f2d575063ffffffff881615155b80613f5257508315801590613f52575080548490613f4f90601b0b8b866147aa565b10155b80613f7a57508115801590613f7a5750805463ffffffff808a16600160e01b90920416830111155b9a9950505050505050505050565b60008151602014613fdb5760405162461bcd60e51b815260206004820152601760248201527f44617461206c656e677468206e6f7420636f72726563740000000000000000006044820152606401610a40565b600082806020019051810190613ff19190615359565b90507fffffffff80000000000000000000000000000000000000000000000000000000811280159061403f57507b7fffffffffffffffffffffffffffffffffffffffffffffffffffffff8113155b613aba5760405162461bcd60e51b815260206004820152601760248201527f56616c7565207479706563617374696e67206572726f720000000000000000006044820152606401610a40565b805160098111156140de5760405162461bcd60e51b815260206004820152601660248201527f417272617920746f6f206c6f6e6720746f20736f7274000000000000000000006044820152606401610a40565b60068110156141e95760048110156141385780600303614123576141058260006001614838565b6141128260016002614838565b61411f8260006001614838565b5050565b8060020361411f5761411f8260006001614838565b806005036141b55761414d8260016002614838565b61415a8260036004614838565b6141678260016003614838565b6141748260006002614838565b6141818260026004614838565b61418e8260006003614838565b61419b8260006001614838565b6141a88260026003614838565b61411f8260016002614838565b6141c28260006001614838565b6141cf8260026003614838565b6141dc8260016003614838565b6141a88260006002614838565b600881101561436657806007036142ca576142078260016002614838565b6142148260036004614838565b6142218260056006614838565b61422e8260006002614838565b61423b8260046006614838565b6142488260036005614838565b6142558260026006614838565b6142628260016005614838565b61426f8260006004614838565b61427c8260026005614838565b6142898260006003614838565b6142968260026004614838565b6142a38260016003614838565b6142b08260006001614838565b6142bd8260026003614838565b61411f8260046005614838565b6142d78260006001614838565b6142e48260026003614838565b6142f18260046005614838565b6142fe8260016003614838565b61430b8260036005614838565b6143188260016003614838565b6143258260026004614838565b6143328260006002614838565b61433f8260026004614838565b61434c8260036004614838565b6143598260016002614838565b61411f8260026003614838565b806009036144995761437b8260016008614838565b6143888260026007614838565b6143958260036006614838565b6143a28260046005614838565b6143af8260016004614838565b6143bc8260056008614838565b6143c98260006002614838565b6143d68260066007614838565b6143e38260026006614838565b6143f08260076008614838565b6143fd8260006003614838565b61440a8260046005614838565b6144178260006001614838565b6144248260036005614838565b6144318260066007614838565b61443e8260026004614838565b61444b8260016003614838565b6144588260056007614838565b6144658260046006614838565b6144728260016002614838565b61447f8260036004614838565b61448c8260056006614838565b6142b08260076008614838565b6144a68260006007614838565b6144b38260016006614838565b6144c08260026005614838565b6144cd8260036004614838565b6144da8260006003614838565b6144e78260046007614838565b6144f48260016002614838565b6145018260056006614838565b61450e8260006001614838565b61451b8260026003614838565b6145288260046005614838565b6145358260066007614838565b6145428260036005614838565b61454f8260026004614838565b61455c8260016002614838565b6145698260036004614838565b6145768260056006614838565b6145838260026003614838565b6145908260046005614838565b61411f8260036004614838565b8151600090806145af576145af615854565b6145c1846000600184038660006148e5565b50949350505050565b81516000908190600181116145e1576145e1615854565b6145f3856000600184038760016148e5565b92509250505b9250929050565b60008082516041036146365760208301516040840151606085015160001a61462a878285856149b5565b945094505050506145f9565b506000905060026145f9565b600081600481111561465657614656615922565b0361465e5750565b600181600481111561467257614672615922565b036146bf5760405162461bcd60e51b815260206004820152601860248201527f45434453413a20696e76616c6964207369676e617475726500000000000000006044820152606401610a40565b60028160048111156146d3576146d3615922565b036147205760405162461bcd60e51b815260206004820152601f60248201527f45434453413a20696e76616c6964207369676e6174757265206c656e677468006044820152606401610a40565b600381600481111561473457614734615922565b036147a75760405162461bcd60e51b815260206004820152602260248201527f45434453413a20696e76616c6964207369676e6174757265202773272076616c60448201527f75650000000000000000000000000000000000000000000000000000000000006064820152608401610a40565b50565b6000601b84810b9084900b038082036147c7576000915050613a1b565b600083601b0b86601b0b136147e45785601b0b84601b0b036147ee565b83601b0b86601b0b035b9050806000036148045760001992505050613a1b565b600080831361481b5761481683615938565b61481d565b825b90508161482e6305f5e10083615970565b61352d91906153fb565b82818151811061484a5761484a615372565b602002602001015183838151811061486457614864615372565b602002602001015113156123bc5782818151811061488457614884615372565b602002602001015183838151811061489e5761489e615372565b60200260200101518484815181106148b8576148b8615372565b602002602001018584815181106148d1576148d1615372565b602090810291909101019190915252505050565b6000808486036148fa575082905060006149ab565b6000614907888888614a79565b90508085101561492a576149228888600184038860006148e5565b509250614947565b80851115614943576149228882600101888860006148e5565b8092505b83156149a957600183019150600283015b88518110156149a75788838151811061497357614973615372565b602002602001015189828151811061498d5761498d615372565b6020026020010151121561499f578092505b600101614958565b505b505b9550959350505050565b6000807f7fffffffffffffffffffffffffffffff5d576e7357a4501ddfe92f46681b20a08311156149ec5750600090506003614a70565b6040805160008082526020820180845289905260ff881692820192909252606081018690526080810185905260019060a0016020604051602081039080840390855afa158015614a40573d6000803e3d6000fd5b5050604051601f1901519150506001600160a01b038116614a6957600060019250925050614a70565b9150600090505b94509492505050565b6000818303614a89575081613a1b565b6000848481518110614a9d57614a9d615372565b6020026020010151905060008490508360010192505b855160019091019081108015614ae1575081868281518110614ad757614ad7615372565b6020026020010151125b614ab3575b82806001900393505081868481518110614b0257614b02615372565b602002602001015113614ae657828110614b8d57858381518110614b2857614b28615372565b6020026020010151868681518110614b4257614b42615372565b6020026020010151878781518110614b5c57614b5c615372565b60200260200101888681518110614b7557614b75615372565b60200260200101828152508281525050505050613a1b565b858381518110614b9f57614b9f615372565b6020026020010151868281518110614bb957614bb9615372565b6020026020010151878381518110614bd357614bd3615372565b60200260200101888681518110614bec57614bec615372565b602090810291909101019190915252614ab3565b634e487b7160e01b600052604160045260246000fd5b604051601f8201601f1916810167ffffffffffffffff81118282101715614c3f57614c3f614c00565b604052919050565b60006020808385031215614c5a57600080fd5b823567ffffffffffffffff80821115614c7257600080fd5b818501915085601f830112614c8657600080fd5b813581811115614c9857614c98614c00565b8060051b9150614ca9848301614c16565b8181529183018401918481019088841115614cc357600080fd5b938501935b83851015614ce157843582529385019390850190614cc8565b98975050505050505050565b6001600160a01b03811681146147a757600080fd5b600080600060608486031215614d1757600080fd5b8335614d2281614ced565b9250602084013591506040840135614d3981614ced565b809150509250925092565b60008083601f840112614d5657600080fd5b50813567ffffffffffffffff811115614d6e57600080fd5b6020830191508360208260051b85010111156145f957600080fd5b600080600080600060808688031215614da157600080fd5b8535614dac81614ced565b94506020860135935060408601359250606086013567ffffffffffffffff811115614dd657600080fd5b614de288828901614d44565b969995985093965092949392505050565b60008083601f840112614e0557600080fd5b50813567ffffffffffffffff811115614e1d57600080fd5b6020830191508360208285010111156145f957600080fd5b600080600080600080600080600060e08a8c031215614e5357600080fd5b8935985060208a0135614e6581614ced565b975060408a0135614e7581614ced565b965060608a0135614e8581614ced565b955060808a0135945060a08a013567ffffffffffffffff80821115614ea957600080fd5b614eb58d838e01614df3565b909650945060c08c0135915080821115614ece57600080fd5b50614edb8c828d01614df3565b915080935050809150509295985092959850929598565b600060208284031215614f0457600080fd5b5035919050565b60008060008060008060a08789031215614f2457600080fd5b8635614f2f81614ced565b955060208701359450604087013567ffffffffffffffff811115614f5257600080fd5b614f5e89828a01614df3565b9095509350506060870135614f7281614ced565b91506080870135614f8281614ced565b809150509295509295509295565b60008060208385031215614fa357600080fd5b823567ffffffffffffffff811115614fba57600080fd5b614fc685828601614d44565b90969095509350505050565b60005b83811015614fed578181015183820152602001614fd5565b50506000910152565b6000815180845261500e816020860160208601614fd2565b601f01601f19169290920160200192915050565b600081518084526020808501808196508360051b8101915082860160005b8581101561506a578284038952615058848351614ff6565b98850198935090840190600101615040565b5091979650505050505050565b604080825283519082018190526000906020906060840190828701845b828110156150b2578151151584529284019290840190600101615094565b505050838103828501526150c68186615022565b9695505050505050565b602081526000613a1b6020830184614ff6565b6000602082840312156150f557600080fd5b8135613a1b81614ced565b6000806000806060858703121561511657600080fd5b8435935060208501359250604085013567ffffffffffffffff81111561513b57600080fd5b61514787828801614df3565b95989497509550505050565b6000806000806080858703121561516957600080fd5b843561517481614ced565b935060208501359250604085013561518b81614ced565b9150606085013561519b81614ced565b939692955090935050565b600080604083850312156151b957600080fd5b50508035926020909101359150565b600080604083850312156151db57600080fd5b82356151e681614ced565b915060208301356151f681614ced565b809150509250929050565b80151581146147a757600080fd5b6000806040838503121561522257600080fd5b823561522d81614ced565b915060208301356151f681615201565b602081526000613a1b6020830184615022565b60008060008060006080868803121561526857600080fd5b853561527381614ced565b945060208601359350604086013567ffffffffffffffff81111561529657600080fd5b6152a288828901614df3565b90945092505060608601356152b681614ced565b809150509295509295909350565b6000806000806000606086880312156152dc57600080fd5b85359450602086013567ffffffffffffffff808211156152fb57600080fd5b61530789838a01614df3565b9096509450604088013591508082111561532057600080fd5b50614de288828901614df3565b6000806040838503121561534057600080fd5b823561534b81614ced565b946020939093013593505050565b60006020828403121561536b57600080fd5b5051919050565b634e487b7160e01b600052603260045260246000fd5b6000808335601e1984360301811261539f57600080fd5b83018035915067ffffffffffffffff8211156153ba57600080fd5b6020019150368190038213156145f957600080fd5b634e487b7160e01b600052601260045260246000fd5b634e487b7160e01b600052601160045260246000fd5b60008261540a5761540a6153cf565b500490565b80820180821115613aba57613aba6153e5565b8581528460208201526bffffffffffffffffffffffff198460601b1660408201528183605483013760009101605401908152949350505050565b8183823760009101908152919050565b838152818360208301376000910160200190815292915050565b81835281816020850137506000828201602090810191909152601f909101601f19169091010190565b60006001600160a01b03808a16835288602084015260c060408401526154d960c08401888a615486565b95811660608401529390931660808201527fffffffff000000000000000000000000000000000000000000000000000000009190911660a09091015250949350505050565b600181811c9082168061553257607f821691505b602082108103613a9c57634e487b7160e01b600052602260045260246000fd5b60006020828403121561556457600080fd5b8151613a1b81614ced565b60006020828403121561558157600080fd5b8151613a1b81615201565b60006001600160a01b03808916835287602084015260a060408401526155b660a084018789615486565b94166060830152507fffffffff0000000000000000000000000000000000000000000000000000000091909116608090910152949350505050565b6020808252825182820181905260009190848201906040850190845b818110156156295783518352928401929184019160010161560d565b50909695505050505050565b60006101208b83526001600160a01b03808c1660208501528a604085015281606085015260008285015261014091508160808501526156778285018a8c615486565b97811660a085015295861660c084015250509190921660e08201527fffffffff000000000000000000000000000000000000000000000000000000009091166101009091015295945050505050565b87815260006001600160a01b03808916602084015287604084015260c060608401526156f660c084018789615486565b94811660808401529290921660a0909101525095945050505050565b600082601f83011261572357600080fd5b813567ffffffffffffffff81111561573d5761573d614c00565b615750601f8201601f1916602001614c16565b81815284602083860101111561576557600080fd5b816020850160208301376000918101602001919091529392505050565b600080600080600060a0868803121561579a57600080fd5b85356157a581614ced565b94506020860135935060408601359250606086013567ffffffffffffffff808211156157d057600080fd5b6157dc89838a01615712565b935060808801359150808211156157f257600080fd5b506157ff88828901615712565b9150509295509295909350565b84815283602082015282604082015260008251615830816060850160208701614fd2565b9190910160600195945050505050565b60008261584f5761584f6153cf565b500690565b634e487b7160e01b600052600160045260246000fd5b83815282602082015260008251615888816040850160208701614fd2565b91909101604001949350505050565b8581526bffffffffffffffffffffffff198560601b166020820152836034820152826054820152600082516158d3816074850160208701614fd2565b919091016074019695505050505050565b6000806000606084860312156158f957600080fd5b83359250602084013580601b0b811461591157600080fd5b929592945050506040919091013590565b634e487b7160e01b600052602160045260246000fd5b60007f80000000000000000000000000000000000000000000000000000000000000008203615969576159696153e5565b5060000390565b8082028115828204841417613aba57613aba6153e556fea264697066735822122030025687622494406a490c720958f6642580bd0efe231135a08dc0d0c897b3bc64736f6c63430008110033",
  "devdoc": {
    "details": "DapiServer is a PSP requester contract. Unlike RRP, which is implemented as a central contract, PSP implementation is built into the requester for optimization. Accordingly, the checks that are not required are omitted. Some examples: - While executing a PSP Beacon update, the condition is not verified because Beacon updates where the condition returns `false` (e.g., the on-chain value is already close to the actual value) are not harmful, and are even desirable (\"any update is a good update\"). - PSP Beacon set update subscription IDs are not verified, as the Airnode/relayer cannot be made to \"misreport a Beacon set update\" by spoofing a subscription ID. - While executing a PSP Beacon set update, even the signature is not checked because this is a purely keeper job that does not require off-chain data. Similar to Beacon updates, any Beacon set update is welcome.",
    "kind": "dev",
    "methods": {
      "aggregateBeacons(bytes32[])": {
        "details": "Tha aggregation of Beacons may have a different value than the respective Beacon set, e.g., because the Beacon set has been updated using signed data",
        "params": {
          "beaconIds": "Beacon IDs"
        },
        "returns": {
          "timestamp": "Aggregation timestamp",
          "value": "Aggregation value"
        }
      },
      "conditionPspBeaconSetUpdate(bytes32,bytes,bytes)": {
        "details": "`endpointOrTemplateId` in the respective Subscription is expected to be zero, which means the `parameters` field of the Subscription will be forwarded to this function as `data`. This field should be the Beacon ID array encoded in contract ABI.",
        "params": {
          "conditionParameters": "Subscription condition parameters. This includes multiple ABI-encoded values, see `checkUpdateCondition()`.",
          "data": "Fulfillment data (array of Beacon IDs, i.e., `bytes32[]` encoded in contract ABI)",
          "subscriptionId": "Subscription ID"
        },
        "returns": {
          "_0": "If the Beacon set update subscription should be fulfilled"
        }
      },
      "conditionPspBeaconUpdate(bytes32,bytes,bytes)": {
        "details": "`conditionParameters` are specified within the `conditions` field of a Subscription",
        "params": {
          "conditionParameters": "Subscription condition parameters. This includes multiple ABI-encoded values, see `checkUpdateCondition()`.",
          "data": "Fulfillment data (an `int256` encoded in contract ABI)",
          "subscriptionId": "Subscription ID"
        },
        "returns": {
          "_0": "If the Beacon update subscription should be fulfilled"
        }
      },
      "constructor": {
        "params": {
          "_accessControlRegistry": "AccessControlRegistry contract address",
          "_adminRoleDescription": "Admin role description",
          "_airnodeProtocol": "AirnodeProtocol contract address",
          "_manager": "Manager address"
        }
      },
      "dapiNameToDataFeedId(bytes32)": {
        "params": {
          "dapiName": "dAPI name"
        },
        "returns": {
          "_0": "Data feed ID"
        }
      },
      "fulfillPspBeaconSetUpdate(bytes32,address,address,address,uint256,bytes,bytes)": {
        "details": "Similar to `conditionPspBeaconSetUpdate()`, if `endpointOrTemplateId` of the Subscription is zero, its `parameters` field will be forwarded to `data` here, which is expect to be contract ABI-encoded array of Beacon IDs. It does not make sense for this subscription to be relayed, as there is no external data being delivered. Nevertheless, this is allowed for the lack of a reason to prevent it. Even though the consistency of the arguments are not being checked, if a standard implementation of Airnode is being used, these can be expected to be correct. Either way, the assumption is that it does not matter for the purposes of a Beacon set update subscription.",
        "params": {
          "airnode": "Airnode address",
          "data": "Fulfillment data (an `int256` encoded in contract ABI)",
          "relayer": "Relayer address",
          "signature": "Subscription ID, timestamp, sponsor wallet address (and fulfillment data if the relayer is not the Airnode) signed by the Airnode wallet",
          "sponsor": "Sponsor address",
          "subscriptionId": "Subscription ID",
          "timestamp": "Timestamp used in the signature"
        }
      },
      "fulfillPspBeaconUpdate(bytes32,address,address,address,uint256,bytes,bytes)": {
        "details": "There is no need to verify that `conditionPspBeaconUpdate()` returns `true` because any Beacon update is a good Beacon update",
        "params": {
          "airnode": "Airnode address",
          "data": "Fulfillment data (a single `int256` encoded in contract ABI)",
          "relayer": "Relayer address",
          "signature": "Subscription ID, timestamp, sponsor wallet address (and fulfillment data if the relayer is not the Airnode) signed by the Airnode wallet",
          "sponsor": "Sponsor address",
          "subscriptionId": "Subscription ID",
          "timestamp": "Timestamp used in the signature"
        }
      },
      "fulfillRrpBeaconUpdate(bytes32,uint256,bytes)": {
        "params": {
          "data": "Fulfillment data (an `int256` encoded in contract ABI)",
          "requestId": "Request ID",
          "timestamp": "Timestamp used in the signature"
        }
      },
      "getBalance(address)": {
        "params": {
          "account": "Account address"
        },
        "returns": {
          "_0": "Account balance"
        }
      },
      "getBlockBasefee()": {
        "returns": {
          "_0": "Current block basefee"
        }
      },
      "getBlockNumber()": {
        "returns": {
          "_0": "Current block number"
        }
      },
      "getBlockTimestamp()": {
        "returns": {
          "_0": "Current block timestamp"
        }
      },
      "getChainId()": {
        "returns": {
          "_0": "Chain ID"
        }
      },
      "multicall(bytes[])": {
        "params": {
          "data": "Array of calldata of batched calls"
        },
        "returns": {
          "returndata": "Array of returndata of batched calls"
        }
      },
      "readDataFeedWithDapiNameHash(bytes32)": {
        "params": {
          "dapiNameHash": "dAPI name hash"
        },
        "returns": {
          "timestamp": "Data feed timestamp",
          "value": "Data feed value"
        }
      },
      "readDataFeedWithDapiNameHashAsOevProxy(bytes32)": {
        "params": {
          "dapiNameHash": "dAPI name hash"
        },
        "returns": {
          "timestamp": "Data feed timestamp",
          "value": "Data feed value"
        }
      },
      "readDataFeedWithId(bytes32)": {
        "params": {
          "dataFeedId": "Data feed ID"
        },
        "returns": {
          "timestamp": "Data feed timestamp",
          "value": "Data feed value"
        }
      },
      "readDataFeedWithIdAsOevProxy(bytes32)": {
        "params": {
          "dataFeedId": "Data feed ID"
        },
        "returns": {
          "timestamp": "Data feed timestamp",
          "value": "Data feed value"
        }
      },
      "registerBeaconUpdateSubscription(address,bytes32,bytes,address,address)": {
        "details": "Similar to how one needs to call `requestRrpBeaconUpdate()` for this contract to recognize the incoming RRP fulfillment, this needs to be called before the subscription fulfillments. In addition to the subscription being registered, the sponsor must use `setPspSponsorshipStatus()` to give permission for its sponsor wallet to be used for the specific subscription.",
        "params": {
          "airnode": "Airnode address",
          "conditions": "Conditions under which the subscription is requested to be fulfilled",
          "relayer": "Relayer address",
          "sponsor": "Sponsor address",
          "templateId": "Template ID"
        },
        "returns": {
          "subscriptionId": "Subscription ID"
        }
      },
      "requestRelayedRrpBeaconUpdateWithEndpoint(address,bytes32,bytes,address,address)": {
        "params": {
          "airnode": "Airnode address",
          "endpointId": "Endpoint ID",
          "parameters": "Parameters",
          "relayer": "Relayer address",
          "sponsor": "Sponsor address"
        },
        "returns": {
          "requestId": "Request ID"
        }
      },
      "requestRelayedRrpBeaconUpdateWithTemplate(address,bytes32,address,address)": {
        "params": {
          "airnode": "Airnode address",
          "relayer": "Relayer address",
          "sponsor": "Sponsor address",
          "templateId": "Template ID"
        },
        "returns": {
          "requestId": "Request ID"
        }
      },
      "requestRrpBeaconUpdateWithEndpoint(address,bytes32,bytes,address)": {
        "params": {
          "airnode": "Airnode address",
          "endpointId": "Endpoint ID",
          "parameters": "Parameters",
          "sponsor": "Sponsor address"
        },
        "returns": {
          "requestId": "Request ID"
        }
      },
      "requestRrpBeaconUpdateWithTemplate(address,bytes32,address)": {
        "details": "In addition to the sponsor sponsoring this contract (by calling `setRrpSponsorshipStatus()`), the sponsor must also give update request permission to the sender (by calling `setRrpBeaconUpdatePermissionStatus()`) before this method is called. The template must specify a single point of data of type `int256` to be returned and for it to be small enough to be castable to `int224` because this is what `fulfillRrpBeaconUpdate()` expects.",
        "params": {
          "airnode": "Airnode address",
          "sponsor": "Sponsor address",
          "templateId": "Template ID"
        },
        "returns": {
          "requestId": "Request ID"
        }
      },
      "setDapiName(bytes32,bytes32)": {
        "details": "While a data feed ID refers to a specific Beacon or Beacon set, dAPI names provide a more abstract interface for convenience. This means a dAPI name that was pointing to a Beacon can be pointed to a Beacon set, then another Beacon set, etc.",
        "params": {
          "dapiName": "Human-readable dAPI name",
          "dataFeedId": "Data feed ID the dAPI name will point to"
        }
      },
      "setRrpBeaconUpdatePermissionStatus(address,bool)": {
        "params": {
          "rrpBeaconUpdateRequester": "RRP-based Beacon update requester address",
          "status": "Permission status"
        }
      },
      "tryMulticall(bytes[])": {
        "params": {
          "data": "Array of calldata of batched calls"
        },
        "returns": {
          "returndata": "Array of returndata of batched calls",
          "successes": "Array of success conditions of batched calls"
        }
      },
      "updateBeaconSetWithBeacons(bytes32[])": {
        "details": "As an oddity, this function still works if some of the IDs in `beaconIds` belong to Beacon sets rather than Beacons. This can be used to implement hierarchical Beacon sets.",
        "params": {
          "beaconIds": "Beacon IDs"
        },
        "returns": {
          "beaconSetId": "Beacon set ID"
        }
      },
      "updateDataFeedWithDomainSignedData(bytes[])": {
        "details": "This signed data here is specific to this contract, which is to be used when the signer does not want to provide the more general signature. EIP712 may feel relevant here, but we avoided it for the sake of consistency among signed data implementations and clarity.",
        "params": {
          "signedData": "Array of contract ABI-encoded Airnode address, template ID, timestamp and fulfillment data that is signed by the respective Airnode for this specific contract"
        }
      },
      "updateDataFeedWithSignedData(bytes[])": {
        "details": "The signed data here is intentionally very general for practical reasons. It is less demanding on the signer to have data signed once and use that everywhere.",
        "params": {
          "signedData": "Array of contract ABI-encoded Airnode address, template ID, timestamp and fulfillment data that is signed by the respective Airnode"
        }
      },
      "updateOevProxyDataFeedWithSignedData(address,bytes32,uint256,bytes[])": {
        "details": "Even though data for Beacons are signed individually, the caller is only allowed to use the signatures as a bundle. They cannot omit individual signatures or mix-and-match among bundles.",
        "params": {
          "oevProxy": "OEV proxy that reads the data feed",
          "signatureCount": "Number of signatures in `signedData`",
          "signedData": "Array of ABI-encoded Airnode address, template ID, timestamp, fulfillment data and bid metadata that is signed by the respective Airnode for the specific bid",
          "updateId": "Update ID"
        }
      },
      "withdraw(address)": {
        "details": "This does not require the caller to be the beneficiary because we expect that in most cases, the OEV beneficiary will be a contract that will not be able to make arbitrary calls. Our choice can be worked around by implementing a beneficiary proxy.",
        "params": {
          "oevProxy": "OEV proxy"
        }
      }
    },
    "stateVariables": {
      "HUNDRED_PERCENT": {
        "details": "10^8 (and not a larger number) is chosen to avoid overflows in `calculateUpdateInPercentage()`. Since the reported data needs to fit into 224 bits, its multiplication by 10^8 is guaranteed not to overflow."
      },
      "oevProxyToIdToDataFeed": {
        "details": "This implies that an update as a result of an OEV auction only affects contracts that read through the respective proxy that the auction was being held for"
      }
    },
    "title": "Contract that serves Beacons, Beacon sets and dAPIs based on the Airnode protocol",
    "version": 1
  },
  "userdoc": {
    "kind": "user",
    "methods": {
      "DAPI_NAME_SETTER_ROLE_DESCRIPTION()": {
        "notice": "dAPI name setter role description"
      },
      "HUNDRED_PERCENT()": {
        "notice": "Number that represents 100%"
      },
      "accessControlRegistry()": {
        "notice": "AccessControlRegistry contract address"
      },
      "adminRole()": {
        "notice": "Admin role"
      },
      "adminRoleDescription()": {
        "notice": "Admin role description"
      },
      "aggregateBeacons(bytes32[])": {
        "notice": "Aggregates the Beacons and returns the result"
      },
      "airnodeProtocol()": {
        "notice": "AirnodeProtocol contract address"
      },
      "conditionPspBeaconSetUpdate(bytes32,bytes,bytes)": {
        "notice": "Returns if the respective Beacon set needs to be updated based on the condition parameters"
      },
      "conditionPspBeaconUpdate(bytes32,bytes,bytes)": {
        "notice": "Returns if the respective Beacon needs to be updated based on the fulfillment data and the condition parameters"
      },
      "dapiNameHashToDataFeedId(bytes32)": {
        "notice": "dAPI name hash mapped to the data feed ID"
      },
      "dapiNameSetterRole()": {
        "notice": "dAPI name setter role"
      },
      "dapiNameToDataFeedId(bytes32)": {
        "notice": "Returns the data feed ID the dAPI name is set to"
      },
      "dataFeeds(bytes32)": {
        "notice": "Data feed with ID"
      },
      "fulfillPspBeaconSetUpdate(bytes32,address,address,address,uint256,bytes,bytes)": {
        "notice": "Called by the Airnode/relayer using the sponsor wallet to fulfill the Beacon set update subscription"
      },
      "fulfillPspBeaconUpdate(bytes32,address,address,address,uint256,bytes,bytes)": {
        "notice": "Called by the Airnode/relayer using the sponsor wallet to fulfill the Beacon update subscription"
      },
      "fulfillRrpBeaconUpdate(bytes32,uint256,bytes)": {
        "notice": "Called by the Airnode/relayer using the sponsor wallet through AirnodeProtocol to fulfill the request"
      },
      "getBalance(address)": {
        "notice": "Returns the account balance"
      },
      "getBlockBasefee()": {
        "notice": "Returns the current block basefee"
      },
      "getBlockNumber()": {
        "notice": "Returns the current block number"
      },
      "getBlockTimestamp()": {
        "notice": "Returns the current block timestamp"
      },
      "getChainId()": {
        "notice": "Returns the chain ID"
      },
      "manager()": {
        "notice": "Address of the manager that manages the related AccessControlRegistry roles"
      },
      "multicall(bytes[])": {
        "notice": "Batches calls to the inheriting contract and reverts if at least one of the batched calls reverts"
      },
      "oevProxyToBalance(address)": {
        "notice": "Accumulated OEV auction proceeds for the specific proxy"
      },
      "oevProxyToIdToDataFeed(address,bytes32)": {
        "notice": "Data feed with ID specific to the OEV proxy"
      },
      "readDataFeedWithDapiNameHash(bytes32)": {
        "notice": "Reads the data feed with dAPI name hash"
      },
      "readDataFeedWithDapiNameHashAsOevProxy(bytes32)": {
        "notice": "Reads the data feed as the OEV proxy with dAPI name hash"
      },
      "readDataFeedWithId(bytes32)": {
        "notice": "Reads the data feed with ID"
      },
      "readDataFeedWithIdAsOevProxy(bytes32)": {
        "notice": "Reads the data feed as the OEV proxy with ID"
      },
      "registerBeaconUpdateSubscription(address,bytes32,bytes,address,address)": {
        "notice": "Registers the Beacon update subscription"
      },
      "requestRelayedRrpBeaconUpdateWithEndpoint(address,bytes32,bytes,address,address)": {
        "notice": "Creates an RRP request for the Beacon to be updated by the relayer"
      },
      "requestRelayedRrpBeaconUpdateWithTemplate(address,bytes32,address,address)": {
        "notice": "Creates an RRP request for the Beacon to be updated by the relayer"
      },
      "requestRrpBeaconUpdateWithEndpoint(address,bytes32,bytes,address)": {
        "notice": "Creates an RRP request for the Beacon to be updated"
      },
      "requestRrpBeaconUpdateWithTemplate(address,bytes32,address)": {
        "notice": "Creates an RRP request for the Beacon to be updated"
      },
      "setDapiName(bytes32,bytes32)": {
        "notice": "Sets the data feed ID the dAPI name points to"
      },
      "setRrpBeaconUpdatePermissionStatus(address,bool)": {
        "notice": "Called by the sponsor to set the update request permission status of an account"
      },
      "sponsorToRrpBeaconUpdateRequesterToPermissionStatus(address,address)": {
        "notice": "If a sponsor has permitted an account to request RRP-based updates at this contract"
      },
      "subscriptionIdToBeaconId(bytes32)": {
        "notice": "ID of the Beacon that the subscription is registered to update"
      },
      "tryMulticall(bytes[])": {
        "notice": "Batches calls to the inheriting contract but does not revert if any of the batched calls reverts"
      },
      "updateBeaconSetWithBeacons(bytes32[])": {
        "notice": "Updates the Beacon set using the current values of its Beacons"
      },
      "updateDataFeedWithDomainSignedData(bytes[])": {
        "notice": "Updates a data feed using data domain-signed by the respective Airnodes without requiring a request or subscription. The Beacons for which the fulfillment data and signature is omitted will be read from storage."
      },
      "updateDataFeedWithSignedData(bytes[])": {
        "notice": "Updates a data feed using data signed by the respective Airnodes without requiring a request or subscription. The Beacons for which the fulfillment data and signature is omitted will be read from storage."
      },
      "updateOevProxyDataFeedWithSignedData(address,bytes32,uint256,bytes[])": {
        "notice": "Updates a data feed that the OEV proxy reads using data signed by the respective Airnodes for the specific bid. The Beacons for which the fulfillment data and signature is omitted will be read from storage."
      },
      "withdraw(address)": {
        "notice": "Withdraws the balance of the OEV proxy to the respective beneficiary account"
      }
    },
    "notice": "A Beacon is a live data feed addressed by an ID, which is derived from an Airnode address and a template ID. This is suitable where the more recent data point is always more favorable, e.g., in the context of an asset price data feed. Beacons can also be seen as one-Airnode data feeds that can be used individually or combined to build Beacon sets. dAPIs are an abstraction layer over Beacons and Beacon sets. In addition, this contract allows winners of OEV auctions to pay their bids to update the specific data feed.",
    "version": 1
  },
  "storageLayout": {
    "storage": [
      {
        "astId": 2745,
        "contract": "contracts/dapis/DapiServer.sol:DapiServer",
        "label": "adminRoleDescription",
        "offset": 0,
        "slot": "0",
        "type": "t_string_storage"
      },
      {
        "astId": 4872,
        "contract": "contracts/dapis/DapiServer.sol:DapiServer",
        "label": "sponsorToRrpBeaconUpdateRequesterToPermissionStatus",
        "offset": 0,
        "slot": "1",
        "type": "t_mapping(t_address,t_mapping(t_address,t_bool))"
      },
      {
        "astId": 4878,
        "contract": "contracts/dapis/DapiServer.sol:DapiServer",
        "label": "subscriptionIdToBeaconId",
        "offset": 0,
        "slot": "2",
        "type": "t_mapping(t_bytes32,t_bytes32)"
      },
      {
        "astId": 4885,
        "contract": "contracts/dapis/DapiServer.sol:DapiServer",
        "label": "dataFeeds",
        "offset": 0,
        "slot": "3",
        "type": "t_mapping(t_bytes32,t_struct(DataFeed)4850_storage)"
      },
      {
        "astId": 4894,
        "contract": "contracts/dapis/DapiServer.sol:DapiServer",
        "label": "oevProxyToIdToDataFeed",
        "offset": 0,
        "slot": "4",
        "type": "t_mapping(t_address,t_mapping(t_bytes32,t_struct(DataFeed)4850_storage))"
      },
      {
        "astId": 4900,
        "contract": "contracts/dapis/DapiServer.sol:DapiServer",
        "label": "dapiNameHashToDataFeedId",
        "offset": 0,
        "slot": "5",
        "type": "t_mapping(t_bytes32,t_bytes32)"
      },
      {
        "astId": 4906,
        "contract": "contracts/dapis/DapiServer.sol:DapiServer",
        "label": "oevProxyToBalance",
        "offset": 0,
        "slot": "6",
        "type": "t_mapping(t_address,t_uint256)"
      },
      {
        "astId": 4910,
        "contract": "contracts/dapis/DapiServer.sol:DapiServer",
        "label": "requestIdToBeaconId",
        "offset": 0,
        "slot": "7",
        "type": "t_mapping(t_bytes32,t_bytes32)"
      },
      {
        "astId": 4914,
        "contract": "contracts/dapis/DapiServer.sol:DapiServer",
        "label": "subscriptionIdToHash",
        "offset": 0,
        "slot": "8",
        "type": "t_mapping(t_bytes32,t_bytes32)"
      }
    ],
    "types": {
      "t_address": {
        "encoding": "inplace",
        "label": "address",
        "numberOfBytes": "20"
      },
      "t_bool": {
        "encoding": "inplace",
        "label": "bool",
        "numberOfBytes": "1"
      },
      "t_bytes32": {
        "encoding": "inplace",
        "label": "bytes32",
        "numberOfBytes": "32"
      },
      "t_int224": {
        "encoding": "inplace",
        "label": "int224",
        "numberOfBytes": "28"
      },
      "t_mapping(t_address,t_bool)": {
        "encoding": "mapping",
        "key": "t_address",
        "label": "mapping(address => bool)",
        "numberOfBytes": "32",
        "value": "t_bool"
      },
      "t_mapping(t_address,t_mapping(t_address,t_bool))": {
        "encoding": "mapping",
        "key": "t_address",
        "label": "mapping(address => mapping(address => bool))",
        "numberOfBytes": "32",
        "value": "t_mapping(t_address,t_bool)"
      },
      "t_mapping(t_address,t_mapping(t_bytes32,t_struct(DataFeed)4850_storage))": {
        "encoding": "mapping",
        "key": "t_address",
        "label": "mapping(address => mapping(bytes32 => struct DapiServer.DataFeed))",
        "numberOfBytes": "32",
        "value": "t_mapping(t_bytes32,t_struct(DataFeed)4850_storage)"
      },
      "t_mapping(t_address,t_uint256)": {
        "encoding": "mapping",
        "key": "t_address",
        "label": "mapping(address => uint256)",
        "numberOfBytes": "32",
        "value": "t_uint256"
      },
      "t_mapping(t_bytes32,t_bytes32)": {
        "encoding": "mapping",
        "key": "t_bytes32",
        "label": "mapping(bytes32 => bytes32)",
        "numberOfBytes": "32",
        "value": "t_bytes32"
      },
      "t_mapping(t_bytes32,t_struct(DataFeed)4850_storage)": {
        "encoding": "mapping",
        "key": "t_bytes32",
        "label": "mapping(bytes32 => struct DapiServer.DataFeed)",
        "numberOfBytes": "32",
        "value": "t_struct(DataFeed)4850_storage"
      },
      "t_string_storage": {
        "encoding": "bytes",
        "label": "string",
        "numberOfBytes": "32"
      },
      "t_struct(DataFeed)4850_storage": {
        "encoding": "inplace",
        "label": "struct DapiServer.DataFeed",
        "members": [
          {
            "astId": 4847,
            "contract": "contracts/dapis/DapiServer.sol:DapiServer",
            "label": "value",
            "offset": 0,
            "slot": "0",
            "type": "t_int224"
          },
          {
            "astId": 4849,
            "contract": "contracts/dapis/DapiServer.sol:DapiServer",
            "label": "timestamp",
            "offset": 28,
            "slot": "0",
            "type": "t_uint32"
          }
        ],
        "numberOfBytes": "32"
      },
      "t_uint256": {
        "encoding": "inplace",
        "label": "uint256",
        "numberOfBytes": "32"
      },
      "t_uint32": {
        "encoding": "inplace",
        "label": "uint32",
        "numberOfBytes": "4"
      }
    }
  }
}