{
  "address": "0x045808285C69014Beb9f70447155A4c55376fc06",
  "abi": [
    {
      "inputs": [
        {
          "internalType": "address",
          "name": "_accessControlRegistry",
          "type": "address"
        },
        {
          "internalType": "string",
          "name": "_adminRoleDescription",
          "type": "string"
        },
        {
          "internalType": "address",
          "name": "_manager",
          "type": "address"
        }
      ],
      "stateMutability": "nonpayable",
      "type": "constructor"
    },
    {
      "anonymous": false,
      "inputs": [
        {
          "indexed": true,
          "internalType": "bytes32",
          "name": "orderId",
          "type": "bytes32"
        },
        {
          "indexed": false,
          "internalType": "uint256",
          "name": "expirationTimestamp",
          "type": "uint256"
        },
        {
          "indexed": false,
          "internalType": "address",
          "name": "orderSigner",
          "type": "address"
        },
        {
          "indexed": false,
          "internalType": "uint256",
          "name": "amount",
          "type": "uint256"
        },
        {
          "indexed": false,
          "internalType": "address",
          "name": "sender",
          "type": "address"
        }
      ],
      "name": "PaidForOrder",
      "type": "event"
    },
    {
      "anonymous": false,
      "inputs": [
        {
          "indexed": false,
          "internalType": "address",
          "name": "recipient",
          "type": "address"
        },
        {
          "indexed": false,
          "internalType": "uint256",
          "name": "amount",
          "type": "uint256"
        }
      ],
      "name": "Withdrew",
      "type": "event"
    },
    {
      "inputs": [],
      "name": "ORDER_SIGNER_ROLE_DESCRIPTION",
      "outputs": [
        {
          "internalType": "string",
          "name": "",
          "type": "string"
        }
      ],
      "stateMutability": "view",
      "type": "function"
    },
    {
      "inputs": [],
      "name": "WITHDRAWER_ROLE_DESCRIPTION",
      "outputs": [
        {
          "internalType": "string",
          "name": "",
          "type": "string"
        }
      ],
      "stateMutability": "view",
      "type": "function"
    },
    {
      "inputs": [],
      "name": "accessControlRegistry",
      "outputs": [
        {
          "internalType": "address",
          "name": "",
          "type": "address"
        }
      ],
      "stateMutability": "view",
      "type": "function"
    },
    {
      "inputs": [],
      "name": "adminRole",
      "outputs": [
        {
          "internalType": "bytes32",
          "name": "",
          "type": "bytes32"
        }
      ],
      "stateMutability": "view",
      "type": "function"
    },
    {
      "inputs": [],
      "name": "adminRoleDescription",
      "outputs": [
        {
          "internalType": "string",
          "name": "",
          "type": "string"
        }
      ],
      "stateMutability": "view",
      "type": "function"
    },
    {
      "inputs": [],
      "name": "manager",
      "outputs": [
        {
          "internalType": "address",
          "name": "",
          "type": "address"
        }
      ],
      "stateMutability": "view",
      "type": "function"
    },
    {
      "inputs": [
        {
          "internalType": "bytes[]",
          "name": "data",
          "type": "bytes[]"
        }
      ],
      "name": "multicall",
      "outputs": [
        {
          "internalType": "bytes[]",
          "name": "returndata",
          "type": "bytes[]"
        }
      ],
      "stateMutability": "nonpayable",
      "type": "function"
    },
    {
      "inputs": [
        {
          "internalType": "bytes32",
          "name": "",
          "type": "bytes32"
        }
      ],
      "name": "orderIdToPaymentStatus",
      "outputs": [
        {
          "internalType": "bool",
          "name": "",
          "type": "bool"
        }
      ],
      "stateMutability": "view",
      "type": "function"
    },
    {
      "inputs": [],
      "name": "orderSignerRole",
      "outputs": [
        {
          "internalType": "bytes32",
          "name": "",
          "type": "bytes32"
        }
      ],
      "stateMutability": "view",
      "type": "function"
    },
    {
      "inputs": [
        {
          "internalType": "bytes",
          "name": "encodedData",
          "type": "bytes"
        }
      ],
      "name": "payForOrder",
      "outputs": [],
      "stateMutability": "payable",
      "type": "function"
    },
    {
      "inputs": [
        {
          "internalType": "bytes[]",
          "name": "data",
          "type": "bytes[]"
        }
      ],
      "name": "tryMulticall",
      "outputs": [
        {
          "internalType": "bool[]",
          "name": "successes",
          "type": "bool[]"
        },
        {
          "internalType": "bytes[]",
          "name": "returndata",
          "type": "bytes[]"
        }
      ],
      "stateMutability": "nonpayable",
      "type": "function"
    },
    {
      "inputs": [
        {
          "internalType": "address",
          "name": "recipient",
          "type": "address"
        }
      ],
      "name": "withdraw",
      "outputs": [
        {
          "internalType": "uint256",
          "name": "amount",
          "type": "uint256"
        }
      ],
      "stateMutability": "nonpayable",
      "type": "function"
    },
    {
      "inputs": [],
      "name": "withdrawerRole",
      "outputs": [
        {
          "internalType": "bytes32",
          "name": "",
          "type": "bytes32"
        }
      ],
      "stateMutability": "view",
      "type": "function"
    }
  ],
  "transactionHash": "0x935d95172b6e1753c48802d38c903e2a951ffb0bd0b94d8d8c26e0fde6bdfd73",
  "args": [
    "0x12D82f38a038A71b0843BD3256CD1E0A1De74834",
    "OrderPayable admin (API3 Market)",
    "0x81bc85f329cDB28936FbB239f734AE495121F9A6"
  ],
  "numDeployments": 1,
  "solcInputHash": "7b3ef0c12daee397e3302a6b87af04a0",
  "bytecode": "0x6101406040523480156200001257600080fd5b5060405162001a5338038062001a53833981016040819052620000359162000368565b82828282826001600160a01b038216620000895760405162461bcd60e51b815260206004820152601060248201526f4143522061646472657373207a65726f60801b60448201526064015b60405180910390fd5b6000815111620000dc5760405162461bcd60e51b815260206004820152601c60248201527f41646d696e20726f6c65206465736372697074696f6e20656d70747900000000604482015260640162000080565b6001600160a01b0382166080526000620000f78282620004d7565b50806040516020016200010b9190620005a3565b60408051601f19818403018152919052805160209091012060a05250506001600160a01b038116620001805760405162461bcd60e51b815260206004820152601460248201527f4d616e616765722061646472657373207a65726f000000000000000000000000604482015260640162000080565b6001600160a01b03811660c052620001988162000226565b60e052505060c051620001da9150620001b19062000226565b60408051808201909152600c81526b27b93232b91039b4b3b732b960a11b6020820152620002a0565b6101005260c0516200021890620001f19062000226565b60408051808201909152600a8152692bb4ba34323930bbb2b960b11b6020820152620002a0565b6101205250620005c1915050565b60006200029a6200026b836040516001600160601b0319606083901b166020820152600090603401604051602081830303815290604052805190602001209050919050565b60a051604080516020808201949094528082019290925280518083038201815260609092019052805191012090565b92915050565b6000620002dc8383604051602001620002ba9190620005a3565b60405160208183030381529060405280519060200120620002e360201b60201c565b9392505050565b604080516020808201949094528082019290925280518083038201815260609092019052805191012090565b80516001600160a01b03811681146200032757600080fd5b919050565b634e487b7160e01b600052604160045260246000fd5b60005b838110156200035f57818101518382015260200162000345565b50506000910152565b6000806000606084860312156200037e57600080fd5b62000389846200030f565b60208501519093506001600160401b0380821115620003a757600080fd5b818601915086601f830112620003bc57600080fd5b815181811115620003d157620003d16200032c565b604051601f8201601f19908116603f01168101908382118183101715620003fc57620003fc6200032c565b816040528281528960208487010111156200041657600080fd5b6200042983602083016020880162000342565b80965050505050506200043f604085016200030f565b90509250925092565b600181811c908216806200045d57607f821691505b6020821081036200047e57634e487b7160e01b600052602260045260246000fd5b50919050565b601f821115620004d257600081815260208120601f850160051c81016020861015620004ad5750805b601f850160051c820191505b81811015620004ce57828155600101620004b9565b5050505b505050565b81516001600160401b03811115620004f357620004f36200032c565b6200050b8162000504845462000448565b8462000484565b602080601f8311600181146200054357600084156200052a5750858301515b600019600386901b1c1916600185901b178555620004ce565b600085815260208120601f198616915b82811015620005745788860151825594840194600190910190840162000553565b5085821015620005935787850151600019600388901b60f8161c191681555b5050505050600190811b01905550565b60008251620005b781846020870162000342565b9190910192915050565b60805160a05160c05160e051610100516101205161141c620006376000396000818161031e01526105c0015260008181610274015261089f0152600060e80152600081816101e90152818161058a01526108570152600050506000818161016f015281816105ec01526108d5015261141c6000f3fe6080604052600436106100d15760003560e01c806351cff8d91161007f578063a6c2b00b11610059578063a6c2b00b14610296578063ac9650d8146102df578063e8597c371461030c578063f1939bd01461034057600080fd5b806351cff8d91461022d5780639407d9481461024d578063a0205fd51461026257600080fd5b8063437b9116116100b0578063437b9116146101a9578063481c6a75146101d75780634c8f1d8d1461020b57600080fd5b80629f2f3c146100d65780630b383b351461011d5780631ce9ae071461015d575b600080fd5b3480156100e257600080fd5b5061010a7f000000000000000000000000000000000000000000000000000000000000000081565b6040519081526020015b60405180910390f35b34801561012957600080fd5b5061014d610138366004610fdc565b60016020526000908152604090205460ff1681565b6040519015158152602001610114565b34801561016957600080fd5b506101917f000000000000000000000000000000000000000000000000000000000000000081565b6040516001600160a01b039091168152602001610114565b3480156101b557600080fd5b506101c96101c4366004610ff5565b610389565b604051610114929190611108565b3480156101e357600080fd5b506101917f000000000000000000000000000000000000000000000000000000000000000081565b34801561021757600080fd5b506102206104ef565b6040516101149190611161565b34801561023957600080fd5b5061010a610248366004611190565b61057d565b61026061025b3660046111ad565b61079e565b005b34801561026e57600080fd5b5061010a7f000000000000000000000000000000000000000000000000000000000000000081565b3480156102a257600080fd5b506102206040518060400160405280600c81526020017f4f72646572207369676e6572000000000000000000000000000000000000000081525081565b3480156102eb57600080fd5b506102ff6102fa366004610ff5565b610bc6565b604051610114919061120d565b34801561031857600080fd5b5061010a7f000000000000000000000000000000000000000000000000000000000000000081565b34801561034c57600080fd5b506102206040518060400160405280600a81526020017f576974686472617765720000000000000000000000000000000000000000000081525081565b606080828067ffffffffffffffff8111156103a6576103a6611220565b6040519080825280602002602001820160405280156103cf578160200160208202803683370190505b5092508067ffffffffffffffff8111156103eb576103eb611220565b60405190808252806020026020018201604052801561041e57816020015b60608152602001906001900390816104095790505b50915060005b818110156104e6573086868381811061043f5761043f611236565b9050602002810190610451919061124c565b60405161045f929190611293565b600060405180830381855af49150503d806000811461049a576040519150601f19603f3d011682016040523d82523d6000602084013e61049f565b606091505b508583815181106104b2576104b2611236565b602002602001018584815181106104cb576104cb611236565b60209081029190910101919091529015159052600101610424565b50509250929050565b600080546104fc906112a3565b80601f0160208091040260200160405190810160405280929190818152602001828054610528906112a3565b80156105755780601f1061054a57610100808354040283529160200191610575565b820191906000526020600020905b81548152906001019060200180831161055857829003601f168201915b505050505081565b6000336001600160a01b037f000000000000000000000000000000000000000000000000000000000000000016148061065f5750604051632474521560e21b81527f000000000000000000000000000000000000000000000000000000000000000060048201523360248201527f00000000000000000000000000000000000000000000000000000000000000006001600160a01b0316906391d1485490604401602060405180830381865afa15801561063b573d6000803e3d6000fd5b505050506040513d601f19601f8201168201806040525081019061065f91906112d7565b6106b05760405162461bcd60e51b815260206004820152601660248201527f53656e6465722063616e6e6f742077697468647261770000000000000000000060448201526064015b60405180910390fd5b50604080516001600160a01b03831681524760208201819052917fb244b9a17ad633c6e83b7983ee04320484956a68ddbe96a0b70dfca1cf19d723910160405180910390a16000826001600160a01b03168260405160006040518083038185875af1925050503d8060008114610742576040519150601f19603f3d011682016040523d82523d6000602084013e610747565b606091505b50509050806107985760405162461bcd60e51b815260206004820152601560248201527f5472616e7366657220756e7375636365737366756c000000000000000000000060448201526064016106a7565b50919050565b60008080806107af858701876112f9565b92965090945092509050836108065760405162461bcd60e51b815260206004820152600d60248201527f4f72646572204944207a65726f0000000000000000000000000000000000000060448201526064016106a7565b4283116108555760405162461bcd60e51b815260206004820152600d60248201527f4f7264657220657870697265640000000000000000000000000000000000000060448201526064016106a7565b7f00000000000000000000000000000000000000000000000000000000000000006001600160a01b0316826001600160a01b031614806109405750604051632474521560e21b81527f000000000000000000000000000000000000000000000000000000000000000060048201526001600160a01b0383811660248301527f000000000000000000000000000000000000000000000000000000000000000016906391d1485490604401602060405180830381865afa15801561091c573d6000803e3d6000fd5b505050506040513d601f19601f8201168201806040525081019061094091906112d7565b61098c5760405162461bcd60e51b815260206004820152601460248201527f496e76616c6964206f72646572207369676e657200000000000000000000000060448201526064016106a7565b600034116109dc5760405162461bcd60e51b815260206004820152601360248201527f5061796d656e7420616d6f756e74207a65726f0000000000000000000000000060448201526064016106a7565b60008481526001602052604090205460ff1615610a3b5760405162461bcd60e51b815260206004820152601660248201527f4f7264657220616c7265616479207061696420666f720000000000000000000060448201526064016106a7565b604080514660208201526bffffffffffffffffffffffff193060601b169181019190915260548101859052607481018490523460948201526001600160a01b03831690610afa908390610af49060b401604051602081830303815290604052805190602001206040517f19457468657265756d205369676e6564204d6573736167653a0a3332000000006020820152603c8101829052600090605c01604051602081830303815290604052805190602001209050919050565b90610d47565b6001600160a01b031614610b505760405162461bcd60e51b815260206004820152601260248201527f5369676e6174757265206d69736d61746368000000000000000000000000000060448201526064016106a7565b600084815260016020818152604092839020805460ff191690921790915581518581526001600160a01b038516918101919091523481830152336060820152905185917fcea2cefca5c9f04181778e454977dc18ae35a22f8bb78043f2edb63a0adf4e9f919081900360800190a2505050505050565b6060818067ffffffffffffffff811115610be257610be2611220565b604051908082528060200260200182016040528015610c1557816020015b6060815260200190600190039081610c005790505b50915060005b81811015610d3f57600030868684818110610c3857610c38611236565b9050602002810190610c4a919061124c565b604051610c58929190611293565b600060405180830381855af49150503d8060008114610c93576040519150601f19603f3d011682016040523d82523d6000602084013e610c98565b606091505b50858481518110610cab57610cab611236565b6020908102919091010152905080610d36576000848381518110610cd157610cd1611236565b60200260200101519050600081511115610cee5780518082602001fd5b60405162461bcd60e51b815260206004820152601b60248201527f4d756c746963616c6c3a204e6f2072657665727420737472696e67000000000060448201526064016106a7565b50600101610c1b565b505092915050565b6000806000610d568585610d6b565b91509150610d6381610db0565b509392505050565b6000808251604103610da15760208301516040840151606085015160001a610d9587828585610f18565b94509450505050610da9565b506000905060025b9250929050565b6000816004811115610dc457610dc46113d0565b03610dcc5750565b6001816004811115610de057610de06113d0565b03610e2d5760405162461bcd60e51b815260206004820152601860248201527f45434453413a20696e76616c6964207369676e6174757265000000000000000060448201526064016106a7565b6002816004811115610e4157610e416113d0565b03610e8e5760405162461bcd60e51b815260206004820152601f60248201527f45434453413a20696e76616c6964207369676e6174757265206c656e6774680060448201526064016106a7565b6003816004811115610ea257610ea26113d0565b03610f155760405162461bcd60e51b815260206004820152602260248201527f45434453413a20696e76616c6964207369676e6174757265202773272076616c60448201527f756500000000000000000000000000000000000000000000000000000000000060648201526084016106a7565b50565b6000807f7fffffffffffffffffffffffffffffff5d576e7357a4501ddfe92f46681b20a0831115610f4f5750600090506003610fd3565b6040805160008082526020820180845289905260ff881692820192909252606081018690526080810185905260019060a0016020604051602081039080840390855afa158015610fa3573d6000803e3d6000fd5b5050604051601f1901519150506001600160a01b038116610fcc57600060019250925050610fd3565b9150600090505b94509492505050565b600060208284031215610fee57600080fd5b5035919050565b6000806020838503121561100857600080fd5b823567ffffffffffffffff8082111561102057600080fd5b818501915085601f83011261103457600080fd5b81358181111561104357600080fd5b8660208260051b850101111561105857600080fd5b60209290920196919550909350505050565b6000815180845260005b8181101561109057602081850181015186830182015201611074565b506000602082860101526020601f19601f83011685010191505092915050565b600082825180855260208086019550808260051b84010181860160005b848110156110fb57601f198684030189526110e983835161106a565b988401989250908301906001016110cd565b5090979650505050505050565b604080825283519082018190526000906020906060840190828701845b82811015611143578151151584529284019290840190600101611125565b5050508381038285015261115781866110b0565b9695505050505050565b602081526000611174602083018461106a565b9392505050565b6001600160a01b0381168114610f1557600080fd5b6000602082840312156111a257600080fd5b81356111748161117b565b600080602083850312156111c057600080fd5b823567ffffffffffffffff808211156111d857600080fd5b818501915085601f8301126111ec57600080fd5b8135818111156111fb57600080fd5b86602082850101111561105857600080fd5b60208152600061117460208301846110b0565b634e487b7160e01b600052604160045260246000fd5b634e487b7160e01b600052603260045260246000fd5b6000808335601e1984360301811261126357600080fd5b83018035915067ffffffffffffffff82111561127e57600080fd5b602001915036819003821315610da957600080fd5b8183823760009101908152919050565b600181811c908216806112b757607f821691505b60208210810361079857634e487b7160e01b600052602260045260246000fd5b6000602082840312156112e957600080fd5b8151801515811461117457600080fd5b6000806000806080858703121561130f57600080fd5b843593506020850135925060408501356113288161117b565b9150606085013567ffffffffffffffff8082111561134557600080fd5b818701915087601f83011261135957600080fd5b81358181111561136b5761136b611220565b604051601f8201601f19908116603f0116810190838211818310171561139357611393611220565b816040528281528a60208487010111156113ac57600080fd5b82602086016020830137600060208483010152809550505050505092959194509250565b634e487b7160e01b600052602160045260246000fdfea2646970667358221220b3199208d7354710eefbda29ef8ddce5e6645e9390e08fb915980ff9fd4b554c64736f6c63430008110033",
  "devdoc": {
    "kind": "dev",
    "methods": {
      "constructor": {
        "params": {
          "_accessControlRegistry": "AccessControlRegistry contract address",
          "_adminRoleDescription": "Admin role description",
          "_manager": "Manager address"
        }
      },
      "multicall(bytes[])": {
        "params": {
          "data": "Array of calldata of batched calls"
        },
        "returns": {
          "returndata": "Array of returndata of batched calls"
        }
      },
      "payForOrder(bytes)": {
        "details": "The sender must set `msg.value` to cover the exact amount specified by the order. Input arguments are provided in encoded form to improve the UX for using ABI-based, automatically generated contract GUIs such as ones from Safe and Etherscan. Given that OrderPayable is verified, the user is only required to provide the OrderPayable address, select `payForOrder()`, copy-paste `encodedData` (instead of 4 separate fields) and enter `msg.value`.",
        "params": {
          "encodedData": "The order ID, expiration timestamp, order signer address and signature in ABI-encoded form"
        }
      },
      "tryMulticall(bytes[])": {
        "params": {
          "data": "Array of calldata of batched calls"
        },
        "returns": {
          "returndata": "Array of returndata of batched calls",
          "successes": "Array of success conditions of batched calls"
        }
      },
      "withdraw(address)": {
        "params": {
          "recipient": "Recipient address"
        },
        "returns": {
          "amount": "Withdrawal amount"
        }
      }
    },
    "title": "Contract used to pay for orders denoted in the native currency",
    "version": 1
  },
  "userdoc": {
    "kind": "user",
    "methods": {
      "ORDER_SIGNER_ROLE_DESCRIPTION()": {
        "notice": "Order signer role description"
      },
      "WITHDRAWER_ROLE_DESCRIPTION()": {
        "notice": "Withdrawer role description"
      },
      "accessControlRegistry()": {
        "notice": "AccessControlRegistry contract address"
      },
      "adminRole()": {
        "notice": "Admin role"
      },
      "adminRoleDescription()": {
        "notice": "Admin role description"
      },
      "manager()": {
        "notice": "Address of the manager that manages the related AccessControlRegistry roles"
      },
      "multicall(bytes[])": {
        "notice": "Batches calls to the inheriting contract and reverts as soon as one of the batched calls reverts"
      },
      "orderIdToPaymentStatus(bytes32)": {
        "notice": "Returns if the order with ID is paid for"
      },
      "orderSignerRole()": {
        "notice": "Order signer role"
      },
      "payForOrder(bytes)": {
        "notice": "Called with value to pay for an order"
      },
      "tryMulticall(bytes[])": {
        "notice": "Batches calls to the inheriting contract but does not revert if any of the batched calls reverts"
      },
      "withdraw(address)": {
        "notice": "Called by a withdrawer to withdraw the entire balance of OrderPayable to `recipient`"
      },
      "withdrawerRole()": {
        "notice": "Withdrawer role"
      }
    },
    "notice": "OrderPayable is managed by an account that designates order signers and withdrawers. Only orders for which a signature is issued for by an order signer can be paid for. Order signers have to be EOAs to be able to issue ERC191 signatures. The manager is responsible with reverting unwanted signatures (for example, if a compromised order signer issues an underpriced order and the order is paid for, the manager should revoke the role, refund the payment and consider the order void). Withdrawers can be EOAs or contracts. For example, one can implement a withdrawer contract that withdraws funds automatically to a Funder contract.",
    "version": 1
  },
  "storageLayout": {
    "storage": [
      {
        "astId": 6427,
        "contract": "contracts/utils/OrderPayable.sol:OrderPayable",
        "label": "adminRoleDescription",
        "offset": 0,
        "slot": "0",
        "type": "t_string_storage"
      },
      {
        "astId": 17707,
        "contract": "contracts/utils/OrderPayable.sol:OrderPayable",
        "label": "orderIdToPaymentStatus",
        "offset": 0,
        "slot": "1",
        "type": "t_mapping(t_bytes32,t_bool)"
      }
    ],
    "types": {
      "t_bool": {
        "encoding": "inplace",
        "label": "bool",
        "numberOfBytes": "1"
      },
      "t_bytes32": {
        "encoding": "inplace",
        "label": "bytes32",
        "numberOfBytes": "32"
      },
      "t_mapping(t_bytes32,t_bool)": {
        "encoding": "mapping",
        "key": "t_bytes32",
        "label": "mapping(bytes32 => bool)",
        "numberOfBytes": "32",
        "value": "t_bool"
      },
      "t_string_storage": {
        "encoding": "bytes",
        "label": "string",
        "numberOfBytes": "32"
      }
    }
  }
}