{
  "address": "0x73FF8cdEeA2770BA2B8bA1FD000090A7dd598F0b",
  "abi": [
    {
      "anonymous": false,
      "inputs": [
        {
          "indexed": true,
          "internalType": "address",
          "name": "sponsor",
          "type": "address"
        },
        {
          "indexed": false,
          "internalType": "uint256",
          "name": "amount",
          "type": "uint256"
        }
      ],
      "name": "ClaimedBalance",
      "type": "event"
    },
    {
      "anonymous": false,
      "inputs": [
        {
          "indexed": true,
          "internalType": "address",
          "name": "airnode",
          "type": "address"
        },
        {
          "indexed": true,
          "internalType": "bytes32",
          "name": "requestId",
          "type": "bytes32"
        },
        {
          "indexed": false,
          "internalType": "uint256",
          "name": "timestamp",
          "type": "uint256"
        },
        {
          "indexed": false,
          "internalType": "string",
          "name": "errorMessage",
          "type": "string"
        }
      ],
      "name": "FailedRequest",
      "type": "event"
    },
    {
      "anonymous": false,
      "inputs": [
        {
          "indexed": true,
          "internalType": "address",
          "name": "relayer",
          "type": "address"
        },
        {
          "indexed": true,
          "internalType": "bytes32",
          "name": "requestId",
          "type": "bytes32"
        },
        {
          "indexed": true,
          "internalType": "address",
          "name": "airnode",
          "type": "address"
        },
        {
          "indexed": false,
          "internalType": "uint256",
          "name": "timestamp",
          "type": "uint256"
        },
        {
          "indexed": false,
          "internalType": "string",
          "name": "errorMessage",
          "type": "string"
        }
      ],
      "name": "FailedRequestRelayed",
      "type": "event"
    },
    {
      "anonymous": false,
      "inputs": [
        {
          "indexed": true,
          "internalType": "address",
          "name": "airnode",
          "type": "address"
        },
        {
          "indexed": true,
          "internalType": "bytes32",
          "name": "requestId",
          "type": "bytes32"
        },
        {
          "indexed": false,
          "internalType": "uint256",
          "name": "timestamp",
          "type": "uint256"
        },
        {
          "indexed": false,
          "internalType": "bytes",
          "name": "data",
          "type": "bytes"
        }
      ],
      "name": "FulfilledRequest",
      "type": "event"
    },
    {
      "anonymous": false,
      "inputs": [
        {
          "indexed": true,
          "internalType": "address",
          "name": "relayer",
          "type": "address"
        },
        {
          "indexed": true,
          "internalType": "bytes32",
          "name": "requestId",
          "type": "bytes32"
        },
        {
          "indexed": true,
          "internalType": "address",
          "name": "airnode",
          "type": "address"
        },
        {
          "indexed": false,
          "internalType": "uint256",
          "name": "timestamp",
          "type": "uint256"
        },
        {
          "indexed": false,
          "internalType": "bytes",
          "name": "data",
          "type": "bytes"
        }
      ],
      "name": "FulfilledRequestRelayed",
      "type": "event"
    },
    {
      "anonymous": false,
      "inputs": [
        {
          "indexed": true,
          "internalType": "address",
          "name": "airnodeOrRelayer",
          "type": "address"
        },
        {
          "indexed": true,
          "internalType": "address",
          "name": "sponsor",
          "type": "address"
        },
        {
          "indexed": true,
          "internalType": "bytes32",
          "name": "withdrawalRequestId",
          "type": "bytes32"
        },
        {
          "indexed": false,
          "internalType": "uint256",
          "name": "protocolId",
          "type": "uint256"
        },
        {
          "indexed": false,
          "internalType": "address",
          "name": "sponsorWallet",
          "type": "address"
        },
        {
          "indexed": false,
          "internalType": "uint256",
          "name": "amount",
          "type": "uint256"
        }
      ],
      "name": "FulfilledWithdrawal",
      "type": "event"
    },
    {
      "anonymous": false,
      "inputs": [
        {
          "indexed": true,
          "internalType": "address",
          "name": "airnode",
          "type": "address"
        },
        {
          "indexed": true,
          "internalType": "bytes32",
          "name": "requestId",
          "type": "bytes32"
        },
        {
          "indexed": false,
          "internalType": "address",
          "name": "requester",
          "type": "address"
        },
        {
          "indexed": false,
          "internalType": "uint256",
          "name": "requesterRequestCount",
          "type": "uint256"
        },
        {
          "indexed": false,
          "internalType": "bytes32",
          "name": "templateId",
          "type": "bytes32"
        },
        {
          "indexed": false,
          "internalType": "bytes",
          "name": "parameters",
          "type": "bytes"
        },
        {
          "indexed": false,
          "internalType": "address",
          "name": "sponsor",
          "type": "address"
        },
        {
          "indexed": false,
          "internalType": "bytes4",
          "name": "fulfillFunctionId",
          "type": "bytes4"
        }
      ],
      "name": "MadeRequest",
      "type": "event"
    },
    {
      "anonymous": false,
      "inputs": [
        {
          "indexed": true,
          "internalType": "address",
          "name": "relayer",
          "type": "address"
        },
        {
          "indexed": true,
          "internalType": "bytes32",
          "name": "requestId",
          "type": "bytes32"
        },
        {
          "indexed": true,
          "internalType": "address",
          "name": "airnode",
          "type": "address"
        },
        {
          "indexed": false,
          "internalType": "address",
          "name": "requester",
          "type": "address"
        },
        {
          "indexed": false,
          "internalType": "uint256",
          "name": "requesterRequestCount",
          "type": "uint256"
        },
        {
          "indexed": false,
          "internalType": "bytes32",
          "name": "templateId",
          "type": "bytes32"
        },
        {
          "indexed": false,
          "internalType": "bytes",
          "name": "parameters",
          "type": "bytes"
        },
        {
          "indexed": false,
          "internalType": "address",
          "name": "sponsor",
          "type": "address"
        },
        {
          "indexed": false,
          "internalType": "bytes4",
          "name": "fulfillFunctionId",
          "type": "bytes4"
        }
      ],
      "name": "MadeRequestRelayed",
      "type": "event"
    },
    {
      "anonymous": false,
      "inputs": [
        {
          "indexed": true,
          "internalType": "address",
          "name": "airnodeOrRelayer",
          "type": "address"
        },
        {
          "indexed": true,
          "internalType": "address",
          "name": "sponsor",
          "type": "address"
        },
        {
          "indexed": true,
          "internalType": "bytes32",
          "name": "withdrawalRequestId",
          "type": "bytes32"
        },
        {
          "indexed": false,
          "internalType": "uint256",
          "name": "protocolId",
          "type": "uint256"
        }
      ],
      "name": "RequestedWithdrawal",
      "type": "event"
    },
    {
      "anonymous": false,
      "inputs": [
        {
          "indexed": true,
          "internalType": "address",
          "name": "sponsor",
          "type": "address"
        },
        {
          "indexed": true,
          "internalType": "bytes32",
          "name": "subscriptionId",
          "type": "bytes32"
        },
        {
          "indexed": false,
          "internalType": "bool",
          "name": "status",
          "type": "bool"
        }
      ],
      "name": "SetPspSponsorshipStatus",
      "type": "event"
    },
    {
      "anonymous": false,
      "inputs": [
        {
          "indexed": true,
          "internalType": "address",
          "name": "sponsor",
          "type": "address"
        },
        {
          "indexed": true,
          "internalType": "address",
          "name": "requester",
          "type": "address"
        },
        {
          "indexed": false,
          "internalType": "bool",
          "name": "status",
          "type": "bool"
        }
      ],
      "name": "SetRrpSponsorshipStatus",
      "type": "event"
    },
    {
      "anonymous": false,
      "inputs": [
        {
          "indexed": true,
          "internalType": "bytes32",
          "name": "subscriptionId",
          "type": "bytes32"
        },
        {
          "indexed": false,
          "internalType": "uint256",
          "name": "chainId",
          "type": "uint256"
        },
        {
          "indexed": false,
          "internalType": "address",
          "name": "airnode",
          "type": "address"
        },
        {
          "indexed": false,
          "internalType": "bytes32",
          "name": "templateId",
          "type": "bytes32"
        },
        {
          "indexed": false,
          "internalType": "bytes",
          "name": "parameters",
          "type": "bytes"
        },
        {
          "indexed": false,
          "internalType": "bytes",
          "name": "conditions",
          "type": "bytes"
        },
        {
          "indexed": false,
          "internalType": "address",
          "name": "relayer",
          "type": "address"
        },
        {
          "indexed": false,
          "internalType": "address",
          "name": "sponsor",
          "type": "address"
        },
        {
          "indexed": false,
          "internalType": "address",
          "name": "requester",
          "type": "address"
        },
        {
          "indexed": false,
          "internalType": "bytes4",
          "name": "fulfillFunctionId",
          "type": "bytes4"
        }
      ],
      "name": "StoredSubscription",
      "type": "event"
    },
    {
      "anonymous": false,
      "inputs": [
        {
          "indexed": true,
          "internalType": "bytes32",
          "name": "templateId",
          "type": "bytes32"
        },
        {
          "indexed": false,
          "internalType": "bytes32",
          "name": "endpointId",
          "type": "bytes32"
        },
        {
          "indexed": false,
          "internalType": "bytes",
          "name": "parameters",
          "type": "bytes"
        }
      ],
      "name": "StoredTemplate",
      "type": "event"
    },
    {
      "inputs": [],
      "name": "MAXIMUM_PARAMETER_LENGTH",
      "outputs": [
        {
          "internalType": "uint256",
          "name": "",
          "type": "uint256"
        }
      ],
      "stateMutability": "view",
      "type": "function"
    },
    {
      "inputs": [],
      "name": "claimBalance",
      "outputs": [],
      "stateMutability": "nonpayable",
      "type": "function"
    },
    {
      "inputs": [
        {
          "internalType": "bytes32",
          "name": "requestId",
          "type": "bytes32"
        },
        {
          "internalType": "address",
          "name": "airnode",
          "type": "address"
        },
        {
          "internalType": "address",
          "name": "requester",
          "type": "address"
        },
        {
          "internalType": "bytes4",
          "name": "fulfillFunctionId",
          "type": "bytes4"
        },
        {
          "internalType": "uint256",
          "name": "timestamp",
          "type": "uint256"
        },
        {
          "internalType": "string",
          "name": "errorMessage",
          "type": "string"
        },
        {
          "internalType": "bytes",
          "name": "signature",
          "type": "bytes"
        }
      ],
      "name": "failRequest",
      "outputs": [],
      "stateMutability": "nonpayable",
      "type": "function"
    },
    {
      "inputs": [
        {
          "internalType": "bytes32",
          "name": "requestId",
          "type": "bytes32"
        },
        {
          "internalType": "address",
          "name": "airnode",
          "type": "address"
        },
        {
          "internalType": "address",
          "name": "requester",
          "type": "address"
        },
        {
          "internalType": "address",
          "name": "relayer",
          "type": "address"
        },
        {
          "internalType": "bytes4",
          "name": "fulfillFunctionId",
          "type": "bytes4"
        },
        {
          "internalType": "uint256",
          "name": "timestamp",
          "type": "uint256"
        },
        {
          "internalType": "string",
          "name": "errorMessage",
          "type": "string"
        },
        {
          "internalType": "bytes",
          "name": "signature",
          "type": "bytes"
        }
      ],
      "name": "failRequestRelayed",
      "outputs": [],
      "stateMutability": "nonpayable",
      "type": "function"
    },
    {
      "inputs": [
        {
          "internalType": "bytes32",
          "name": "requestId",
          "type": "bytes32"
        },
        {
          "internalType": "address",
          "name": "airnode",
          "type": "address"
        },
        {
          "internalType": "address",
          "name": "requester",
          "type": "address"
        },
        {
          "internalType": "bytes4",
          "name": "fulfillFunctionId",
          "type": "bytes4"
        },
        {
          "internalType": "uint256",
          "name": "timestamp",
          "type": "uint256"
        },
        {
          "internalType": "bytes",
          "name": "data",
          "type": "bytes"
        },
        {
          "internalType": "bytes",
          "name": "signature",
          "type": "bytes"
        }
      ],
      "name": "fulfillRequest",
      "outputs": [
        {
          "internalType": "bool",
          "name": "callSuccess",
          "type": "bool"
        },
        {
          "internalType": "bytes",
          "name": "callData",
          "type": "bytes"
        }
      ],
      "stateMutability": "nonpayable",
      "type": "function"
    },
    {
      "inputs": [
        {
          "internalType": "bytes32",
          "name": "requestId",
          "type": "bytes32"
        },
        {
          "internalType": "address",
          "name": "airnode",
          "type": "address"
        },
        {
          "internalType": "address",
          "name": "requester",
          "type": "address"
        },
        {
          "internalType": "address",
          "name": "relayer",
          "type": "address"
        },
        {
          "internalType": "bytes4",
          "name": "fulfillFunctionId",
          "type": "bytes4"
        },
        {
          "internalType": "uint256",
          "name": "timestamp",
          "type": "uint256"
        },
        {
          "internalType": "bytes",
          "name": "data",
          "type": "bytes"
        },
        {
          "internalType": "bytes",
          "name": "signature",
          "type": "bytes"
        }
      ],
      "name": "fulfillRequestRelayed",
      "outputs": [
        {
          "internalType": "bool",
          "name": "callSuccess",
          "type": "bool"
        },
        {
          "internalType": "bytes",
          "name": "callData",
          "type": "bytes"
        }
      ],
      "stateMutability": "nonpayable",
      "type": "function"
    },
    {
      "inputs": [
        {
          "internalType": "bytes32",
          "name": "withdrawalRequestId",
          "type": "bytes32"
        },
        {
          "internalType": "address",
          "name": "airnodeOrRelayer",
          "type": "address"
        },
        {
          "internalType": "uint256",
          "name": "protocolId",
          "type": "uint256"
        },
        {
          "internalType": "address",
          "name": "sponsor",
          "type": "address"
        },
        {
          "internalType": "uint256",
          "name": "timestamp",
          "type": "uint256"
        },
        {
          "internalType": "bytes",
          "name": "signature",
          "type": "bytes"
        }
      ],
      "name": "fulfillWithdrawal",
      "outputs": [],
      "stateMutability": "payable",
      "type": "function"
    },
    {
      "inputs": [
        {
          "internalType": "address",
          "name": "account",
          "type": "address"
        }
      ],
      "name": "getBalance",
      "outputs": [
        {
          "internalType": "uint256",
          "name": "",
          "type": "uint256"
        }
      ],
      "stateMutability": "view",
      "type": "function"
    },
    {
      "inputs": [],
      "name": "getBlockBasefee",
      "outputs": [
        {
          "internalType": "uint256",
          "name": "",
          "type": "uint256"
        }
      ],
      "stateMutability": "view",
      "type": "function"
    },
    {
      "inputs": [],
      "name": "getBlockNumber",
      "outputs": [
        {
          "internalType": "uint256",
          "name": "",
          "type": "uint256"
        }
      ],
      "stateMutability": "view",
      "type": "function"
    },
    {
      "inputs": [],
      "name": "getBlockTimestamp",
      "outputs": [
        {
          "internalType": "uint256",
          "name": "",
          "type": "uint256"
        }
      ],
      "stateMutability": "view",
      "type": "function"
    },
    {
      "inputs": [],
      "name": "getChainId",
      "outputs": [
        {
          "internalType": "uint256",
          "name": "",
          "type": "uint256"
        }
      ],
      "stateMutability": "view",
      "type": "function"
    },
    {
      "inputs": [
        {
          "internalType": "address",
          "name": "airnode",
          "type": "address"
        },
        {
          "internalType": "bytes32",
          "name": "templateId",
          "type": "bytes32"
        },
        {
          "internalType": "bytes",
          "name": "parameters",
          "type": "bytes"
        },
        {
          "internalType": "address",
          "name": "sponsor",
          "type": "address"
        },
        {
          "internalType": "bytes4",
          "name": "fulfillFunctionId",
          "type": "bytes4"
        }
      ],
      "name": "makeRequest",
      "outputs": [
        {
          "internalType": "bytes32",
          "name": "requestId",
          "type": "bytes32"
        }
      ],
      "stateMutability": "nonpayable",
      "type": "function"
    },
    {
      "inputs": [
        {
          "internalType": "address",
          "name": "airnode",
          "type": "address"
        },
        {
          "internalType": "bytes32",
          "name": "templateId",
          "type": "bytes32"
        },
        {
          "internalType": "bytes",
          "name": "parameters",
          "type": "bytes"
        },
        {
          "internalType": "address",
          "name": "relayer",
          "type": "address"
        },
        {
          "internalType": "address",
          "name": "sponsor",
          "type": "address"
        },
        {
          "internalType": "bytes4",
          "name": "fulfillFunctionId",
          "type": "bytes4"
        }
      ],
      "name": "makeRequestRelayed",
      "outputs": [
        {
          "internalType": "bytes32",
          "name": "requestId",
          "type": "bytes32"
        }
      ],
      "stateMutability": "nonpayable",
      "type": "function"
    },
    {
      "inputs": [
        {
          "internalType": "bytes[]",
          "name": "data",
          "type": "bytes[]"
        }
      ],
      "name": "multicall",
      "outputs": [
        {
          "internalType": "bytes[]",
          "name": "results",
          "type": "bytes[]"
        }
      ],
      "stateMutability": "nonpayable",
      "type": "function"
    },
    {
      "inputs": [
        {
          "internalType": "bytes32",
          "name": "requestId",
          "type": "bytes32"
        }
      ],
      "name": "requestIsAwaitingFulfillment",
      "outputs": [
        {
          "internalType": "bool",
          "name": "",
          "type": "bool"
        }
      ],
      "stateMutability": "view",
      "type": "function"
    },
    {
      "inputs": [
        {
          "internalType": "address",
          "name": "airnodeOrRelayer",
          "type": "address"
        },
        {
          "internalType": "uint256",
          "name": "protocolId",
          "type": "uint256"
        }
      ],
      "name": "requestWithdrawal",
      "outputs": [],
      "stateMutability": "nonpayable",
      "type": "function"
    },
    {
      "inputs": [
        {
          "internalType": "address",
          "name": "",
          "type": "address"
        }
      ],
      "name": "requesterToRequestCount",
      "outputs": [
        {
          "internalType": "uint256",
          "name": "",
          "type": "uint256"
        }
      ],
      "stateMutability": "view",
      "type": "function"
    },
    {
      "inputs": [
        {
          "internalType": "bytes32",
          "name": "subscriptionId",
          "type": "bytes32"
        },
        {
          "internalType": "bool",
          "name": "status",
          "type": "bool"
        }
      ],
      "name": "setPspSponsorshipStatus",
      "outputs": [],
      "stateMutability": "nonpayable",
      "type": "function"
    },
    {
      "inputs": [
        {
          "internalType": "address",
          "name": "requester",
          "type": "address"
        },
        {
          "internalType": "bool",
          "name": "status",
          "type": "bool"
        }
      ],
      "name": "setRrpSponsorshipStatus",
      "outputs": [],
      "stateMutability": "nonpayable",
      "type": "function"
    },
    {
      "inputs": [
        {
          "internalType": "address",
          "name": "",
          "type": "address"
        }
      ],
      "name": "sponsorToBalance",
      "outputs": [
        {
          "internalType": "uint256",
          "name": "",
          "type": "uint256"
        }
      ],
      "stateMutability": "view",
      "type": "function"
    },
    {
      "inputs": [
        {
          "internalType": "address",
          "name": "",
          "type": "address"
        },
        {
          "internalType": "address",
          "name": "",
          "type": "address"
        }
      ],
      "name": "sponsorToRequesterToRrpSponsorshipStatus",
      "outputs": [
        {
          "internalType": "bool",
          "name": "",
          "type": "bool"
        }
      ],
      "stateMutability": "view",
      "type": "function"
    },
    {
      "inputs": [
        {
          "internalType": "address",
          "name": "",
          "type": "address"
        },
        {
          "internalType": "bytes32",
          "name": "",
          "type": "bytes32"
        }
      ],
      "name": "sponsorToSubscriptionIdToPspSponsorshipStatus",
      "outputs": [
        {
          "internalType": "bool",
          "name": "",
          "type": "bool"
        }
      ],
      "stateMutability": "view",
      "type": "function"
    },
    {
      "inputs": [
        {
          "internalType": "address",
          "name": "",
          "type": "address"
        }
      ],
      "name": "sponsorToWithdrawalRequestCount",
      "outputs": [
        {
          "internalType": "uint256",
          "name": "",
          "type": "uint256"
        }
      ],
      "stateMutability": "view",
      "type": "function"
    },
    {
      "inputs": [
        {
          "internalType": "uint256",
          "name": "chainId",
          "type": "uint256"
        },
        {
          "internalType": "address",
          "name": "airnode",
          "type": "address"
        },
        {
          "internalType": "bytes32",
          "name": "templateId",
          "type": "bytes32"
        },
        {
          "internalType": "bytes",
          "name": "parameters",
          "type": "bytes"
        },
        {
          "internalType": "bytes",
          "name": "conditions",
          "type": "bytes"
        },
        {
          "internalType": "address",
          "name": "relayer",
          "type": "address"
        },
        {
          "internalType": "address",
          "name": "sponsor",
          "type": "address"
        },
        {
          "internalType": "address",
          "name": "requester",
          "type": "address"
        },
        {
          "internalType": "bytes4",
          "name": "fulfillFunctionId",
          "type": "bytes4"
        }
      ],
      "name": "storeSubscription",
      "outputs": [
        {
          "internalType": "bytes32",
          "name": "subscriptionId",
          "type": "bytes32"
        }
      ],
      "stateMutability": "nonpayable",
      "type": "function"
    },
    {
      "inputs": [
        {
          "internalType": "bytes32",
          "name": "endpointId",
          "type": "bytes32"
        },
        {
          "internalType": "bytes",
          "name": "parameters",
          "type": "bytes"
        }
      ],
      "name": "storeTemplate",
      "outputs": [
        {
          "internalType": "bytes32",
          "name": "templateId",
          "type": "bytes32"
        }
      ],
      "stateMutability": "nonpayable",
      "type": "function"
    },
    {
      "inputs": [
        {
          "internalType": "bytes32",
          "name": "",
          "type": "bytes32"
        }
      ],
      "name": "subscriptions",
      "outputs": [
        {
          "internalType": "uint256",
          "name": "chainId",
          "type": "uint256"
        },
        {
          "internalType": "address",
          "name": "airnode",
          "type": "address"
        },
        {
          "internalType": "bytes32",
          "name": "templateId",
          "type": "bytes32"
        },
        {
          "internalType": "bytes",
          "name": "parameters",
          "type": "bytes"
        },
        {
          "internalType": "bytes",
          "name": "conditions",
          "type": "bytes"
        },
        {
          "internalType": "address",
          "name": "relayer",
          "type": "address"
        },
        {
          "internalType": "address",
          "name": "sponsor",
          "type": "address"
        },
        {
          "internalType": "address",
          "name": "requester",
          "type": "address"
        },
        {
          "internalType": "bytes4",
          "name": "fulfillFunctionId",
          "type": "bytes4"
        }
      ],
      "stateMutability": "view",
      "type": "function"
    },
    {
      "inputs": [
        {
          "internalType": "bytes32",
          "name": "",
          "type": "bytes32"
        }
      ],
      "name": "templates",
      "outputs": [
        {
          "internalType": "bytes32",
          "name": "endpointId",
          "type": "bytes32"
        },
        {
          "internalType": "bytes",
          "name": "parameters",
          "type": "bytes"
        }
      ],
      "stateMutability": "view",
      "type": "function"
    },
    {
      "inputs": [
        {
          "internalType": "bytes32",
          "name": "withdrawalRequestId",
          "type": "bytes32"
        }
      ],
      "name": "withdrawalRequestIsAwaitingFulfillment",
      "outputs": [
        {
          "internalType": "bool",
          "name": "",
          "type": "bool"
        }
      ],
      "stateMutability": "view",
      "type": "function"
    }
  ],
  "transactionHash": "0xd47690e590fcc294bc85454e01ef4783dd7a4e9f41083f3dedebdf9c6a7395e3",
  "args": [],
  "numDeployments": 1,
  "solcInputHash": "c9b2ab39863d3cf9e9065f46e73c980b",
  "bytecode": "0x608060405234801561001057600080fd5b5061379b806100206000396000f3fe6080604052600436106101c25760003560e01c8063796b89b9116100f7578063ac9650d811610095578063eacd06e511610064578063eacd06e514610562578063eebecf6914610582578063f8b2cb4f146105a2578063f8fa73a1146105ca57600080fd5b8063ac9650d8146104e2578063c5a9550f1461050f578063da95ebf71461052f578063dfdeaef41461054f57600080fd5b806394259c6c116100d157806394259c6c1461044d5780639d6a6bf114610482578063a7e0c85e146104a2578063abb67ca5146104c257600080fd5b8063796b89b9146103df57806389ebd555146103f25780638ae59e0e1461041257600080fd5b806345ac480d116101645780634dcc19fe1161013e5780634dcc19fe1461035057806350743bb9146103635780636014a2b2146103925780636d6d2ca0146103bf57600080fd5b806345ac480d146102ed5780634b1c1a47146103035780634b8985d91461033057600080fd5b806330509bca116101a057806330509bca1461026b5780633408e4701461028257806336f0cd751461029f57806342cbb15c146102da57600080fd5b80630a631576146101c75780630c8eeead146101fe5780632bdf46e71461022c575b600080fd5b3480156101d357600080fd5b506101e76101e2366004612bf1565b6105f7565b6040516101f5929190612c66565b60405180910390f35b34801561020a57600080fd5b5061021e610219366004612cfd565b61069c565b6040516101f5929190612db4565b34801561023857600080fd5b5061025b610247366004612bf1565b600090815260066020526040902054151590565b60405190151581526020016101f5565b34801561027757600080fd5b50610280610a2d565b005b34801561028e57600080fd5b50465b6040519081526020016101f5565b3480156102ab57600080fd5b5061025b6102ba366004612dcf565b600260209081526000928352604080842090915290825290205460ff1681565b3480156102e657600080fd5b5043610291565b3480156102f957600080fd5b5061029161100081565b34801561030f57600080fd5b5061029161031e366004612e02565b60046020526000908152604090205481565b34801561033c57600080fd5b5061029161034b366004612e1d565b610b72565b34801561035c57600080fd5b5048610291565b34801561036f57600080fd5b5061025b61037e366004612bf1565b600090815260086020526040902054151590565b34801561039e57600080fd5b506102916103ad366004612e02565b60076020526000908152604090205481565b3480156103cb57600080fd5b506102916103da366004612e69565b610ca4565b3480156103eb57600080fd5b5042610291565b3480156103fe57600080fd5b5061028061040d366004612cfd565b6111c2565b34801561041e57600080fd5b5061025b61042d366004612f43565b600360209081526000928352604080842090915290825290205460ff1681565b34801561045957600080fd5b5061046d610468366004612bf1565b61139d565b6040516101f599989796959493929190612f6d565b34801561048e57600080fd5b5061021e61049d366004612fe8565b611515565b3480156104ae57600080fd5b506102916104bd3660046130b1565b61183f565b3480156104ce57600080fd5b506102806104dd366004613151565b611b52565b3480156104ee57600080fd5b506105026104fd36600461317b565b611c15565b6040516101f591906131f0565b34801561051b57600080fd5b5061028061052a366004612fe8565b611d0a565b34801561053b57600080fd5b5061028061054a366004612f43565b611ef5565b61028061055d366004613252565b6120ae565b34801561056e57600080fd5b5061028061057d3660046132d4565b612316565b34801561058e57600080fd5b5061029161059d3660046132f7565b6123bd565b3480156105ae57600080fd5b506102916105bd366004612e02565b6001600160a01b03163190565b3480156105d657600080fd5b506102916105e5366004612e02565b60056020526000908152604090205481565b6000602081905290815260409020805460018201805491929161061990613375565b80601f016020809104026020016040519081016040528092919081815260200182805461064590613375565b80156106925780601f1061066757610100808354040283529160200191610692565b820191906000526020600020905b81548152906001019060200180831161067557829003601f168201915b5050505050905082565b60008981526008602090815260408083205490516001600160601b031960608d811b8216948301949094528b841b1660348201526001600160e01b03198a166048820152604c01604051602081830303815290604052805190602001201461074b5760405162461bcd60e51b815260206004820152601b60248201527f496e76616c696420726571756573742066756c66696c6c6d656e74000000000060448201526064015b60405180910390fd5b896001600160a01b031661083985858080601f016020809104026020016040519081016040528093929190818152602001838380828437600081840152601f19601f820116905080830192505050505050506108338e8b336040516020016107d393929190928352602083019190915260601b6001600160601b031916604082015260540190565b60408051601f1981840301815282825280516020918201207f19457468657265756d205369676e6564204d6573736167653a0a33320000000084830152603c8085019190915282518085039091018152605c909301909152815191012090565b9061266e565b6001600160a01b0316146108845760405162461bcd60e51b81526020600482015260126024820152710a6d2cedcc2e8eae4ca40dad2e6dac2e8c6d60731b6044820152606401610742565b60008b81526008602052604080822091909155516001600160a01b038a169089906108b9908e908b908b908b906024016133d9565b60408051601f198184030181529181526020820180517bffffffffffffffffffffffffffffffffffffffffffffffffffffffff166001600160e01b031990941693909317909252905161090c91906133f9565b6000604051808303816000865af19150503d8060008114610949576040519150601f19603f3d011682016040523d82523d6000602084013e61094e565b606091505b50909250905081156109a5578a8a6001600160a01b03167fd1cc11d12363af4b6022e66d14b18ba1779ecd85a5b41891349d530fb6eee06689898960405161099893929190613415565b60405180910390a3610a1f565b8a8a6001600160a01b03167faee73eafb4f543f82048dfc7d8c9a4ee62506ffa76e0051b749d102c4ac7924c89604051610a16918152604060208201819052601f908201527f46756c66696c6c6d656e74206661696c656420756e65787065637465646c7900606082015260800190565b60405180910390a35b995099975050505050505050565b3360009081526004602052604090205480610a8a5760405162461bcd60e51b815260206004820152601360248201527f53656e6465722062616c616e6365207a65726f000000000000000000000000006044820152606401610742565b3360008181526004602052604080822091909155517ffa58005128630bfb12e51c379d9bed40a8c3d7e8fdaec50028f79074fa41c7c390610ace9084815260200190565b60405180910390a2604051600090339083908381818185875af1925050503d8060008114610b18576040519150601f19603f3d011682016040523d82523d6000602084013e610b1d565b606091505b5050905080610b6e5760405162461bcd60e51b815260206004820152600f60248201527f5472616e73666572206661696c656400000000000000000000000000000000006044820152606401610742565b5050565b6000611000821115610bbc5760405162461bcd60e51b8152602060048201526013602482015272506172616d657465727320746f6f206c6f6e6760681b6044820152606401610742565b838383604051602001610bd193929190613438565b604051602081830303815290604052805190602001209050604051806040016040528085815260200184848080601f01602080910402602001604051908101604052809392919081815260200183838082843760009201829052509390945250508381526020818152604090912083518155838201518051919350610c5d926001850192910190612b58565b50905050807f40743c23e28a8b92f5219dee916cac13f53334209cee6dd9b7fd365e6607c8e7858585604051610c9593929190613415565b60405180910390a29392505050565b60008b610cf35760405162461bcd60e51b815260206004820152600d60248201527f436861696e204944207a65726f000000000000000000000000000000000000006044820152606401610742565b6001600160a01b038b16610d495760405162461bcd60e51b815260206004820152601460248201527f4169726e6f64652061646472657373207a65726f0000000000000000000000006044820152606401610742565b611000881115610d915760405162461bcd60e51b8152602060048201526013602482015272506172616d657465727320746f6f206c6f6e6760681b6044820152606401610742565b611000861115610de35760405162461bcd60e51b815260206004820152601360248201527f436f6e646974696f6e7320746f6f206c6f6e67000000000000000000000000006044820152606401610742565b6001600160a01b038516610e395760405162461bcd60e51b815260206004820152601460248201527f52656c617965722061646472657373207a65726f0000000000000000000000006044820152606401610742565b6001600160a01b038416610e8f5760405162461bcd60e51b815260206004820152601460248201527f53706f6e736f722061646472657373207a65726f0000000000000000000000006044820152606401610742565b6001600160a01b038316610ee55760405162461bcd60e51b815260206004820152601660248201527f5265717565737465722061646472657373207a65726f000000000000000000006044820152606401610742565b6001600160e01b03198216610f3c5760405162461bcd60e51b815260206004820152601860248201527f46756c66696c6c2066756e6374696f6e204944207a65726f00000000000000006044820152606401610742565b8b8b8b8b8b8b8b8b8b8b8b604051602001610f619b9a99989796959493929190613452565b6040516020818303038152906040528051906020012090506040518061012001604052808d81526020018c6001600160a01b031681526020018b81526020018a8a8080601f016020809104026020016040519081016040528093929190818152602001838380828437600092019190915250505090825250604080516020601f8b0181900481028201810190925289815291810191908a908a908190840183828082843760009201829052509385525050506001600160a01b038881166020808501919091528882166040808601919091528883166060808701919091526001600160e01b031989166080909601959095528684526001808352938190208651815586830151948101805473ffffffffffffffffffffffffffffffffffffffff1916959094169490941790925590840151600283015591830151805191926110b192600385019290910190612b58565b50608082015180516110cd916004840191602090910190612b58565b5060a08201516005820180546001600160a01b0392831673ffffffffffffffffffffffffffffffffffffffff199182161790915560c08401516006840180549184169190921617905560e080840151600790930180546101009095015190911c600160a01b027fffffffffffffffff000000000000000000000000000000000000000000000000909416929091169190911791909117905560405181907f544f5b2023290d39a7c3271c6ff6f3f0720e696fa4459d41c949cc02a98314ba906111ab908f908f908f908f908f908f908f908f908f908f908f90613452565b60405180910390a29b9a5050505050505050505050565b6000898152600860209081526040918290205491516001600160601b031960608c811b821693830193909352918a901b90911660348201526001600160e01b031988166048820152604c0160405160208183030381529060405280519060200120146112705760405162461bcd60e51b815260206004820152601b60248201527f496e76616c696420726571756573742066756c66696c6c6d656e7400000000006044820152606401610742565b876001600160a01b03166112ea83838080601f0160208091040260200160405190810160405280939291908181526020018383808284376000920191909152505060405161083392506107d391508e908b903390602001928352602083019190915260601b6001600160601b031916604082015260540190565b6001600160a01b0316146113355760405162461bcd60e51b81526020600482015260126024820152710a6d2cedcc2e8eae4ca40dad2e6dac2e8c6d60731b6044820152606401610742565b600860008a81526020019081526020016000206000905588886001600160a01b03167faee73eafb4f543f82048dfc7d8c9a4ee62506ffa76e0051b749d102c4ac7924c87878760405161138a93929190613415565b60405180910390a3505050505050505050565b600160208190526000918252604090912080549181015460028201546003830180546001600160a01b039093169391926113d690613375565b80601f016020809104026020016040519081016040528092919081815260200182805461140290613375565b801561144f5780601f106114245761010080835404028352916020019161144f565b820191906000526020600020905b81548152906001019060200180831161143257829003601f168201915b50505050509080600401805461146490613375565b80601f016020809104026020016040519081016040528092919081815260200182805461149090613375565b80156114dd5780601f106114b2576101008083540402835291602001916114dd565b820191906000526020600020905b8154815290600101906020018083116114c057829003601f168201915b5050506005840154600685015460079095015493946001600160a01b039182169490821693509081169150600160a01b900460e01b89565b60008a81526008602090815260408083205490516001600160601b031960608e811b8216948301949094528c841b811660348301528b841b1660488201526001600160e01b03198a16605c820152820160405160208183030381529060405280519060200120146115c85760405162461bcd60e51b815260206004820152601b60248201527f496e76616c696420726571756573742066756c66696c6c6d656e7400000000006044820152606401610742565b8a6001600160a01b031661163685858080601f016020809104026020016040519081016040528093929190818152602001838380828437600081840152601f19601f820116905080830192505050505050506108338f8b338c8c6040516020016107d39594939291906134d1565b6001600160a01b0316146116815760405162461bcd60e51b81526020600482015260126024820152710a6d2cedcc2e8eae4ca40dad2e6dac2e8c6d60731b6044820152606401610742565b60008c81526008602052604080822091909155516001600160a01b038b169089906116b6908f908b908b908b906024016133d9565b60408051601f198184030181529181526020820180517bffffffffffffffffffffffffffffffffffffffffffffffffffffffff166001600160e01b031990941693909317909252905161170991906133f9565b6000604051808303816000865af19150503d8060008114611746576040519150601f19603f3d011682016040523d82523d6000602084013e61174b565b606091505b50909250905081156117ac578a6001600160a01b03168c8a6001600160a01b03167fbc2b56fbde291a214ed04ac9fd94c2e53c29b63d1cbdacedfe922d7523cf69eb8a8a8a60405161179f93929190613415565b60405180910390a4611830565b8a6001600160a01b03168c8a6001600160a01b03167f5bfd527f98a7329226e18789dcd6caead784424ffb409bae4584f8e88ee398498a604051611827918152604060208201819052601f908201527f46756c66696c6c6d656e74206661696c656420756e65787065637465646c7900606082015260800190565b60405180910390a45b9a509a98505050505050505050565b60006001600160a01b0388166118975760405162461bcd60e51b815260206004820152601460248201527f4169726e6f64652061646472657373207a65726f0000000000000000000000006044820152606401610742565b866118e45760405162461bcd60e51b815260206004820152601060248201527f54656d706c617465204944207a65726f000000000000000000000000000000006044820152606401610742565b61100085111561192c5760405162461bcd60e51b8152602060048201526013602482015272506172616d657465727320746f6f206c6f6e6760681b6044820152606401610742565b6001600160a01b0384166119825760405162461bcd60e51b815260206004820152601460248201527f52656c617965722061646472657373207a65726f0000000000000000000000006044820152606401610742565b6001600160a01b0383166119d85760405162461bcd60e51b815260206004820152601460248201527f53706f6e736f722061646472657373207a65726f0000000000000000000000006044820152606401610742565b6001600160e01b03198216611a2f5760405162461bcd60e51b815260206004820152601860248201527f46756c66696c6c2066756e6374696f6e204944207a65726f00000000000000006044820152606401610742565b33600090815260076020526040812080548290611a4b90613521565b9190508190559050463033838c8c8c8c8c8c8c604051602001611a789b9a9998979695949392919061353c565b60408051601f198184030181529082905280516020918201206001600160601b031960608d811b82169385019390935233831b8116603485015288831b1660488401526001600160e01b03198616605c84015293500160408051601f19818403018152828252805160209182012060008681526008909252919020556001600160a01b03808b169184918816907fb1fea87872f337aefbe87f34814e8769f6f84c265bf74098ac9122c4b6268cbc90611b3e90339087908f908f908f908e908e906135be565b60405180910390a450979650505050505050565b6001600160a01b038216611ba85760405162461bcd60e51b815260206004820152601660248201527f5265717565737465722061646472657373207a65726f000000000000000000006044820152606401610742565b3360008181526002602090815260408083206001600160a01b03871680855290835292819020805460ff191686151590811790915590519081529192917ff2b2684e2948004382be1d231e64abcee2a088028b4a47e7a800ba9aa9dc966291015b60405180910390a35050565b60608167ffffffffffffffff811115611c3057611c30613612565b604051908082528060200260200182016040528015611c6357816020015b6060815260200190600190039081611c4e5790505b50905060005b82811015611d0357611cd330858584818110611c8757611c87613628565b9050602002810190611c99919061363e565b8080601f01602080910402602001604051908101604052809392919081815260200183838082843760009201919091525061269292505050565b828281518110611ce557611ce5613628565b60200260200101819052508080611cfb90613521565b915050611c69565b5092915050565b60008a8152600860209081526040918290205491516001600160601b031960608d811b8216938301939093528b831b811660348301528a831b1660488201526001600160e01b03198916605c820152016040516020818303038152906040528051906020012014611dbd5760405162461bcd60e51b815260206004820152601b60248201527f496e76616c696420726571756573742066756c66696c6c6d656e7400000000006044820152606401610742565b866001600160a01b0316611e3783838080601f0160208091040260200160405190810160405280939291908181526020018383808284376000920191909152505060405161083392506107d391508f908b903390602001928352602083019190915260601b6001600160601b031916604082015260540190565b6001600160a01b031614611e825760405162461bcd60e51b81526020600482015260126024820152710a6d2cedcc2e8eae4ca40dad2e6dac2e8c6d60731b6044820152606401610742565b600860008b815260200190815260200160002060009055886001600160a01b03168a886001600160a01b03167f5bfd527f98a7329226e18789dcd6caead784424ffb409bae4584f8e88ee39849888888604051611ee193929190613415565b60405180910390a450505050505050505050565b6001600160a01b038216611f4b5760405162461bcd60e51b815260206004820152601c60248201527f4169726e6f64652f72656c617965722061646472657373207a65726f000000006044820152606401610742565b80611f985760405162461bcd60e51b815260206004820152601060248201527f50726f746f636f6c204944207a65726f000000000000000000000000000000006044820152606401610742565b3360008181526005602052604081208054919246923092908590611fbb90613521565b91829055506040805160208101959095526001600160601b0319606094851b8116918601919091529190921b166054830152606882015260880160408051601f198184030181529082905280516020918201206001600160601b0319606087811b821693850193909352603484018690523390921b9091166054830152915060680160408051601f1981840301815282825280516020918201206000858152600690925291902055819033906001600160a01b038616907fe97817ee3466ddc9745f4712aa283248845d739fae3db92899a018300c03119d906120a19087815260200190565b60405180910390a4505050565b6040516001600160601b0319606088811b821660208401526034830188905286901b16605482015260680160408051601f19818403018152918152815160209283012060008a815260069093529120541461214b5760405162461bcd60e51b815260206004820152601e60248201527f496e76616c6964207769746864726177616c2066756c66696c6c6d656e7400006044820152606401610742565b4261215884610e10613685565b11801561216f575061216c42610384613685565b83105b6121bb5760405162461bcd60e51b815260206004820152601360248201527f54696d657374616d70206e6f742076616c6964000000000000000000000000006044820152606401610742565b856001600160a01b031661223583838080601f0160208091040260200160405190810160405280939291908181526020018383808284376000920191909152505060405161083392506107d391508c9089903390602001928352602083019190915260601b6001600160601b031916604082015260540190565b6001600160a01b0316146122805760405162461bcd60e51b81526020600482015260126024820152710a6d2cedcc2e8eae4ca40dad2e6dac2e8c6d60731b6044820152606401610742565b60008781526006602090815260408083208390556001600160a01b03871683526004909152812080543492906122b7908490613685565b9091555050604080518681523360208201523481830152905188916001600160a01b0387811692908a16917f9d4a5358c05c3610156fa7112e5ab33a373ee3d8aab7d6d0477d60eaf8c129f2919081900360600190a450505050505050565b816123635760405162461bcd60e51b815260206004820152601460248201527f537562736372697074696f6e204944207a65726f0000000000000000000000006044820152606401610742565b336000818152600360209081526040808320868452825291829020805460ff191685151590811790915591519182528492917f8307a3c18068fc6f3ad98bcadc19671fb7855dbd3e44d42501c4cced3e732a7f9101611c09565b60006001600160a01b0387166124155760405162461bcd60e51b815260206004820152601460248201527f4169726e6f64652061646472657373207a65726f0000000000000000000000006044820152606401610742565b856124625760405162461bcd60e51b815260206004820152601060248201527f54656d706c617465204944207a65726f000000000000000000000000000000006044820152606401610742565b6110008411156124aa5760405162461bcd60e51b8152602060048201526013602482015272506172616d657465727320746f6f206c6f6e6760681b6044820152606401610742565b6001600160a01b0383166125005760405162461bcd60e51b815260206004820152601460248201527f53706f6e736f722061646472657373207a65726f0000000000000000000000006044820152606401610742565b6001600160e01b031982166125575760405162461bcd60e51b815260206004820152601860248201527f46756c66696c6c2066756e6374696f6e204944207a65726f00000000000000006044820152606401610742565b3360009081526007602052604081208054829061257390613521565b9190508190559050463033838b8b8b8b8b8b60405160200161259e9a9998979695949392919061369d565b60408051601f198184030181529082905280516020918201206001600160601b031960608c811b8216938501939093523390921b90911660348301526001600160e01b0319851660488301529250604c0160408051601f198184030181528282528051602091820120600086815260089092529190205582906001600160a01b038a16907f6537a04eb75e255385ee16033b5cb61105ea1b3ab614f6455fcad6ee88a601739061265b90339086908d908d908d908d908d906135be565b60405180910390a3509695505050505050565b600080600061267d85856126be565b9150915061268a8161272e565b509392505050565b60606126b7838360405180606001604052806027815260200161373f602791396128ec565b9392505050565b6000808251604114156126f55760208301516040840151606085015160001a6126e9878285856129e0565b94509450505050612727565b82516040141561271f5760208301516040840151612714868383612acd565b935093505050612727565b506000905060025b9250929050565b600081600481111561274257612742613715565b141561274b5750565b600181600481111561275f5761275f613715565b14156127ad5760405162461bcd60e51b815260206004820152601860248201527f45434453413a20696e76616c6964207369676e617475726500000000000000006044820152606401610742565b60028160048111156127c1576127c1613715565b141561280f5760405162461bcd60e51b815260206004820152601f60248201527f45434453413a20696e76616c6964207369676e6174757265206c656e677468006044820152606401610742565b600381600481111561282357612823613715565b141561287c5760405162461bcd60e51b815260206004820152602260248201527f45434453413a20696e76616c6964207369676e6174757265202773272076616c604482015261756560f01b6064820152608401610742565b600481600481111561289057612890613715565b14156128e95760405162461bcd60e51b815260206004820152602260248201527f45434453413a20696e76616c6964207369676e6174757265202776272076616c604482015261756560f01b6064820152608401610742565b50565b60606001600160a01b0384163b61296b5760405162461bcd60e51b815260206004820152602660248201527f416464726573733a2064656c65676174652063616c6c20746f206e6f6e2d636f60448201527f6e747261637400000000000000000000000000000000000000000000000000006064820152608401610742565b600080856001600160a01b03168560405161298691906133f9565b600060405180830381855af49150503d80600081146129c1576040519150601f19603f3d011682016040523d82523d6000602084013e6129c6565b606091505b50915091506129d6828286612b1f565b9695505050505050565b6000807f7fffffffffffffffffffffffffffffff5d576e7357a4501ddfe92f46681b20a0831115612a175750600090506003612ac4565b8460ff16601b14158015612a2f57508460ff16601c14155b15612a405750600090506004612ac4565b6040805160008082526020820180845289905260ff881692820192909252606081018690526080810185905260019060a0016020604051602081039080840390855afa158015612a94573d6000803e3d6000fd5b5050604051601f1901519150506001600160a01b038116612abd57600060019250925050612ac4565b9150600090505b94509492505050565b6000807f7fffffffffffffffffffffffffffffffffffffffffffffffffffffffffffffff831681612b0360ff86901c601b613685565b9050612b11878288856129e0565b935093505050935093915050565b60608315612b2e5750816126b7565b825115612b3e5782518084602001fd5b8160405162461bcd60e51b8152600401610742919061372b565b828054612b6490613375565b90600052602060002090601f016020900481019282612b865760008555612bcc565b82601f10612b9f57805160ff1916838001178555612bcc565b82800160010185558215612bcc579182015b82811115612bcc578251825591602001919060010190612bb1565b50612bd8929150612bdc565b5090565b5b80821115612bd85760008155600101612bdd565b600060208284031215612c0357600080fd5b5035919050565b60005b83811015612c25578181015183820152602001612c0d565b83811115612c34576000848401525b50505050565b60008151808452612c52816020860160208601612c0a565b601f01601f19169290920160200192915050565b828152604060208201526000612c7f6040830184612c3a565b949350505050565b80356001600160a01b0381168114612c9e57600080fd5b919050565b80356001600160e01b031981168114612c9e57600080fd5b60008083601f840112612ccd57600080fd5b50813567ffffffffffffffff811115612ce557600080fd5b60208301915083602082850101111561272757600080fd5b600080600080600080600080600060e08a8c031215612d1b57600080fd5b89359850612d2b60208b01612c87565b9750612d3960408b01612c87565b9650612d4760608b01612ca3565b955060808a0135945060a08a013567ffffffffffffffff80821115612d6b57600080fd5b612d778d838e01612cbb565b909650945060c08c0135915080821115612d9057600080fd5b50612d9d8c828d01612cbb565b915080935050809150509295985092959850929598565b8215158152604060208201526000612c7f6040830184612c3a565b60008060408385031215612de257600080fd5b612deb83612c87565b9150612df960208401612c87565b90509250929050565b600060208284031215612e1457600080fd5b6126b782612c87565b600080600060408486031215612e3257600080fd5b83359250602084013567ffffffffffffffff811115612e5057600080fd5b612e5c86828701612cbb565b9497909650939450505050565b60008060008060008060008060008060006101208c8e031215612e8b57600080fd5b8b359a50612e9b60208d01612c87565b995060408c0135985067ffffffffffffffff8060608e01351115612ebe57600080fd5b612ece8e60608f01358f01612cbb565b909950975060808d0135811015612ee457600080fd5b50612ef58d60808e01358e01612cbb565b9096509450612f0660a08d01612c87565b9350612f1460c08d01612c87565b9250612f2260e08d01612c87565b9150612f316101008d01612ca3565b90509295989b509295989b9093969950565b60008060408385031215612f5657600080fd5b612f5f83612c87565b946020939093013593505050565b60006101208b83526001600160a01b03808c1660208501528a6040850152816060850152612f9d8285018b612c3a565b91508382036080850152612fb1828a612c3a565b97811660a085015295861660c084015250509190921660e08201526001600160e01b03199091166101009091015295945050505050565b6000806000806000806000806000806101008b8d03121561300857600080fd5b8a35995061301860208c01612c87565b985061302660408c01612c87565b975061303460608c01612c87565b965061304260808c01612ca3565b955060a08b0135945060c08b013567ffffffffffffffff8082111561306657600080fd5b6130728e838f01612cbb565b909650945060e08d013591508082111561308b57600080fd5b506130988d828e01612cbb565b915080935050809150509295989b9194979a5092959850565b600080600080600080600060c0888a0312156130cc57600080fd5b6130d588612c87565b965060208801359550604088013567ffffffffffffffff8111156130f857600080fd5b6131048a828b01612cbb565b9096509450613117905060608901612c87565b925061312560808901612c87565b915061313360a08901612ca3565b905092959891949750929550565b80358015158114612c9e57600080fd5b6000806040838503121561316457600080fd5b61316d83612c87565b9150612df960208401613141565b6000806020838503121561318e57600080fd5b823567ffffffffffffffff808211156131a657600080fd5b818501915085601f8301126131ba57600080fd5b8135818111156131c957600080fd5b8660208260051b85010111156131de57600080fd5b60209290920196919550909350505050565b6000602080830181845280855180835260408601915060408160051b870101925083870160005b8281101561324557603f19888603018452613233858351612c3a565b94509285019290850190600101613217565b5092979650505050505050565b600080600080600080600060c0888a03121561326d57600080fd5b8735965061327d60208901612c87565b95506040880135945061329260608901612c87565b93506080880135925060a088013567ffffffffffffffff8111156132b557600080fd5b6132c18a828b01612cbb565b989b979a50959850939692959293505050565b600080604083850312156132e757600080fd5b82359150612df960208401613141565b60008060008060008060a0878903121561331057600080fd5b61331987612c87565b955060208701359450604087013567ffffffffffffffff81111561333c57600080fd5b61334889828a01612cbb565b909550935061335b905060608801612c87565b915061336960808801612ca3565b90509295509295509295565b600181811c9082168061338957607f821691505b602082108114156133aa57634e487b7160e01b600052602260045260246000fd5b50919050565b81835281816020850137506000828201602090810191909152601f909101601f19169091010190565b8481528360208201526060604082015260006129d66060830184866133b0565b6000825161340b818460208701612c0a565b9190910192915050565b83815260406020820152600061342f6040830184866133b0565b95945050505050565b838152818360208301376000910160200190815292915050565b60006101208d83526001600160a01b03808e1660208501528c60408501528160608501526134838285018c8e6133b0565b91508382036080850152613498828a8c6133b0565b97811660a085015295861660c084015250509190921660e08201526001600160e01b031990911661010090910152979650505050505050565b8581528460208201526bffffffffffffffffffffffff198460601b1660408201528183605483013760009101605401908152949350505050565b634e487b7160e01b600052601160045260246000fd5b60006000198214156135355761353561350b565b5060010190565b8b815260006bffffffffffffffffffffffff19808d60601b166020840152808c60601b1660348401528a6048840152808a60601b16606884015288607c8401528688609c850137606095861b811696909201609c810196909652509190921b1660b08301526001600160e01b03191660c482015260c801979650505050505050565b60006001600160a01b03808a16835288602084015287604084015260c060608401526135ee60c0840187896133b0565b94166080830152506001600160e01b03199190911660a09091015295945050505050565b634e487b7160e01b600052604160045260246000fd5b634e487b7160e01b600052603260045260246000fd5b6000808335601e1984360301811261365557600080fd5b83018035915067ffffffffffffffff82111561367057600080fd5b60200191503681900382131561272757600080fd5b600082198211156136985761369861350b565b500190565b8a815260006bffffffffffffffffffffffff19808c60601b166020840152808b60601b166034840152896048840152808960601b16606884015287607c8401528587609c85013760609490941b9093169301609c8101939093526001600160e01b03191660b08301525060b401979650505050505050565b634e487b7160e01b600052602160045260246000fd5b6020815260006126b76020830184612c3a56fe416464726573733a206c6f772d6c6576656c2064656c65676174652063616c6c206661696c6564a2646970667358221220e6af691e69c5d655ec7258789eca4faeabb529d5be4c12549ff0c0be771d8f3464736f6c63430008090033",
  "devdoc": {
    "details": "This contract inherits Multicall for Airnodes to be able to make batch static calls to read sponsorship states, and template and subscription details. StorageUtils, SponsorshipUtils and WithdrawalUtils also implement some auxiliary functionality for PSP.",
    "kind": "dev",
    "methods": {
      "claimBalance()": {
        "details": "The sponsor must be able to receive funds. For example, if the sponsor is a contract without a default `payable` function, this will revert."
      },
      "failRequest(bytes32,address,address,bytes4,uint256,string,bytes)": {
        "details": "The Airnode should fall back to this if a request cannot be fulfilled because of an error, including the static call to `fulfill()` returning `false` for `callSuccess`.",
        "params": {
          "airnode": "Airnode address",
          "errorMessage": "A message that explains why the request has failed",
          "fulfillFunctionId": "Selector of the function to be called for fulfillment",
          "requestId": "Request ID",
          "requester": "Requester address",
          "signature": "Request ID, a timestamp and the sponsor wallet address signed by the Airnode address",
          "timestamp": "Timestamp used in the signature"
        }
      },
      "failRequestRelayed(bytes32,address,address,address,bytes4,uint256,string,bytes)": {
        "details": "Since failure may also include problems at the Airnode end (such as it being unavailable), we are content with a signature from the relayer to validate failures. This is acceptable because explicit failures are mainly for easy debugging of issues, and the requester should always consider denial of service from a relayer or an Airnode to be a possibility.",
        "params": {
          "airnode": "Airnode address",
          "errorMessage": "A message that explains why the request has failed",
          "relayer": "Relayer address",
          "requestId": "Request ID",
          "requester": "Requester address",
          "signature": "Request ID, a timestamp and the sponsor wallet address signed by the relayer address",
          "timestamp": "Timestamp used in the signature"
        }
      },
      "fulfillRequest(bytes32,address,address,bytes4,uint256,bytes,bytes)": {
        "details": "Airnodes attest to controlling their respective sponsor wallets by signing a message with the address of the sponsor wallet. A timestamp is added to this signature for it to act as an expiring token if the requester contract checks for freshness. This will not revert depending on the external call. However, it will return `false` if the external call reverts or if there is no function with a matching signature at `fulfillAddress`. On the other hand, it will return `true` if the external call returns successfully or if there is no contract deployed at `fulfillAddress`. If `callSuccess` is `false`, `callData` can be decoded to retrieve the revert string. This function emits its event after an untrusted low-level call, meaning that the log indices of these events may be off.",
        "params": {
          "airnode": "Airnode address",
          "data": "Fulfillment data, encoded in contract ABI",
          "fulfillFunctionId": "Selector of the function to be called for fulfillment",
          "requestId": "Request ID",
          "requester": "Requester address",
          "signature": "Request ID, a timestamp and the sponsor wallet address signed by the Airnode wallet",
          "timestamp": "Timestamp used in the signature"
        },
        "returns": {
          "callData": "Data returned by the fulfillment call (if there is any)",
          "callSuccess": "If the fulfillment call succeeded"
        }
      },
      "fulfillRequestRelayed(bytes32,address,address,address,bytes4,uint256,bytes,bytes)": {
        "details": "The Airnode must verify the integrity of the request details, template details, sponsor addresssponsor wallet address consistency before signing the response",
        "params": {
          "airnode": "Airnode address",
          "data": "Fulfillment data",
          "fulfillFunctionId": "Selector of the function to be called for fulfillment",
          "relayer": "Relayer address",
          "requestId": "Request ID",
          "requester": "Requester address",
          "signature": "Request ID, a timestamp, the sponsor wallet address and the fulfillment data signed by the Airnode address",
          "timestamp": "Timestamp used in the signature"
        },
        "returns": {
          "callData": "Data returned by the fulfillment call (if there is any)",
          "callSuccess": "If the fulfillment call succeeded"
        }
      },
      "fulfillWithdrawal(bytes32,address,uint256,address,uint256,bytes)": {
        "params": {
          "airnodeOrRelayer": "Airnode/relayer address",
          "protocolId": "Protocol ID",
          "sponsor": "Sponsor address",
          "withdrawalRequestId": "Withdrawal request ID"
        }
      },
      "getBalance(address)": {
        "params": {
          "account": "Account address"
        },
        "returns": {
          "_0": "Account balance"
        }
      },
      "getBlockBasefee()": {
        "returns": {
          "_0": "Current block basefee"
        }
      },
      "getBlockNumber()": {
        "returns": {
          "_0": "Current block number"
        }
      },
      "getBlockTimestamp()": {
        "returns": {
          "_0": "Current block timestamp"
        }
      },
      "getChainId()": {
        "returns": {
          "_0": "Chain ID"
        }
      },
      "makeRequest(address,bytes32,bytes,address,bytes4)": {
        "params": {
          "fulfillFunctionId": "Selector of the function to be called for fulfillment",
          "parameters": "Parameters provided by the requester in addition to the parameters in the template",
          "sponsor": "Sponsor address",
          "templateId": "Template ID"
        },
        "returns": {
          "requestId": "Request ID"
        }
      },
      "makeRequestRelayed(address,bytes32,bytes,address,address,bytes4)": {
        "details": "The relayer address indexed in the relayed protocol logs because it will be the relayer that will be listening to these logs",
        "params": {
          "fulfillFunctionId": "Selector of the function to be called for fulfillment",
          "parameters": "Parameters provided by the requester in addition to the parameters in the template",
          "relayer": "Relayer address",
          "sponsor": "Sponsor address",
          "templateId": "Template ID"
        },
        "returns": {
          "requestId": "Request ID"
        }
      },
      "multicall(bytes[])": {
        "details": "Receives and executes a batch of function calls on this contract."
      },
      "requestIsAwaitingFulfillment(bytes32)": {
        "details": "If a requester has made a request, received a request ID but did not hear back, it can call this method to check if the Airnode/relayer called back `failRequest()`/`failRequestRelayed()` instead.",
        "params": {
          "requestId": "Request ID"
        },
        "returns": {
          "_0": "If the request is awaiting fulfillment"
        }
      },
      "requestWithdrawal(address,uint256)": {
        "params": {
          "airnodeOrRelayer": "Airnode/relayer address",
          "protocolId": "Protocol ID"
        }
      },
      "setPspSponsorshipStatus(bytes32,bool)": {
        "params": {
          "status": "Sponsorship status",
          "subscriptionId": "Subscription ID"
        }
      },
      "setRrpSponsorshipStatus(address,bool)": {
        "details": "This applies for both regular and relayed RRP requests. In all contracts, we use the \"set\" verb to refer to setting a value without considering its previous value, and emitting an event whether a state change has occurred or not.",
        "params": {
          "requester": "RRP requester address",
          "status": "Sponsorship status"
        }
      },
      "storeSubscription(uint256,address,bytes32,bytes,bytes,address,address,address,bytes4)": {
        "details": "`airnode` should make the query specified by `templateId` and `parameters`. If the returned data satisfies `conditions`, it should call `requester`'s `fulfillFunctionId` on `chainId` with the returned data, using the wallet dedicated to `sponsor`. If `relayer` is not `airnode`, the relayer is responsible with checking `condition` and using the wallet dedicated to `sponsor` to deliver the data. In most cases, `conditions` will specify a static call to a function on `chainId` with the data. The extent of its flexibility depends on the node implementation and is outside the scope of the on-chain protocol. Similarly, `conditions` can specify with what frequency it should be verified, and the details of this is outside the scope. `templateId` being zero is similar to the endpoint ID being zero for templates, means the endpoint query can be skipped. In this case, `parameters` will be treated as the data that is returned by the endpoint while verifying `conditions`.",
        "params": {
          "airnode": "Airnode address",
          "chainId": "Chain ID",
          "conditions": "Conditions under which the subscription is requested to be fulfilled, encoded in Airnode ABI",
          "fulfillFunctionId": "Selector of the function to be called for fulfillment",
          "parameters": "Parameters provided by the subscription in addition to the parameters in the template, encoded in Airnode ABI",
          "relayer": "Relayer address",
          "requester": "Requester address",
          "sponsor": "Sponsor address",
          "templateId": "Template ID (allowed to be `bytes32(0)`)"
        },
        "returns": {
          "subscriptionId": "Subscription ID"
        }
      },
      "storeTemplate(bytes32,bytes)": {
        "details": "Templates fully or partially define requests. By referencing a template, requesters can omit specifying the \"boilerplate\" sections of requests. A zero endpoint ID means the Airnode does not need to use one of its endpoints, and can move directly on to fulfillment. This is particularly useful for defining traditional keeper jobs that do not require off-chain data.",
        "params": {
          "endpointId": "Endpoint ID (allowed to be `bytes32(0)`)",
          "parameters": "Template parameters, encoded in Airnode ABI"
        },
        "returns": {
          "templateId": "Template ID"
        }
      },
      "withdrawalRequestIsAwaitingFulfillment(bytes32)": {
        "params": {
          "withdrawalRequestId": "Withdrawal request ID"
        },
        "returns": {
          "_0": "isAwaitingFulfillment If the withdrawal request is awaiting fulfillment"
        }
      }
    },
    "stateVariables": {
      "requesterToRequestCount": {
        "details": "This can be used to calculate the ID of the next request that the requester will make"
      }
    },
    "title": "Airnode requestresponse protocol (RRP) and its relayed version",
    "version": 1
  },
  "userdoc": {
    "kind": "user",
    "methods": {
      "MAXIMUM_PARAMETER_LENGTH()": {
        "notice": "Maximum parameter length for byte strings that Airnodes will need to read from storage or logs"
      },
      "claimBalance()": {
        "notice": "Called by the sponsor to claim the withdrawn funds"
      },
      "failRequest(bytes32,address,address,bytes4,uint256,string,bytes)": {
        "notice": "Called by the Airnode using the sponsor wallet if the request cannot be fulfilled"
      },
      "failRequestRelayed(bytes32,address,address,address,bytes4,uint256,string,bytes)": {
        "notice": "Called by the relayer using the sponsor wallet if the request cannot be fulfilled"
      },
      "fulfillRequest(bytes32,address,address,bytes4,uint256,bytes,bytes)": {
        "notice": "Called by the Airnode using the sponsor wallet to fulfill the request"
      },
      "fulfillRequestRelayed(bytes32,address,address,address,bytes4,uint256,bytes,bytes)": {
        "notice": "Called by the relayer using the sponsor wallet to fulfill the request with the Airnode-signed response"
      },
      "fulfillWithdrawal(bytes32,address,uint256,address,uint256,bytes)": {
        "notice": "Called by the Airnode/relayer using the sponsor wallet to fulfill the withdrawal request made by the sponsor"
      },
      "getBalance(address)": {
        "notice": "Returns the account balance"
      },
      "getBlockBasefee()": {
        "notice": "Returns the current block basefee"
      },
      "getBlockNumber()": {
        "notice": "Returns the current block number"
      },
      "getBlockTimestamp()": {
        "notice": "Returns the current block timestamp"
      },
      "getChainId()": {
        "notice": "Returns the chain ID"
      },
      "makeRequest(address,bytes32,bytes,address,bytes4)": {
        "notice": "Called by the requester to make a request"
      },
      "makeRequestRelayed(address,bytes32,bytes,address,address,bytes4)": {
        "notice": "Called by the requester to make a request to be fulfilled by a relayer"
      },
      "requestIsAwaitingFulfillment(bytes32)": {
        "notice": "Returns if the request with the ID is made but not fulfilled/failed yet"
      },
      "requestWithdrawal(address,uint256)": {
        "notice": "Called by a sponsor to request a withdrawal"
      },
      "requesterToRequestCount(address)": {
        "notice": "Number of requests the requester made"
      },
      "setPspSponsorshipStatus(bytes32,bool)": {
        "notice": "Called by the sponsor to set the sponsorship status of a PSP subscription"
      },
      "setRrpSponsorshipStatus(address,bool)": {
        "notice": "Called by the sponsor to set the sponsorship status of an RRP requester"
      },
      "sponsorToBalance(address)": {
        "notice": "Sponsor balance that is withdrawn but not claimed"
      },
      "sponsorToRequesterToRrpSponsorshipStatus(address,address)": {
        "notice": "Sponsorship status for a sponsorRRP requester pair"
      },
      "sponsorToSubscriptionIdToPspSponsorshipStatus(address,bytes32)": {
        "notice": "Sponsorship status for a sponsorPSP subscription pair"
      },
      "sponsorToWithdrawalRequestCount(address)": {
        "notice": "Number of withdrawal requests the sponsor made"
      },
      "storeSubscription(uint256,address,bytes32,bytes,bytes,address,address,address,bytes4)": {
        "notice": "Stores subscription details"
      },
      "storeTemplate(bytes32,bytes)": {
        "notice": "Stores template details"
      },
      "subscriptions(bytes32)": {
        "notice": "Subscription details with the ID"
      },
      "templates(bytes32)": {
        "notice": "Template details with the ID"
      },
      "withdrawalRequestIsAwaitingFulfillment(bytes32)": {
        "notice": "Returns if the withdrawal request with the ID is made but not fulfilled yet"
      }
    },
    "notice": "Similar to HTTP, RRP allows the requester to specify a one-off request that the Airnode is expected to respond to as soon as possible. The relayed version allows the requester to specify an Airnode that will sign the fulfillment data and a relayer that will report the signed fulfillment.",
    "version": 1
  },
  "storageLayout": {
    "storage": [
      {
        "astId": 11813,
        "contract": "contracts/protocol/AirnodeProtocol.sol:AirnodeProtocol",
        "label": "templates",
        "offset": 0,
        "slot": "0",
        "type": "t_mapping(t_bytes32,t_struct(Template)11782_storage)"
      },
      {
        "astId": 11820,
        "contract": "contracts/protocol/AirnodeProtocol.sol:AirnodeProtocol",
        "label": "subscriptions",
        "offset": 0,
        "slot": "1",
        "type": "t_mapping(t_bytes32,t_struct(Subscription)11801_storage)"
      },
      {
        "astId": 11690,
        "contract": "contracts/protocol/AirnodeProtocol.sol:AirnodeProtocol",
        "label": "sponsorToRequesterToRrpSponsorshipStatus",
        "offset": 0,
        "slot": "2",
        "type": "t_mapping(t_address,t_mapping(t_address,t_bool))"
      },
      {
        "astId": 11698,
        "contract": "contracts/protocol/AirnodeProtocol.sol:AirnodeProtocol",
        "label": "sponsorToSubscriptionIdToPspSponsorshipStatus",
        "offset": 0,
        "slot": "3",
        "type": "t_mapping(t_address,t_mapping(t_bytes32,t_bool))"
      },
      {
        "astId": 12027,
        "contract": "contracts/protocol/AirnodeProtocol.sol:AirnodeProtocol",
        "label": "sponsorToBalance",
        "offset": 0,
        "slot": "4",
        "type": "t_mapping(t_address,t_uint256)"
      },
      {
        "astId": 12033,
        "contract": "contracts/protocol/AirnodeProtocol.sol:AirnodeProtocol",
        "label": "sponsorToWithdrawalRequestCount",
        "offset": 0,
        "slot": "5",
        "type": "t_mapping(t_address,t_uint256)"
      },
      {
        "astId": 12037,
        "contract": "contracts/protocol/AirnodeProtocol.sol:AirnodeProtocol",
        "label": "withdrawalRequestIdToParameters",
        "offset": 0,
        "slot": "6",
        "type": "t_mapping(t_bytes32,t_bytes32)"
      },
      {
        "astId": 10961,
        "contract": "contracts/protocol/AirnodeProtocol.sol:AirnodeProtocol",
        "label": "requesterToRequestCount",
        "offset": 0,
        "slot": "7",
        "type": "t_mapping(t_address,t_uint256)"
      },
      {
        "astId": 10965,
        "contract": "contracts/protocol/AirnodeProtocol.sol:AirnodeProtocol",
        "label": "requestIdToFulfillmentParameters",
        "offset": 0,
        "slot": "8",
        "type": "t_mapping(t_bytes32,t_bytes32)"
      }
    ],
    "types": {
      "t_address": {
        "encoding": "inplace",
        "label": "address",
        "numberOfBytes": "20"
      },
      "t_bool": {
        "encoding": "inplace",
        "label": "bool",
        "numberOfBytes": "1"
      },
      "t_bytes32": {
        "encoding": "inplace",
        "label": "bytes32",
        "numberOfBytes": "32"
      },
      "t_bytes4": {
        "encoding": "inplace",
        "label": "bytes4",
        "numberOfBytes": "4"
      },
      "t_bytes_storage": {
        "encoding": "bytes",
        "label": "bytes",
        "numberOfBytes": "32"
      },
      "t_mapping(t_address,t_bool)": {
        "encoding": "mapping",
        "key": "t_address",
        "label": "mapping(address => bool)",
        "numberOfBytes": "32",
        "value": "t_bool"
      },
      "t_mapping(t_address,t_mapping(t_address,t_bool))": {
        "encoding": "mapping",
        "key": "t_address",
        "label": "mapping(address => mapping(address => bool))",
        "numberOfBytes": "32",
        "value": "t_mapping(t_address,t_bool)"
      },
      "t_mapping(t_address,t_mapping(t_bytes32,t_bool))": {
        "encoding": "mapping",
        "key": "t_address",
        "label": "mapping(address => mapping(bytes32 => bool))",
        "numberOfBytes": "32",
        "value": "t_mapping(t_bytes32,t_bool)"
      },
      "t_mapping(t_address,t_uint256)": {
        "encoding": "mapping",
        "key": "t_address",
        "label": "mapping(address => uint256)",
        "numberOfBytes": "32",
        "value": "t_uint256"
      },
      "t_mapping(t_bytes32,t_bool)": {
        "encoding": "mapping",
        "key": "t_bytes32",
        "label": "mapping(bytes32 => bool)",
        "numberOfBytes": "32",
        "value": "t_bool"
      },
      "t_mapping(t_bytes32,t_bytes32)": {
        "encoding": "mapping",
        "key": "t_bytes32",
        "label": "mapping(bytes32 => bytes32)",
        "numberOfBytes": "32",
        "value": "t_bytes32"
      },
      "t_mapping(t_bytes32,t_struct(Subscription)11801_storage)": {
        "encoding": "mapping",
        "key": "t_bytes32",
        "label": "mapping(bytes32 => struct StorageUtils.Subscription)",
        "numberOfBytes": "32",
        "value": "t_struct(Subscription)11801_storage"
      },
      "t_mapping(t_bytes32,t_struct(Template)11782_storage)": {
        "encoding": "mapping",
        "key": "t_bytes32",
        "label": "mapping(bytes32 => struct StorageUtils.Template)",
        "numberOfBytes": "32",
        "value": "t_struct(Template)11782_storage"
      },
      "t_struct(Subscription)11801_storage": {
        "encoding": "inplace",
        "label": "struct StorageUtils.Subscription",
        "members": [
          {
            "astId": 11784,
            "contract": "contracts/protocol/AirnodeProtocol.sol:AirnodeProtocol",
            "label": "chainId",
            "offset": 0,
            "slot": "0",
            "type": "t_uint256"
          },
          {
            "astId": 11786,
            "contract": "contracts/protocol/AirnodeProtocol.sol:AirnodeProtocol",
            "label": "airnode",
            "offset": 0,
            "slot": "1",
            "type": "t_address"
          },
          {
            "astId": 11788,
            "contract": "contracts/protocol/AirnodeProtocol.sol:AirnodeProtocol",
            "label": "templateId",
            "offset": 0,
            "slot": "2",
            "type": "t_bytes32"
          },
          {
            "astId": 11790,
            "contract": "contracts/protocol/AirnodeProtocol.sol:AirnodeProtocol",
            "label": "parameters",
            "offset": 0,
            "slot": "3",
            "type": "t_bytes_storage"
          },
          {
            "astId": 11792,
            "contract": "contracts/protocol/AirnodeProtocol.sol:AirnodeProtocol",
            "label": "conditions",
            "offset": 0,
            "slot": "4",
            "type": "t_bytes_storage"
          },
          {
            "astId": 11794,
            "contract": "contracts/protocol/AirnodeProtocol.sol:AirnodeProtocol",
            "label": "relayer",
            "offset": 0,
            "slot": "5",
            "type": "t_address"
          },
          {
            "astId": 11796,
            "contract": "contracts/protocol/AirnodeProtocol.sol:AirnodeProtocol",
            "label": "sponsor",
            "offset": 0,
            "slot": "6",
            "type": "t_address"
          },
          {
            "astId": 11798,
            "contract": "contracts/protocol/AirnodeProtocol.sol:AirnodeProtocol",
            "label": "requester",
            "offset": 0,
            "slot": "7",
            "type": "t_address"
          },
          {
            "astId": 11800,
            "contract": "contracts/protocol/AirnodeProtocol.sol:AirnodeProtocol",
            "label": "fulfillFunctionId",
            "offset": 20,
            "slot": "7",
            "type": "t_bytes4"
          }
        ],
        "numberOfBytes": "256"
      },
      "t_struct(Template)11782_storage": {
        "encoding": "inplace",
        "label": "struct StorageUtils.Template",
        "members": [
          {
            "astId": 11779,
            "contract": "contracts/protocol/AirnodeProtocol.sol:AirnodeProtocol",
            "label": "endpointId",
            "offset": 0,
            "slot": "0",
            "type": "t_bytes32"
          },
          {
            "astId": 11781,
            "contract": "contracts/protocol/AirnodeProtocol.sol:AirnodeProtocol",
            "label": "parameters",
            "offset": 0,
            "slot": "1",
            "type": "t_bytes_storage"
          }
        ],
        "numberOfBytes": "64"
      },
      "t_uint256": {
        "encoding": "inplace",
        "label": "uint256",
        "numberOfBytes": "32"
      }
    }
  }
}